{
	"contracts/3_CryptoMonkeyCollectibles/CryptoMonkey.sol": {
		"CryptoMonkey": {
			"abi": [
				{
					"inputs": [
						{
							"internalType": "string",
							"name": "_name",
							"type": "string"
						}
					],
					"name": "createRandomMonkey",
					"outputs": [],
					"stateMutability": "nonpayable",
					"type": "function"
				}
			],
			"devdoc": {
				"kind": "dev",
				"methods": {},
				"version": 1
			},
			"evm": {
				"assembly": "    /* \"contracts/3_CryptoMonkeyCollectibles/CryptoMonkey.sol\":58:813  contract CryptoMonkey {... */\n  mstore(0x40, 0x80)\n    /* \"contracts/3_CryptoMonkeyCollectibles/CryptoMonkey.sol\":101:104  100 */\n  0x64\n    /* \"contracts/3_CryptoMonkeyCollectibles/CryptoMonkey.sol\":83:104  uint maxMonkeys = 100 */\n  0x00\n  sstore\n    /* \"contracts/3_CryptoMonkeyCollectibles/CryptoMonkey.sol\":58:813  contract CryptoMonkey {... */\n  callvalue\n  dup1\n  iszero\n  tag_1\n  jumpi\n  0x00\n  dup1\n  revert\ntag_1:\n  pop\n  dataSize(sub_0)\n  dup1\n  dataOffset(sub_0)\n  0x00\n  codecopy\n  0x00\n  return\nstop\n\nsub_0: assembly {\n        /* \"contracts/3_CryptoMonkeyCollectibles/CryptoMonkey.sol\":58:813  contract CryptoMonkey {... */\n      mstore(0x40, 0x80)\n      callvalue\n      dup1\n      iszero\n      tag_1\n      jumpi\n      0x00\n      dup1\n      revert\n    tag_1:\n      pop\n      jumpi(tag_2, lt(calldatasize, 0x04))\n      shr(0xe0, calldataload(0x00))\n      dup1\n      0xed0a13ce\n      eq\n      tag_3\n      jumpi\n    tag_2:\n      0x00\n      dup1\n      revert\n        /* \"contracts/3_CryptoMonkeyCollectibles/CryptoMonkey.sol\":446:694  function createRandomMonkey(string memory _name) public {... */\n    tag_3:\n      tag_4\n      0x04\n      dup1\n      calldatasize\n      sub\n      dup2\n      add\n      swap1\n      tag_5\n      swap2\n      swap1\n      tag_6\n      jump\t// in\n    tag_5:\n      tag_7\n      jump\t// in\n    tag_4:\n      stop\n    tag_7:\n        /* \"contracts/3_CryptoMonkeyCollectibles/CryptoMonkey.sol\":506:517  uint randId */\n      0x00\n        /* \"contracts/3_CryptoMonkeyCollectibles/CryptoMonkey.sol\":520:544  _generateRandomId(_name) */\n      tag_9\n        /* \"contracts/3_CryptoMonkeyCollectibles/CryptoMonkey.sol\":538:543  _name */\n      dup3\n        /* \"contracts/3_CryptoMonkeyCollectibles/CryptoMonkey.sol\":520:537  _generateRandomId */\n      tag_10\n        /* \"contracts/3_CryptoMonkeyCollectibles/CryptoMonkey.sol\":520:544  _generateRandomId(_name) */\n      jump\t// in\n    tag_9:\n        /* \"contracts/3_CryptoMonkeyCollectibles/CryptoMonkey.sol\":506:544  uint randId = _generateRandomId(_name) */\n      swap1\n      pop\n        /* \"contracts/3_CryptoMonkeyCollectibles/CryptoMonkey.sol\":621:627  randId */\n      dup1\n        /* \"contracts/3_CryptoMonkeyCollectibles/CryptoMonkey.sol\":596:606  idToMonkey */\n      0x01\n        /* \"contracts/3_CryptoMonkeyCollectibles/CryptoMonkey.sol\":596:614  idToMonkey[randId] */\n      0x00\n        /* \"contracts/3_CryptoMonkeyCollectibles/CryptoMonkey.sol\":607:613  randId */\n      dup4\n        /* \"contracts/3_CryptoMonkeyCollectibles/CryptoMonkey.sol\":596:614  idToMonkey[randId] */\n      dup2\n      mstore\n      0x20\n      add\n      swap1\n      dup2\n      mstore\n      0x20\n      add\n      0x00\n      keccak256\n        /* \"contracts/3_CryptoMonkeyCollectibles/CryptoMonkey.sol\":596:617  idToMonkey[randId].id */\n      0x00\n      add\n      sload\n        /* \"contracts/3_CryptoMonkeyCollectibles/CryptoMonkey.sol\":596:627  idToMonkey[randId].id == randId */\n      eq\n        /* \"contracts/3_CryptoMonkeyCollectibles/CryptoMonkey.sol\":588:658  require(idToMonkey[randId].id == randId, \"Zero or duplicate token id\") */\n      tag_11\n      jumpi\n      mload(0x40)\n      0x08c379a000000000000000000000000000000000000000000000000000000000\n      dup2\n      mstore\n      0x04\n      add\n      tag_12\n      swap1\n      tag_13\n      jump\t// in\n    tag_12:\n      mload(0x40)\n      dup1\n      swap2\n      sub\n      swap1\n      revert\n    tag_11:\n        /* \"contracts/3_CryptoMonkeyCollectibles/CryptoMonkey.sol\":663:690  createMonkey(randId, _name) */\n      tag_14\n        /* \"contracts/3_CryptoMonkeyCollectibles/CryptoMonkey.sol\":676:682  randId */\n      dup2\n        /* \"contracts/3_CryptoMonkeyCollectibles/CryptoMonkey.sol\":684:689  _name */\n      dup4\n        /* \"contracts/3_CryptoMonkeyCollectibles/CryptoMonkey.sol\":663:675  createMonkey */\n      tag_15\n        /* \"contracts/3_CryptoMonkeyCollectibles/CryptoMonkey.sol\":663:690  createMonkey(randId, _name) */\n      jump\t// in\n    tag_14:\n        /* \"contracts/3_CryptoMonkeyCollectibles/CryptoMonkey.sol\":502:694  {... */\n      pop\n        /* \"contracts/3_CryptoMonkeyCollectibles/CryptoMonkey.sol\":446:694  function createRandomMonkey(string memory _name) public {... */\n      pop\n      jump\t// out\n        /* \"contracts/3_CryptoMonkeyCollectibles/CryptoMonkey.sol\":301:442  function _generateRandomId(string memory _str) private pure returns(uint) {... */\n    tag_10:\n        /* \"contracts/3_CryptoMonkeyCollectibles/CryptoMonkey.sol\":369:373  uint */\n      0x00\n        /* \"contracts/3_CryptoMonkeyCollectibles/CryptoMonkey.sol\":379:388  uint rand */\n      dup1\n        /* \"contracts/3_CryptoMonkeyCollectibles/CryptoMonkey.sol\":412:416  _str */\n      dup3\n        /* \"contracts/3_CryptoMonkeyCollectibles/CryptoMonkey.sol\":396:418  keccak256(bytes(_str)) */\n      dup1\n      mload\n      swap1\n      0x20\n      add\n      keccak256\n        /* \"contracts/3_CryptoMonkeyCollectibles/CryptoMonkey.sol\":391:419  uint(keccak256(bytes(_str))) */\n      0x00\n      shr\n        /* \"contracts/3_CryptoMonkeyCollectibles/CryptoMonkey.sol\":379:419  uint rand = uint(keccak256(bytes(_str))) */\n      swap1\n      pop\n        /* \"contracts/3_CryptoMonkeyCollectibles/CryptoMonkey.sol\":437:438  3 */\n      0x03\n        /* \"contracts/3_CryptoMonkeyCollectibles/CryptoMonkey.sol\":430:434  rand */\n      dup2\n        /* \"contracts/3_CryptoMonkeyCollectibles/CryptoMonkey.sol\":430:438  rand % 3 */\n      tag_17\n      swap2\n      swap1\n      tag_18\n      jump\t// in\n    tag_17:\n        /* \"contracts/3_CryptoMonkeyCollectibles/CryptoMonkey.sol\":423:438  return rand % 3 */\n      swap2\n      pop\n      pop\n        /* \"contracts/3_CryptoMonkeyCollectibles/CryptoMonkey.sol\":301:442  function _generateRandomId(string memory _str) private pure returns(uint) {... */\n      swap2\n      swap1\n      pop\n      jump\t// out\n        /* \"contracts/3_CryptoMonkeyCollectibles/CryptoMonkey.sol\":700:811  function createMonkey(uint _id, string memory _name) private {... */\n    tag_15:\n        /* \"contracts/3_CryptoMonkeyCollectibles/CryptoMonkey.sol\":789:807  Monkey(_id, _name) */\n      mload(0x40)\n      dup1\n      0x40\n      add\n      0x40\n      mstore\n      dup1\n        /* \"contracts/3_CryptoMonkeyCollectibles/CryptoMonkey.sol\":796:799  _id */\n      dup4\n        /* \"contracts/3_CryptoMonkeyCollectibles/CryptoMonkey.sol\":789:807  Monkey(_id, _name) */\n      dup2\n      mstore\n      0x20\n      add\n        /* \"contracts/3_CryptoMonkeyCollectibles/CryptoMonkey.sol\":801:806  _name */\n      dup3\n        /* \"contracts/3_CryptoMonkeyCollectibles/CryptoMonkey.sol\":789:807  Monkey(_id, _name) */\n      dup2\n      mstore\n      pop\n        /* \"contracts/3_CryptoMonkeyCollectibles/CryptoMonkey.sol\":771:781  idToMonkey */\n      0x01\n        /* \"contracts/3_CryptoMonkeyCollectibles/CryptoMonkey.sol\":771:786  idToMonkey[_id] */\n      0x00\n        /* \"contracts/3_CryptoMonkeyCollectibles/CryptoMonkey.sol\":782:785  _id */\n      dup5\n        /* \"contracts/3_CryptoMonkeyCollectibles/CryptoMonkey.sol\":771:786  idToMonkey[_id] */\n      dup2\n      mstore\n      0x20\n      add\n      swap1\n      dup2\n      mstore\n      0x20\n      add\n      0x00\n      keccak256\n        /* \"contracts/3_CryptoMonkeyCollectibles/CryptoMonkey.sol\":771:807  idToMonkey[_id] = Monkey(_id, _name) */\n      0x00\n      dup3\n      add\n      mload\n      dup2\n      0x00\n      add\n      sstore\n      0x20\n      dup3\n      add\n      mload\n      dup2\n      0x01\n      add\n      swap1\n      dup1\n      mload\n      swap1\n      0x20\n      add\n      swap1\n      tag_20\n      swap3\n      swap2\n      swap1\n      tag_21\n      jump\t// in\n    tag_20:\n      pop\n      swap1\n      pop\n      pop\n        /* \"contracts/3_CryptoMonkeyCollectibles/CryptoMonkey.sol\":700:811  function createMonkey(uint _id, string memory _name) private {... */\n      pop\n      pop\n      jump\t// out\n    tag_21:\n      dup3\n      dup1\n      sload\n      tag_22\n      swap1\n      tag_23\n      jump\t// in\n    tag_22:\n      swap1\n      0x00\n      mstore\n      keccak256(0x00, 0x20)\n      swap1\n      0x1f\n      add\n      0x20\n      swap1\n      div\n      dup2\n      add\n      swap3\n      dup3\n      tag_25\n      jumpi\n      0x00\n      dup6\n      sstore\n      jump(tag_24)\n    tag_25:\n      dup3\n      0x1f\n      lt\n      tag_26\n      jumpi\n      dup1\n      mload\n      not(0xff)\n      and\n      dup4\n      dup1\n      add\n      or\n      dup6\n      sstore\n      jump(tag_24)\n    tag_26:\n      dup3\n      dup1\n      add\n      0x01\n      add\n      dup6\n      sstore\n      dup3\n      iszero\n      tag_24\n      jumpi\n      swap2\n      dup3\n      add\n    tag_27:\n      dup3\n      dup2\n      gt\n      iszero\n      tag_28\n      jumpi\n      dup3\n      mload\n      dup3\n      sstore\n      swap2\n      0x20\n      add\n      swap2\n      swap1\n      0x01\n      add\n      swap1\n      jump(tag_27)\n    tag_28:\n    tag_24:\n      pop\n      swap1\n      pop\n      tag_29\n      swap2\n      swap1\n      tag_30\n      jump\t// in\n    tag_29:\n      pop\n      swap1\n      jump\t// out\n    tag_30:\n    tag_31:\n      dup1\n      dup3\n      gt\n      iszero\n      tag_32\n      jumpi\n      0x00\n      dup2\n      0x00\n      swap1\n      sstore\n      pop\n      0x01\n      add\n      jump(tag_31)\n    tag_32:\n      pop\n      swap1\n      jump\t// out\n        /* \"#utility.yul\":7:82   */\n    tag_33:\n        /* \"#utility.yul\":40:46   */\n      0x00\n        /* \"#utility.yul\":73:75   */\n      0x40\n        /* \"#utility.yul\":67:76   */\n      mload\n        /* \"#utility.yul\":57:76   */\n      swap1\n      pop\n        /* \"#utility.yul\":7:82   */\n      swap1\n      jump\t// out\n        /* \"#utility.yul\":88:205   */\n    tag_34:\n        /* \"#utility.yul\":197:198   */\n      0x00\n        /* \"#utility.yul\":194:195   */\n      dup1\n        /* \"#utility.yul\":187:199   */\n      revert\n        /* \"#utility.yul\":211:328   */\n    tag_35:\n        /* \"#utility.yul\":320:321   */\n      0x00\n        /* \"#utility.yul\":317:318   */\n      dup1\n        /* \"#utility.yul\":310:322   */\n      revert\n        /* \"#utility.yul\":334:451   */\n    tag_36:\n        /* \"#utility.yul\":443:444   */\n      0x00\n        /* \"#utility.yul\":440:441   */\n      dup1\n        /* \"#utility.yul\":433:445   */\n      revert\n        /* \"#utility.yul\":457:574   */\n    tag_37:\n        /* \"#utility.yul\":566:567   */\n      0x00\n        /* \"#utility.yul\":563:564   */\n      dup1\n        /* \"#utility.yul\":556:568   */\n      revert\n        /* \"#utility.yul\":580:682   */\n    tag_38:\n        /* \"#utility.yul\":621:627   */\n      0x00\n        /* \"#utility.yul\":672:674   */\n      0x1f\n        /* \"#utility.yul\":668:675   */\n      not\n        /* \"#utility.yul\":663:665   */\n      0x1f\n        /* \"#utility.yul\":656:661   */\n      dup4\n        /* \"#utility.yul\":652:666   */\n      add\n        /* \"#utility.yul\":648:676   */\n      and\n        /* \"#utility.yul\":638:676   */\n      swap1\n      pop\n        /* \"#utility.yul\":580:682   */\n      swap2\n      swap1\n      pop\n      jump\t// out\n        /* \"#utility.yul\":688:868   */\n    tag_39:\n        /* \"#utility.yul\":736:813   */\n      0x4e487b7100000000000000000000000000000000000000000000000000000000\n        /* \"#utility.yul\":733:734   */\n      0x00\n        /* \"#utility.yul\":726:814   */\n      mstore\n        /* \"#utility.yul\":833:837   */\n      0x41\n        /* \"#utility.yul\":830:831   */\n      0x04\n        /* \"#utility.yul\":823:838   */\n      mstore\n        /* \"#utility.yul\":857:861   */\n      0x24\n        /* \"#utility.yul\":854:855   */\n      0x00\n        /* \"#utility.yul\":847:862   */\n      revert\n        /* \"#utility.yul\":874:1155   */\n    tag_40:\n        /* \"#utility.yul\":957:984   */\n      tag_61\n        /* \"#utility.yul\":979:983   */\n      dup3\n        /* \"#utility.yul\":957:984   */\n      tag_38\n      jump\t// in\n    tag_61:\n        /* \"#utility.yul\":949:955   */\n      dup2\n        /* \"#utility.yul\":945:985   */\n      add\n        /* \"#utility.yul\":1087:1093   */\n      dup2\n        /* \"#utility.yul\":1075:1085   */\n      dup2\n        /* \"#utility.yul\":1072:1094   */\n      lt\n        /* \"#utility.yul\":1051:1069   */\n      0xffffffffffffffff\n        /* \"#utility.yul\":1039:1049   */\n      dup3\n        /* \"#utility.yul\":1036:1070   */\n      gt\n        /* \"#utility.yul\":1033:1095   */\n      or\n        /* \"#utility.yul\":1030:1118   */\n      iszero\n      tag_62\n      jumpi\n        /* \"#utility.yul\":1098:1116   */\n      tag_63\n      tag_39\n      jump\t// in\n    tag_63:\n        /* \"#utility.yul\":1030:1118   */\n    tag_62:\n        /* \"#utility.yul\":1138:1148   */\n      dup1\n        /* \"#utility.yul\":1134:1136   */\n      0x40\n        /* \"#utility.yul\":1127:1149   */\n      mstore\n        /* \"#utility.yul\":917:1155   */\n      pop\n        /* \"#utility.yul\":874:1155   */\n      pop\n      pop\n      jump\t// out\n        /* \"#utility.yul\":1161:1290   */\n    tag_41:\n        /* \"#utility.yul\":1195:1201   */\n      0x00\n        /* \"#utility.yul\":1222:1242   */\n      tag_65\n      tag_33\n      jump\t// in\n    tag_65:\n        /* \"#utility.yul\":1212:1242   */\n      swap1\n      pop\n        /* \"#utility.yul\":1251:1284   */\n      tag_66\n        /* \"#utility.yul\":1279:1283   */\n      dup3\n        /* \"#utility.yul\":1271:1277   */\n      dup3\n        /* \"#utility.yul\":1251:1284   */\n      tag_40\n      jump\t// in\n    tag_66:\n        /* \"#utility.yul\":1161:1290   */\n      swap2\n      swap1\n      pop\n      jump\t// out\n        /* \"#utility.yul\":1296:1604   */\n    tag_42:\n        /* \"#utility.yul\":1358:1362   */\n      0x00\n        /* \"#utility.yul\":1448:1466   */\n      0xffffffffffffffff\n        /* \"#utility.yul\":1440:1446   */\n      dup3\n        /* \"#utility.yul\":1437:1467   */\n      gt\n        /* \"#utility.yul\":1434:1490   */\n      iszero\n      tag_68\n      jumpi\n        /* \"#utility.yul\":1470:1488   */\n      tag_69\n      tag_39\n      jump\t// in\n    tag_69:\n        /* \"#utility.yul\":1434:1490   */\n    tag_68:\n        /* \"#utility.yul\":1508:1537   */\n      tag_70\n        /* \"#utility.yul\":1530:1536   */\n      dup3\n        /* \"#utility.yul\":1508:1537   */\n      tag_38\n      jump\t// in\n    tag_70:\n        /* \"#utility.yul\":1500:1537   */\n      swap1\n      pop\n        /* \"#utility.yul\":1592:1596   */\n      0x20\n        /* \"#utility.yul\":1586:1590   */\n      dup2\n        /* \"#utility.yul\":1582:1597   */\n      add\n        /* \"#utility.yul\":1574:1597   */\n      swap1\n      pop\n        /* \"#utility.yul\":1296:1604   */\n      swap2\n      swap1\n      pop\n      jump\t// out\n        /* \"#utility.yul\":1610:1764   */\n    tag_43:\n        /* \"#utility.yul\":1694:1700   */\n      dup3\n        /* \"#utility.yul\":1689:1692   */\n      dup2\n        /* \"#utility.yul\":1684:1687   */\n      dup4\n        /* \"#utility.yul\":1671:1701   */\n      calldatacopy\n        /* \"#utility.yul\":1756:1757   */\n      0x00\n        /* \"#utility.yul\":1747:1753   */\n      dup4\n        /* \"#utility.yul\":1742:1745   */\n      dup4\n        /* \"#utility.yul\":1738:1754   */\n      add\n        /* \"#utility.yul\":1731:1758   */\n      mstore\n        /* \"#utility.yul\":1610:1764   */\n      pop\n      pop\n      pop\n      jump\t// out\n        /* \"#utility.yul\":1770:2182   */\n    tag_44:\n        /* \"#utility.yul\":1848:1853   */\n      0x00\n        /* \"#utility.yul\":1873:1939   */\n      tag_73\n        /* \"#utility.yul\":1889:1938   */\n      tag_74\n        /* \"#utility.yul\":1931:1937   */\n      dup5\n        /* \"#utility.yul\":1889:1938   */\n      tag_42\n      jump\t// in\n    tag_74:\n        /* \"#utility.yul\":1873:1939   */\n      tag_41\n      jump\t// in\n    tag_73:\n        /* \"#utility.yul\":1864:1939   */\n      swap1\n      pop\n        /* \"#utility.yul\":1962:1968   */\n      dup3\n        /* \"#utility.yul\":1955:1960   */\n      dup2\n        /* \"#utility.yul\":1948:1969   */\n      mstore\n        /* \"#utility.yul\":2000:2004   */\n      0x20\n        /* \"#utility.yul\":1993:1998   */\n      dup2\n        /* \"#utility.yul\":1989:2005   */\n      add\n        /* \"#utility.yul\":2038:2041   */\n      dup5\n        /* \"#utility.yul\":2029:2035   */\n      dup5\n        /* \"#utility.yul\":2024:2027   */\n      dup5\n        /* \"#utility.yul\":2020:2036   */\n      add\n        /* \"#utility.yul\":2017:2042   */\n      gt\n        /* \"#utility.yul\":2014:2126   */\n      iszero\n      tag_75\n      jumpi\n        /* \"#utility.yul\":2045:2124   */\n      tag_76\n      tag_37\n      jump\t// in\n    tag_76:\n        /* \"#utility.yul\":2014:2126   */\n    tag_75:\n        /* \"#utility.yul\":2135:2176   */\n      tag_77\n        /* \"#utility.yul\":2169:2175   */\n      dup5\n        /* \"#utility.yul\":2164:2167   */\n      dup3\n        /* \"#utility.yul\":2159:2162   */\n      dup6\n        /* \"#utility.yul\":2135:2176   */\n      tag_43\n      jump\t// in\n    tag_77:\n        /* \"#utility.yul\":1854:2182   */\n      pop\n        /* \"#utility.yul\":1770:2182   */\n      swap4\n      swap3\n      pop\n      pop\n      pop\n      jump\t// out\n        /* \"#utility.yul\":2202:2542   */\n    tag_45:\n        /* \"#utility.yul\":2258:2263   */\n      0x00\n        /* \"#utility.yul\":2307:2310   */\n      dup3\n        /* \"#utility.yul\":2300:2304   */\n      0x1f\n        /* \"#utility.yul\":2292:2298   */\n      dup4\n        /* \"#utility.yul\":2288:2305   */\n      add\n        /* \"#utility.yul\":2284:2311   */\n      slt\n        /* \"#utility.yul\":2274:2396   */\n      tag_79\n      jumpi\n        /* \"#utility.yul\":2315:2394   */\n      tag_80\n      tag_36\n      jump\t// in\n    tag_80:\n        /* \"#utility.yul\":2274:2396   */\n    tag_79:\n        /* \"#utility.yul\":2432:2438   */\n      dup2\n        /* \"#utility.yul\":2419:2439   */\n      calldataload\n        /* \"#utility.yul\":2457:2536   */\n      tag_81\n        /* \"#utility.yul\":2532:2535   */\n      dup5\n        /* \"#utility.yul\":2524:2530   */\n      dup3\n        /* \"#utility.yul\":2517:2521   */\n      0x20\n        /* \"#utility.yul\":2509:2515   */\n      dup7\n        /* \"#utility.yul\":2505:2522   */\n      add\n        /* \"#utility.yul\":2457:2536   */\n      tag_44\n      jump\t// in\n    tag_81:\n        /* \"#utility.yul\":2448:2536   */\n      swap2\n      pop\n        /* \"#utility.yul\":2264:2542   */\n      pop\n        /* \"#utility.yul\":2202:2542   */\n      swap3\n      swap2\n      pop\n      pop\n      jump\t// out\n        /* \"#utility.yul\":2548:3057   */\n    tag_6:\n        /* \"#utility.yul\":2617:2623   */\n      0x00\n        /* \"#utility.yul\":2666:2668   */\n      0x20\n        /* \"#utility.yul\":2654:2663   */\n      dup3\n        /* \"#utility.yul\":2645:2652   */\n      dup5\n        /* \"#utility.yul\":2641:2664   */\n      sub\n        /* \"#utility.yul\":2637:2669   */\n      slt\n        /* \"#utility.yul\":2634:2753   */\n      iszero\n      tag_83\n      jumpi\n        /* \"#utility.yul\":2672:2751   */\n      tag_84\n      tag_34\n      jump\t// in\n    tag_84:\n        /* \"#utility.yul\":2634:2753   */\n    tag_83:\n        /* \"#utility.yul\":2820:2821   */\n      0x00\n        /* \"#utility.yul\":2809:2818   */\n      dup3\n        /* \"#utility.yul\":2805:2822   */\n      add\n        /* \"#utility.yul\":2792:2823   */\n      calldataload\n        /* \"#utility.yul\":2850:2868   */\n      0xffffffffffffffff\n        /* \"#utility.yul\":2842:2848   */\n      dup2\n        /* \"#utility.yul\":2839:2869   */\n      gt\n        /* \"#utility.yul\":2836:2953   */\n      iszero\n      tag_85\n      jumpi\n        /* \"#utility.yul\":2872:2951   */\n      tag_86\n      tag_35\n      jump\t// in\n    tag_86:\n        /* \"#utility.yul\":2836:2953   */\n    tag_85:\n        /* \"#utility.yul\":2977:3040   */\n      tag_87\n        /* \"#utility.yul\":3032:3039   */\n      dup5\n        /* \"#utility.yul\":3023:3029   */\n      dup3\n        /* \"#utility.yul\":3012:3021   */\n      dup6\n        /* \"#utility.yul\":3008:3030   */\n      add\n        /* \"#utility.yul\":2977:3040   */\n      tag_45\n      jump\t// in\n    tag_87:\n        /* \"#utility.yul\":2967:3040   */\n      swap2\n      pop\n        /* \"#utility.yul\":2763:3050   */\n      pop\n        /* \"#utility.yul\":2548:3057   */\n      swap3\n      swap2\n      pop\n      pop\n      jump\t// out\n        /* \"#utility.yul\":3063:3232   */\n    tag_46:\n        /* \"#utility.yul\":3147:3158   */\n      0x00\n        /* \"#utility.yul\":3181:3187   */\n      dup3\n        /* \"#utility.yul\":3176:3179   */\n      dup3\n        /* \"#utility.yul\":3169:3188   */\n      mstore\n        /* \"#utility.yul\":3221:3225   */\n      0x20\n        /* \"#utility.yul\":3216:3219   */\n      dup3\n        /* \"#utility.yul\":3212:3226   */\n      add\n        /* \"#utility.yul\":3197:3226   */\n      swap1\n      pop\n        /* \"#utility.yul\":3063:3232   */\n      swap3\n      swap2\n      pop\n      pop\n      jump\t// out\n        /* \"#utility.yul\":3238:3414   */\n    tag_47:\n        /* \"#utility.yul\":3378:3406   */\n      0x5a65726f206f72206475706c696361746520746f6b656e206964000000000000\n        /* \"#utility.yul\":3374:3375   */\n      0x00\n        /* \"#utility.yul\":3366:3372   */\n      dup3\n        /* \"#utility.yul\":3362:3376   */\n      add\n        /* \"#utility.yul\":3355:3407   */\n      mstore\n        /* \"#utility.yul\":3238:3414   */\n      pop\n      jump\t// out\n        /* \"#utility.yul\":3420:3786   */\n    tag_48:\n        /* \"#utility.yul\":3562:3565   */\n      0x00\n        /* \"#utility.yul\":3583:3650   */\n      tag_91\n        /* \"#utility.yul\":3647:3649   */\n      0x1a\n        /* \"#utility.yul\":3642:3645   */\n      dup4\n        /* \"#utility.yul\":3583:3650   */\n      tag_46\n      jump\t// in\n    tag_91:\n        /* \"#utility.yul\":3576:3650   */\n      swap2\n      pop\n        /* \"#utility.yul\":3659:3752   */\n      tag_92\n        /* \"#utility.yul\":3748:3751   */\n      dup3\n        /* \"#utility.yul\":3659:3752   */\n      tag_47\n      jump\t// in\n    tag_92:\n        /* \"#utility.yul\":3777:3779   */\n      0x20\n        /* \"#utility.yul\":3772:3775   */\n      dup3\n        /* \"#utility.yul\":3768:3780   */\n      add\n        /* \"#utility.yul\":3761:3780   */\n      swap1\n      pop\n        /* \"#utility.yul\":3420:3786   */\n      swap2\n      swap1\n      pop\n      jump\t// out\n        /* \"#utility.yul\":3792:4211   */\n    tag_13:\n        /* \"#utility.yul\":3958:3962   */\n      0x00\n        /* \"#utility.yul\":3996:3998   */\n      0x20\n        /* \"#utility.yul\":3985:3994   */\n      dup3\n        /* \"#utility.yul\":3981:3999   */\n      add\n        /* \"#utility.yul\":3973:3999   */\n      swap1\n      pop\n        /* \"#utility.yul\":4045:4054   */\n      dup2\n        /* \"#utility.yul\":4039:4043   */\n      dup2\n        /* \"#utility.yul\":4035:4055   */\n      sub\n        /* \"#utility.yul\":4031:4032   */\n      0x00\n        /* \"#utility.yul\":4020:4029   */\n      dup4\n        /* \"#utility.yul\":4016:4033   */\n      add\n        /* \"#utility.yul\":4009:4056   */\n      mstore\n        /* \"#utility.yul\":4073:4204   */\n      tag_94\n        /* \"#utility.yul\":4199:4203   */\n      dup2\n        /* \"#utility.yul\":4073:4204   */\n      tag_48\n      jump\t// in\n    tag_94:\n        /* \"#utility.yul\":4065:4204   */\n      swap1\n      pop\n        /* \"#utility.yul\":3792:4211   */\n      swap2\n      swap1\n      pop\n      jump\t// out\n        /* \"#utility.yul\":4217:4294   */\n    tag_49:\n        /* \"#utility.yul\":4254:4261   */\n      0x00\n        /* \"#utility.yul\":4283:4288   */\n      dup2\n        /* \"#utility.yul\":4272:4288   */\n      swap1\n      pop\n        /* \"#utility.yul\":4217:4294   */\n      swap2\n      swap1\n      pop\n      jump\t// out\n        /* \"#utility.yul\":4300:4480   */\n    tag_50:\n        /* \"#utility.yul\":4348:4425   */\n      0x4e487b7100000000000000000000000000000000000000000000000000000000\n        /* \"#utility.yul\":4345:4346   */\n      0x00\n        /* \"#utility.yul\":4338:4426   */\n      mstore\n        /* \"#utility.yul\":4445:4449   */\n      0x12\n        /* \"#utility.yul\":4442:4443   */\n      0x04\n        /* \"#utility.yul\":4435:4450   */\n      mstore\n        /* \"#utility.yul\":4469:4473   */\n      0x24\n        /* \"#utility.yul\":4466:4467   */\n      0x00\n        /* \"#utility.yul\":4459:4474   */\n      revert\n        /* \"#utility.yul\":4486:4662   */\n    tag_18:\n        /* \"#utility.yul\":4518:4519   */\n      0x00\n        /* \"#utility.yul\":4535:4555   */\n      tag_98\n        /* \"#utility.yul\":4553:4554   */\n      dup3\n        /* \"#utility.yul\":4535:4555   */\n      tag_49\n      jump\t// in\n    tag_98:\n        /* \"#utility.yul\":4530:4555   */\n      swap2\n      pop\n        /* \"#utility.yul\":4569:4589   */\n      tag_99\n        /* \"#utility.yul\":4587:4588   */\n      dup4\n        /* \"#utility.yul\":4569:4589   */\n      tag_49\n      jump\t// in\n    tag_99:\n        /* \"#utility.yul\":4564:4589   */\n      swap3\n      pop\n        /* \"#utility.yul\":4608:4609   */\n      dup3\n        /* \"#utility.yul\":4598:4633   */\n      tag_100\n      jumpi\n        /* \"#utility.yul\":4613:4631   */\n      tag_101\n      tag_50\n      jump\t// in\n    tag_101:\n        /* \"#utility.yul\":4598:4633   */\n    tag_100:\n        /* \"#utility.yul\":4654:4655   */\n      dup3\n        /* \"#utility.yul\":4651:4652   */\n      dup3\n        /* \"#utility.yul\":4647:4656   */\n      mod\n        /* \"#utility.yul\":4642:4656   */\n      swap1\n      pop\n        /* \"#utility.yul\":4486:4662   */\n      swap3\n      swap2\n      pop\n      pop\n      jump\t// out\n        /* \"#utility.yul\":4668:4848   */\n    tag_51:\n        /* \"#utility.yul\":4716:4793   */\n      0x4e487b7100000000000000000000000000000000000000000000000000000000\n        /* \"#utility.yul\":4713:4714   */\n      0x00\n        /* \"#utility.yul\":4706:4794   */\n      mstore\n        /* \"#utility.yul\":4813:4817   */\n      0x22\n        /* \"#utility.yul\":4810:4811   */\n      0x04\n        /* \"#utility.yul\":4803:4818   */\n      mstore\n        /* \"#utility.yul\":4837:4841   */\n      0x24\n        /* \"#utility.yul\":4834:4835   */\n      0x00\n        /* \"#utility.yul\":4827:4842   */\n      revert\n        /* \"#utility.yul\":4854:5174   */\n    tag_23:\n        /* \"#utility.yul\":4898:4904   */\n      0x00\n        /* \"#utility.yul\":4935:4936   */\n      0x02\n        /* \"#utility.yul\":4929:4933   */\n      dup3\n        /* \"#utility.yul\":4925:4937   */\n      div\n        /* \"#utility.yul\":4915:4937   */\n      swap1\n      pop\n        /* \"#utility.yul\":4982:4983   */\n      0x01\n        /* \"#utility.yul\":4976:4980   */\n      dup3\n        /* \"#utility.yul\":4972:4984   */\n      and\n        /* \"#utility.yul\":5003:5021   */\n      dup1\n        /* \"#utility.yul\":4993:5074   */\n      tag_104\n      jumpi\n        /* \"#utility.yul\":5059:5063   */\n      0x7f\n        /* \"#utility.yul\":5051:5057   */\n      dup3\n        /* \"#utility.yul\":5047:5064   */\n      and\n        /* \"#utility.yul\":5037:5064   */\n      swap2\n      pop\n        /* \"#utility.yul\":4993:5074   */\n    tag_104:\n        /* \"#utility.yul\":5121:5123   */\n      0x20\n        /* \"#utility.yul\":5113:5119   */\n      dup3\n        /* \"#utility.yul\":5110:5124   */\n      lt\n        /* \"#utility.yul\":5090:5108   */\n      dup2\n        /* \"#utility.yul\":5087:5125   */\n      sub\n        /* \"#utility.yul\":5084:5168   */\n      tag_105\n      jumpi\n        /* \"#utility.yul\":5140:5158   */\n      tag_106\n      tag_51\n      jump\t// in\n    tag_106:\n        /* \"#utility.yul\":5084:5168   */\n    tag_105:\n        /* \"#utility.yul\":4905:5174   */\n      pop\n        /* \"#utility.yul\":4854:5174   */\n      swap2\n      swap1\n      pop\n      jump\t// out\n\n    auxdata: 0xa264697066735822122055b54d4223639c1eac648d73a9dcc858525ebbfda6cab5eee9d66c243391e4e464736f6c634300080e0033\n}\n",
				"bytecode": {
					"linkReferences": {},
					"object": "6080604052606460005534801561001557600080fd5b506104fd806100256000396000f3fe608060405234801561001057600080fd5b506004361061002b5760003560e01c8063ed0a13ce14610030575b600080fd5b61004a60048036038101906100459190610337565b61004c565b005b6000610057826100bf565b9050806001600083815260200190815260200160002060000154146100b1576040517f08c379a00000000000000000000000000000000000000000000000000000000081526004016100a8906103dd565b60405180910390fd5b6100bb81836100e4565b5050565b600080828051906020012060001c90506003816100dc9190610436565b915050919050565b6040518060400160405280838152602001828152506001600084815260200190815260200160002060008201518160000155602082015181600101908051906020019061013292919061013a565b509050505050565b82805461014690610496565b90600052602060002090601f01602090048101928261016857600085556101af565b82601f1061018157805160ff19168380011785556101af565b828001600101855582156101af579182015b828111156101ae578251825591602001919060010190610193565b5b5090506101bc91906101c0565b5090565b5b808211156101d95760008160009055506001016101c1565b5090565b6000604051905090565b600080fd5b600080fd5b600080fd5b600080fd5b6000601f19601f8301169050919050565b7f4e487b7100000000000000000000000000000000000000000000000000000000600052604160045260246000fd5b610244826101fb565b810181811067ffffffffffffffff821117156102635761026261020c565b5b80604052505050565b60006102766101dd565b9050610282828261023b565b919050565b600067ffffffffffffffff8211156102a2576102a161020c565b5b6102ab826101fb565b9050602081019050919050565b82818337600083830152505050565b60006102da6102d584610287565b61026c565b9050828152602081018484840111156102f6576102f56101f6565b5b6103018482856102b8565b509392505050565b600082601f83011261031e5761031d6101f1565b5b813561032e8482602086016102c7565b91505092915050565b60006020828403121561034d5761034c6101e7565b5b600082013567ffffffffffffffff81111561036b5761036a6101ec565b5b61037784828501610309565b91505092915050565b600082825260208201905092915050565b7f5a65726f206f72206475706c696361746520746f6b656e206964000000000000600082015250565b60006103c7601a83610380565b91506103d282610391565b602082019050919050565b600060208201905081810360008301526103f6816103ba565b9050919050565b6000819050919050565b7f4e487b7100000000000000000000000000000000000000000000000000000000600052601260045260246000fd5b6000610441826103fd565b915061044c836103fd565b92508261045c5761045b610407565b5b828206905092915050565b7f4e487b7100000000000000000000000000000000000000000000000000000000600052602260045260246000fd5b600060028204905060018216806104ae57607f821691505b6020821081036104c1576104c0610467565b5b5091905056fea264697066735822122055b54d4223639c1eac648d73a9dcc858525ebbfda6cab5eee9d66c243391e4e464736f6c634300080e0033",
					"opcodes": "PUSH1 0x80 PUSH1 0x40 MSTORE PUSH1 0x64 PUSH1 0x0 SSTORE CALLVALUE DUP1 ISZERO PUSH2 0x15 JUMPI PUSH1 0x0 DUP1 REVERT JUMPDEST POP PUSH2 0x4FD DUP1 PUSH2 0x25 PUSH1 0x0 CODECOPY PUSH1 0x0 RETURN INVALID PUSH1 0x80 PUSH1 0x40 MSTORE CALLVALUE DUP1 ISZERO PUSH2 0x10 JUMPI PUSH1 0x0 DUP1 REVERT JUMPDEST POP PUSH1 0x4 CALLDATASIZE LT PUSH2 0x2B JUMPI PUSH1 0x0 CALLDATALOAD PUSH1 0xE0 SHR DUP1 PUSH4 0xED0A13CE EQ PUSH2 0x30 JUMPI JUMPDEST PUSH1 0x0 DUP1 REVERT JUMPDEST PUSH2 0x4A PUSH1 0x4 DUP1 CALLDATASIZE SUB DUP2 ADD SWAP1 PUSH2 0x45 SWAP2 SWAP1 PUSH2 0x337 JUMP JUMPDEST PUSH2 0x4C JUMP JUMPDEST STOP JUMPDEST PUSH1 0x0 PUSH2 0x57 DUP3 PUSH2 0xBF JUMP JUMPDEST SWAP1 POP DUP1 PUSH1 0x1 PUSH1 0x0 DUP4 DUP2 MSTORE PUSH1 0x20 ADD SWAP1 DUP2 MSTORE PUSH1 0x20 ADD PUSH1 0x0 KECCAK256 PUSH1 0x0 ADD SLOAD EQ PUSH2 0xB1 JUMPI PUSH1 0x40 MLOAD PUSH32 0x8C379A000000000000000000000000000000000000000000000000000000000 DUP2 MSTORE PUSH1 0x4 ADD PUSH2 0xA8 SWAP1 PUSH2 0x3DD JUMP JUMPDEST PUSH1 0x40 MLOAD DUP1 SWAP2 SUB SWAP1 REVERT JUMPDEST PUSH2 0xBB DUP2 DUP4 PUSH2 0xE4 JUMP JUMPDEST POP POP JUMP JUMPDEST PUSH1 0x0 DUP1 DUP3 DUP1 MLOAD SWAP1 PUSH1 0x20 ADD KECCAK256 PUSH1 0x0 SHR SWAP1 POP PUSH1 0x3 DUP2 PUSH2 0xDC SWAP2 SWAP1 PUSH2 0x436 JUMP JUMPDEST SWAP2 POP POP SWAP2 SWAP1 POP JUMP JUMPDEST PUSH1 0x40 MLOAD DUP1 PUSH1 0x40 ADD PUSH1 0x40 MSTORE DUP1 DUP4 DUP2 MSTORE PUSH1 0x20 ADD DUP3 DUP2 MSTORE POP PUSH1 0x1 PUSH1 0x0 DUP5 DUP2 MSTORE PUSH1 0x20 ADD SWAP1 DUP2 MSTORE PUSH1 0x20 ADD PUSH1 0x0 KECCAK256 PUSH1 0x0 DUP3 ADD MLOAD DUP2 PUSH1 0x0 ADD SSTORE PUSH1 0x20 DUP3 ADD MLOAD DUP2 PUSH1 0x1 ADD SWAP1 DUP1 MLOAD SWAP1 PUSH1 0x20 ADD SWAP1 PUSH2 0x132 SWAP3 SWAP2 SWAP1 PUSH2 0x13A JUMP JUMPDEST POP SWAP1 POP POP POP POP JUMP JUMPDEST DUP3 DUP1 SLOAD PUSH2 0x146 SWAP1 PUSH2 0x496 JUMP JUMPDEST SWAP1 PUSH1 0x0 MSTORE PUSH1 0x20 PUSH1 0x0 KECCAK256 SWAP1 PUSH1 0x1F ADD PUSH1 0x20 SWAP1 DIV DUP2 ADD SWAP3 DUP3 PUSH2 0x168 JUMPI PUSH1 0x0 DUP6 SSTORE PUSH2 0x1AF JUMP JUMPDEST DUP3 PUSH1 0x1F LT PUSH2 0x181 JUMPI DUP1 MLOAD PUSH1 0xFF NOT AND DUP4 DUP1 ADD OR DUP6 SSTORE PUSH2 0x1AF JUMP JUMPDEST DUP3 DUP1 ADD PUSH1 0x1 ADD DUP6 SSTORE DUP3 ISZERO PUSH2 0x1AF JUMPI SWAP2 DUP3 ADD JUMPDEST DUP3 DUP2 GT ISZERO PUSH2 0x1AE JUMPI DUP3 MLOAD DUP3 SSTORE SWAP2 PUSH1 0x20 ADD SWAP2 SWAP1 PUSH1 0x1 ADD SWAP1 PUSH2 0x193 JUMP JUMPDEST JUMPDEST POP SWAP1 POP PUSH2 0x1BC SWAP2 SWAP1 PUSH2 0x1C0 JUMP JUMPDEST POP SWAP1 JUMP JUMPDEST JUMPDEST DUP1 DUP3 GT ISZERO PUSH2 0x1D9 JUMPI PUSH1 0x0 DUP2 PUSH1 0x0 SWAP1 SSTORE POP PUSH1 0x1 ADD PUSH2 0x1C1 JUMP JUMPDEST POP SWAP1 JUMP JUMPDEST PUSH1 0x0 PUSH1 0x40 MLOAD SWAP1 POP SWAP1 JUMP JUMPDEST PUSH1 0x0 DUP1 REVERT JUMPDEST PUSH1 0x0 DUP1 REVERT JUMPDEST PUSH1 0x0 DUP1 REVERT JUMPDEST PUSH1 0x0 DUP1 REVERT JUMPDEST PUSH1 0x0 PUSH1 0x1F NOT PUSH1 0x1F DUP4 ADD AND SWAP1 POP SWAP2 SWAP1 POP JUMP JUMPDEST PUSH32 0x4E487B7100000000000000000000000000000000000000000000000000000000 PUSH1 0x0 MSTORE PUSH1 0x41 PUSH1 0x4 MSTORE PUSH1 0x24 PUSH1 0x0 REVERT JUMPDEST PUSH2 0x244 DUP3 PUSH2 0x1FB JUMP JUMPDEST DUP2 ADD DUP2 DUP2 LT PUSH8 0xFFFFFFFFFFFFFFFF DUP3 GT OR ISZERO PUSH2 0x263 JUMPI PUSH2 0x262 PUSH2 0x20C JUMP JUMPDEST JUMPDEST DUP1 PUSH1 0x40 MSTORE POP POP POP JUMP JUMPDEST PUSH1 0x0 PUSH2 0x276 PUSH2 0x1DD JUMP JUMPDEST SWAP1 POP PUSH2 0x282 DUP3 DUP3 PUSH2 0x23B JUMP JUMPDEST SWAP2 SWAP1 POP JUMP JUMPDEST PUSH1 0x0 PUSH8 0xFFFFFFFFFFFFFFFF DUP3 GT ISZERO PUSH2 0x2A2 JUMPI PUSH2 0x2A1 PUSH2 0x20C JUMP JUMPDEST JUMPDEST PUSH2 0x2AB DUP3 PUSH2 0x1FB JUMP JUMPDEST SWAP1 POP PUSH1 0x20 DUP2 ADD SWAP1 POP SWAP2 SWAP1 POP JUMP JUMPDEST DUP3 DUP2 DUP4 CALLDATACOPY PUSH1 0x0 DUP4 DUP4 ADD MSTORE POP POP POP JUMP JUMPDEST PUSH1 0x0 PUSH2 0x2DA PUSH2 0x2D5 DUP5 PUSH2 0x287 JUMP JUMPDEST PUSH2 0x26C JUMP JUMPDEST SWAP1 POP DUP3 DUP2 MSTORE PUSH1 0x20 DUP2 ADD DUP5 DUP5 DUP5 ADD GT ISZERO PUSH2 0x2F6 JUMPI PUSH2 0x2F5 PUSH2 0x1F6 JUMP JUMPDEST JUMPDEST PUSH2 0x301 DUP5 DUP3 DUP6 PUSH2 0x2B8 JUMP JUMPDEST POP SWAP4 SWAP3 POP POP POP JUMP JUMPDEST PUSH1 0x0 DUP3 PUSH1 0x1F DUP4 ADD SLT PUSH2 0x31E JUMPI PUSH2 0x31D PUSH2 0x1F1 JUMP JUMPDEST JUMPDEST DUP2 CALLDATALOAD PUSH2 0x32E DUP5 DUP3 PUSH1 0x20 DUP7 ADD PUSH2 0x2C7 JUMP JUMPDEST SWAP2 POP POP SWAP3 SWAP2 POP POP JUMP JUMPDEST PUSH1 0x0 PUSH1 0x20 DUP3 DUP5 SUB SLT ISZERO PUSH2 0x34D JUMPI PUSH2 0x34C PUSH2 0x1E7 JUMP JUMPDEST JUMPDEST PUSH1 0x0 DUP3 ADD CALLDATALOAD PUSH8 0xFFFFFFFFFFFFFFFF DUP2 GT ISZERO PUSH2 0x36B JUMPI PUSH2 0x36A PUSH2 0x1EC JUMP JUMPDEST JUMPDEST PUSH2 0x377 DUP5 DUP3 DUP6 ADD PUSH2 0x309 JUMP JUMPDEST SWAP2 POP POP SWAP3 SWAP2 POP POP JUMP JUMPDEST PUSH1 0x0 DUP3 DUP3 MSTORE PUSH1 0x20 DUP3 ADD SWAP1 POP SWAP3 SWAP2 POP POP JUMP JUMPDEST PUSH32 0x5A65726F206F72206475706C696361746520746F6B656E206964000000000000 PUSH1 0x0 DUP3 ADD MSTORE POP JUMP JUMPDEST PUSH1 0x0 PUSH2 0x3C7 PUSH1 0x1A DUP4 PUSH2 0x380 JUMP JUMPDEST SWAP2 POP PUSH2 0x3D2 DUP3 PUSH2 0x391 JUMP JUMPDEST PUSH1 0x20 DUP3 ADD SWAP1 POP SWAP2 SWAP1 POP JUMP JUMPDEST PUSH1 0x0 PUSH1 0x20 DUP3 ADD SWAP1 POP DUP2 DUP2 SUB PUSH1 0x0 DUP4 ADD MSTORE PUSH2 0x3F6 DUP2 PUSH2 0x3BA JUMP JUMPDEST SWAP1 POP SWAP2 SWAP1 POP JUMP JUMPDEST PUSH1 0x0 DUP2 SWAP1 POP SWAP2 SWAP1 POP JUMP JUMPDEST PUSH32 0x4E487B7100000000000000000000000000000000000000000000000000000000 PUSH1 0x0 MSTORE PUSH1 0x12 PUSH1 0x4 MSTORE PUSH1 0x24 PUSH1 0x0 REVERT JUMPDEST PUSH1 0x0 PUSH2 0x441 DUP3 PUSH2 0x3FD JUMP JUMPDEST SWAP2 POP PUSH2 0x44C DUP4 PUSH2 0x3FD JUMP JUMPDEST SWAP3 POP DUP3 PUSH2 0x45C JUMPI PUSH2 0x45B PUSH2 0x407 JUMP JUMPDEST JUMPDEST DUP3 DUP3 MOD SWAP1 POP SWAP3 SWAP2 POP POP JUMP JUMPDEST PUSH32 0x4E487B7100000000000000000000000000000000000000000000000000000000 PUSH1 0x0 MSTORE PUSH1 0x22 PUSH1 0x4 MSTORE PUSH1 0x24 PUSH1 0x0 REVERT JUMPDEST PUSH1 0x0 PUSH1 0x2 DUP3 DIV SWAP1 POP PUSH1 0x1 DUP3 AND DUP1 PUSH2 0x4AE JUMPI PUSH1 0x7F DUP3 AND SWAP2 POP JUMPDEST PUSH1 0x20 DUP3 LT DUP2 SUB PUSH2 0x4C1 JUMPI PUSH2 0x4C0 PUSH2 0x467 JUMP JUMPDEST JUMPDEST POP SWAP2 SWAP1 POP JUMP INVALID LOG2 PUSH5 0x6970667358 0x22 SLT KECCAK256 SSTORE 0xB5 0x4D TIMESTAMP 0x23 PUSH4 0x9C1EAC64 DUP14 PUSH20 0xA9DCC858525EBBFDA6CAB5EEE9D66C243391E4E4 PUSH5 0x736F6C6343 STOP ADDMOD 0xE STOP CALLER "
				},
				"gasEstimates": {
					"creation": {
						"codeDepositCost": "255400",
						"executionCost": "22400",
						"totalCost": "277800"
					},
					"external": {
						"createRandomMonkey(string)": "infinite"
					},
					"internal": {
						"_generateRandomId(string memory)": "infinite",
						"createMonkey(uint256,string memory)": "infinite"
					}
				},
				"methodIdentifiers": {
					"createRandomMonkey(string)": "ed0a13ce"
				}
			},
			"storageLayout": {
				"storage": [
					{
						"astId": 4,
						"contract": "contracts/3_CryptoMonkeyCollectibles/CryptoMonkey.sol:CryptoMonkey",
						"label": "maxMonkeys",
						"offset": 0,
						"slot": "0",
						"type": "t_uint256"
					},
					{
						"astId": 14,
						"contract": "contracts/3_CryptoMonkeyCollectibles/CryptoMonkey.sol:CryptoMonkey",
						"label": "idToMonkey",
						"offset": 0,
						"slot": "1",
						"type": "t_mapping(t_uint256,t_struct(Monkey)9_storage)"
					},
					{
						"astId": 18,
						"contract": "contracts/3_CryptoMonkeyCollectibles/CryptoMonkey.sol:CryptoMonkey",
						"label": "monkeyToOwner",
						"offset": 0,
						"slot": "2",
						"type": "t_mapping(t_uint256,t_address)"
					}
				],
				"types": {
					"t_address": {
						"encoding": "inplace",
						"label": "address",
						"numberOfBytes": "20"
					},
					"t_mapping(t_uint256,t_address)": {
						"encoding": "mapping",
						"key": "t_uint256",
						"label": "mapping(uint256 => address)",
						"numberOfBytes": "32",
						"value": "t_address"
					},
					"t_mapping(t_uint256,t_struct(Monkey)9_storage)": {
						"encoding": "mapping",
						"key": "t_uint256",
						"label": "mapping(uint256 => struct CryptoMonkey.Monkey)",
						"numberOfBytes": "32",
						"value": "t_struct(Monkey)9_storage"
					},
					"t_string_storage": {
						"encoding": "bytes",
						"label": "string",
						"numberOfBytes": "32"
					},
					"t_struct(Monkey)9_storage": {
						"encoding": "inplace",
						"label": "struct CryptoMonkey.Monkey",
						"members": [
							{
								"astId": 6,
								"contract": "contracts/3_CryptoMonkeyCollectibles/CryptoMonkey.sol:CryptoMonkey",
								"label": "id",
								"offset": 0,
								"slot": "0",
								"type": "t_uint256"
							},
							{
								"astId": 8,
								"contract": "contracts/3_CryptoMonkeyCollectibles/CryptoMonkey.sol:CryptoMonkey",
								"label": "name",
								"offset": 0,
								"slot": "1",
								"type": "t_string_storage"
							}
						],
						"numberOfBytes": "64"
					},
					"t_uint256": {
						"encoding": "inplace",
						"label": "uint256",
						"numberOfBytes": "32"
					}
				}
			},
			"userdoc": {
				"kind": "user",
				"methods": {},
				"version": 1
			}
		}
	}
}