{
	"contracts/2_TokenSwap/TokenSwap.sol": {
		"TokenSwap": {
			"abi": [
				{
					"inputs": [
						{
							"internalType": "address",
							"name": "_tokenA",
							"type": "address"
						},
						{
							"internalType": "address",
							"name": "_tokenB",
							"type": "address"
						}
					],
					"stateMutability": "nonpayable",
					"type": "constructor"
				},
				{
					"inputs": [
						{
							"internalType": "enum TokenSwap.SwapType",
							"name": "swapType",
							"type": "uint8"
						},
						{
							"internalType": "uint256",
							"name": "amountFrom",
							"type": "uint256"
						},
						{
							"internalType": "uint256",
							"name": "amountTo",
							"type": "uint256"
						}
					],
					"name": "createSwap",
					"outputs": [],
					"stateMutability": "nonpayable",
					"type": "function"
				},
				{
					"inputs": [],
					"name": "globalSwapCount",
					"outputs": [
						{
							"internalType": "uint256",
							"name": "",
							"type": "uint256"
						}
					],
					"stateMutability": "view",
					"type": "function"
				},
				{
					"inputs": [
						{
							"internalType": "address",
							"name": "",
							"type": "address"
						},
						{
							"internalType": "uint256",
							"name": "",
							"type": "uint256"
						}
					],
					"name": "ownerToSwaps",
					"outputs": [
						{
							"internalType": "bytes32",
							"name": "",
							"type": "bytes32"
						}
					],
					"stateMutability": "view",
					"type": "function"
				},
				{
					"inputs": [
						{
							"internalType": "bytes32",
							"name": "id",
							"type": "bytes32"
						}
					],
					"name": "swap",
					"outputs": [],
					"stateMutability": "nonpayable",
					"type": "function"
				},
				{
					"inputs": [
						{
							"internalType": "bytes32",
							"name": "",
							"type": "bytes32"
						}
					],
					"name": "swapInfo",
					"outputs": [
						{
							"internalType": "bytes32",
							"name": "id",
							"type": "bytes32"
						},
						{
							"internalType": "enum TokenSwap.SwapType",
							"name": "swapType",
							"type": "uint8"
						},
						{
							"internalType": "address",
							"name": "creator",
							"type": "address"
						},
						{
							"internalType": "address",
							"name": "swappedBy",
							"type": "address"
						},
						{
							"internalType": "uint256",
							"name": "amountFrom",
							"type": "uint256"
						},
						{
							"internalType": "uint256",
							"name": "amountTo",
							"type": "uint256"
						},
						{
							"internalType": "bool",
							"name": "isSwapped",
							"type": "bool"
						}
					],
					"stateMutability": "view",
					"type": "function"
				},
				{
					"inputs": [],
					"name": "tokenA",
					"outputs": [
						{
							"internalType": "contract IERC20",
							"name": "",
							"type": "address"
						}
					],
					"stateMutability": "view",
					"type": "function"
				},
				{
					"inputs": [],
					"name": "tokenB",
					"outputs": [
						{
							"internalType": "contract IERC20",
							"name": "",
							"type": "address"
						}
					],
					"stateMutability": "view",
					"type": "function"
				}
			],
			"devdoc": {
				"kind": "dev",
				"methods": {},
				"version": 1
			},
			"evm": {
				"assembly": "    /* \"contracts/2_TokenSwap/TokenSwap.sol\":277:3229  contract TokenSwap {... */\n  mstore(0x40, 0x80)\n    /* \"contracts/2_TokenSwap/TokenSwap.sol\":729:872  constructor(... */\n  callvalue\n  dup1\n  iszero\n  tag_1\n  jumpi\n  0x00\n  dup1\n  revert\ntag_1:\n  pop\n  mload(0x40)\n  sub(codesize, bytecodeSize)\n  dup1\n  bytecodeSize\n  dup4\n  codecopy\n  dup2\n  dup2\n  add\n  0x40\n  mstore\n  dup2\n  add\n  swap1\n  tag_2\n  swap2\n  swap1\n  tag_3\n  jump\t// in\ntag_2:\n    /* \"contracts/2_TokenSwap/TokenSwap.sol\":823:830  _tokenA */\n  dup2\n    /* \"contracts/2_TokenSwap/TokenSwap.sol\":807:813  tokenA */\n  0x00\n  dup1\n    /* \"contracts/2_TokenSwap/TokenSwap.sol\":807:831  tokenA = IERC20(_tokenA) */\n  0x0100\n  exp\n  dup2\n  sload\n  dup2\n  0xffffffffffffffffffffffffffffffffffffffff\n  mul\n  not\n  and\n  swap1\n  dup4\n  0xffffffffffffffffffffffffffffffffffffffff\n  and\n  mul\n  or\n  swap1\n  sstore\n  pop\n    /* \"contracts/2_TokenSwap/TokenSwap.sol\":857:864  _tokenB */\n  dup1\n    /* \"contracts/2_TokenSwap/TokenSwap.sol\":841:847  tokenB */\n  0x01\n  0x00\n    /* \"contracts/2_TokenSwap/TokenSwap.sol\":841:865  tokenB = IERC20(_tokenB) */\n  0x0100\n  exp\n  dup2\n  sload\n  dup2\n  0xffffffffffffffffffffffffffffffffffffffff\n  mul\n  not\n  and\n  swap1\n  dup4\n  0xffffffffffffffffffffffffffffffffffffffff\n  and\n  mul\n  or\n  swap1\n  sstore\n  pop\n    /* \"contracts/2_TokenSwap/TokenSwap.sol\":729:872  constructor(... */\n  pop\n  pop\n    /* \"contracts/2_TokenSwap/TokenSwap.sol\":277:3229  contract TokenSwap {... */\n  jump(tag_6)\n    /* \"#utility.yul\":88:205   */\ntag_8:\n    /* \"#utility.yul\":197:198   */\n  0x00\n    /* \"#utility.yul\":194:195   */\n  dup1\n    /* \"#utility.yul\":187:199   */\n  revert\n    /* \"#utility.yul\":334:460   */\ntag_10:\n    /* \"#utility.yul\":371:378   */\n  0x00\n    /* \"#utility.yul\":411:453   */\n  0xffffffffffffffffffffffffffffffffffffffff\n    /* \"#utility.yul\":404:409   */\n  dup3\n    /* \"#utility.yul\":400:454   */\n  and\n    /* \"#utility.yul\":389:454   */\n  swap1\n  pop\n    /* \"#utility.yul\":334:460   */\n  swap2\n  swap1\n  pop\n  jump\t// out\n    /* \"#utility.yul\":466:562   */\ntag_11:\n    /* \"#utility.yul\":503:510   */\n  0x00\n    /* \"#utility.yul\":532:556   */\n  tag_20\n    /* \"#utility.yul\":550:555   */\n  dup3\n    /* \"#utility.yul\":532:556   */\n  tag_10\n  jump\t// in\ntag_20:\n    /* \"#utility.yul\":521:556   */\n  swap1\n  pop\n    /* \"#utility.yul\":466:562   */\n  swap2\n  swap1\n  pop\n  jump\t// out\n    /* \"#utility.yul\":568:690   */\ntag_12:\n    /* \"#utility.yul\":641:665   */\n  tag_22\n    /* \"#utility.yul\":659:664   */\n  dup2\n    /* \"#utility.yul\":641:665   */\n  tag_11\n  jump\t// in\ntag_22:\n    /* \"#utility.yul\":634:639   */\n  dup2\n    /* \"#utility.yul\":631:666   */\n  eq\n    /* \"#utility.yul\":621:684   */\n  tag_23\n  jumpi\n    /* \"#utility.yul\":680:681   */\n  0x00\n    /* \"#utility.yul\":677:678   */\n  dup1\n    /* \"#utility.yul\":670:682   */\n  revert\n    /* \"#utility.yul\":621:684   */\ntag_23:\n    /* \"#utility.yul\":568:690   */\n  pop\n  jump\t// out\n    /* \"#utility.yul\":696:839   */\ntag_13:\n    /* \"#utility.yul\":753:758   */\n  0x00\n    /* \"#utility.yul\":784:790   */\n  dup2\n    /* \"#utility.yul\":778:791   */\n  mload\n    /* \"#utility.yul\":769:791   */\n  swap1\n  pop\n    /* \"#utility.yul\":800:833   */\n  tag_25\n    /* \"#utility.yul\":827:832   */\n  dup2\n    /* \"#utility.yul\":800:833   */\n  tag_12\n  jump\t// in\ntag_25:\n    /* \"#utility.yul\":696:839   */\n  swap3\n  swap2\n  pop\n  pop\n  jump\t// out\n    /* \"#utility.yul\":845:1352   */\ntag_3:\n    /* \"#utility.yul\":924:930   */\n  0x00\n    /* \"#utility.yul\":932:938   */\n  dup1\n    /* \"#utility.yul\":981:983   */\n  0x40\n    /* \"#utility.yul\":969:978   */\n  dup4\n    /* \"#utility.yul\":960:967   */\n  dup6\n    /* \"#utility.yul\":956:979   */\n  sub\n    /* \"#utility.yul\":952:984   */\n  slt\n    /* \"#utility.yul\":949:1068   */\n  iszero\n  tag_27\n  jumpi\n    /* \"#utility.yul\":987:1066   */\n  tag_28\n  tag_8\n  jump\t// in\ntag_28:\n    /* \"#utility.yul\":949:1068   */\ntag_27:\n    /* \"#utility.yul\":1107:1108   */\n  0x00\n    /* \"#utility.yul\":1132:1196   */\n  tag_29\n    /* \"#utility.yul\":1188:1195   */\n  dup6\n    /* \"#utility.yul\":1179:1185   */\n  dup3\n    /* \"#utility.yul\":1168:1177   */\n  dup7\n    /* \"#utility.yul\":1164:1186   */\n  add\n    /* \"#utility.yul\":1132:1196   */\n  tag_13\n  jump\t// in\ntag_29:\n    /* \"#utility.yul\":1122:1196   */\n  swap3\n  pop\n    /* \"#utility.yul\":1078:1206   */\n  pop\n    /* \"#utility.yul\":1245:1247   */\n  0x20\n    /* \"#utility.yul\":1271:1335   */\n  tag_30\n    /* \"#utility.yul\":1327:1334   */\n  dup6\n    /* \"#utility.yul\":1318:1324   */\n  dup3\n    /* \"#utility.yul\":1307:1316   */\n  dup7\n    /* \"#utility.yul\":1303:1325   */\n  add\n    /* \"#utility.yul\":1271:1335   */\n  tag_13\n  jump\t// in\ntag_30:\n    /* \"#utility.yul\":1261:1335   */\n  swap2\n  pop\n    /* \"#utility.yul\":1216:1345   */\n  pop\n    /* \"#utility.yul\":845:1352   */\n  swap3\n  pop\n  swap3\n  swap1\n  pop\n  jump\t// out\n    /* \"contracts/2_TokenSwap/TokenSwap.sol\":277:3229  contract TokenSwap {... */\ntag_6:\n  dataSize(sub_0)\n  dup1\n  dataOffset(sub_0)\n  0x00\n  codecopy\n  0x00\n  return\nstop\n\nsub_0: assembly {\n        /* \"contracts/2_TokenSwap/TokenSwap.sol\":277:3229  contract TokenSwap {... */\n      mstore(0x40, 0x80)\n      callvalue\n      dup1\n      iszero\n      tag_1\n      jumpi\n      0x00\n      dup1\n      revert\n    tag_1:\n      pop\n      jumpi(tag_2, lt(calldatasize, 0x04))\n      shr(0xe0, calldataload(0x00))\n      dup1\n      0x76467cbd\n      gt\n      tag_10\n      jumpi\n      dup1\n      0x76467cbd\n      eq\n      tag_6\n      jumpi\n      dup1\n      0x91b47c07\n      eq\n      tag_7\n      jumpi\n      dup1\n      0x9e584f91\n      eq\n      tag_8\n      jumpi\n      dup1\n      0xe430c645\n      eq\n      tag_9\n      jumpi\n      jump(tag_2)\n    tag_10:\n      dup1\n      0x0fc63d10\n      eq\n      tag_3\n      jumpi\n      dup1\n      0x2c63ec24\n      eq\n      tag_4\n      jumpi\n      dup1\n      0x5f64b55b\n      eq\n      tag_5\n      jumpi\n    tag_2:\n      0x00\n      dup1\n      revert\n        /* \"contracts/2_TokenSwap/TokenSwap.sol\":302:322  IERC20 public tokenA */\n    tag_3:\n      tag_11\n      tag_12\n      jump\t// in\n    tag_11:\n      mload(0x40)\n      tag_13\n      swap2\n      swap1\n      tag_14\n      jump\t// in\n    tag_13:\n      mload(0x40)\n      dup1\n      swap2\n      sub\n      swap1\n      return\n        /* \"contracts/2_TokenSwap/TokenSwap.sol\":878:1781  function createSwap(SwapType swapType, uint256 amountFrom, uint256 amountTo) public {... */\n    tag_4:\n      tag_15\n      0x04\n      dup1\n      calldatasize\n      sub\n      dup2\n      add\n      swap1\n      tag_16\n      swap2\n      swap1\n      tag_17\n      jump\t// in\n    tag_16:\n      tag_18\n      jump\t// in\n    tag_15:\n      stop\n        /* \"contracts/2_TokenSwap/TokenSwap.sol\":328:348  IERC20 public tokenB */\n    tag_5:\n      tag_19\n      tag_20\n      jump\t// in\n    tag_19:\n      mload(0x40)\n      tag_21\n      swap2\n      swap1\n      tag_14\n      jump\t// in\n    tag_21:\n      mload(0x40)\n      dup1\n      swap2\n      sub\n      swap1\n      return\n        /* \"contracts/2_TokenSwap/TokenSwap.sol\":1957:2964  function swap(bytes32 id) public {... */\n    tag_6:\n      tag_22\n      0x04\n      dup1\n      calldatasize\n      sub\n      dup2\n      add\n      swap1\n      tag_23\n      swap2\n      swap1\n      tag_24\n      jump\t// in\n    tag_23:\n      tag_25\n      jump\t// in\n    tag_22:\n      stop\n        /* \"contracts/2_TokenSwap/TokenSwap.sol\":646:686  mapping(bytes32 => Swap) public swapInfo */\n    tag_7:\n      tag_26\n      0x04\n      dup1\n      calldatasize\n      sub\n      dup2\n      add\n      swap1\n      tag_27\n      swap2\n      swap1\n      tag_24\n      jump\t// in\n    tag_27:\n      tag_28\n      jump\t// in\n    tag_26:\n      mload(0x40)\n      tag_29\n      swap8\n      swap7\n      swap6\n      swap5\n      swap4\n      swap3\n      swap2\n      swap1\n      tag_30\n      jump\t// in\n    tag_29:\n      mload(0x40)\n      dup1\n      swap2\n      sub\n      swap1\n      return\n        /* \"contracts/2_TokenSwap/TokenSwap.sol\":692:722  uint256 public globalSwapCount */\n    tag_8:\n      tag_31\n      tag_32\n      jump\t// in\n    tag_31:\n      mload(0x40)\n      tag_33\n      swap2\n      swap1\n      tag_34\n      jump\t// in\n    tag_33:\n      mload(0x40)\n      dup1\n      swap2\n      sub\n      swap1\n      return\n        /* \"contracts/2_TokenSwap/TokenSwap.sol\":591:640  mapping(address => bytes32[]) public ownerToSwaps */\n    tag_9:\n      tag_35\n      0x04\n      dup1\n      calldatasize\n      sub\n      dup2\n      add\n      swap1\n      tag_36\n      swap2\n      swap1\n      tag_37\n      jump\t// in\n    tag_36:\n      tag_38\n      jump\t// in\n    tag_35:\n      mload(0x40)\n      tag_39\n      swap2\n      swap1\n      tag_40\n      jump\t// in\n    tag_39:\n      mload(0x40)\n      dup1\n      swap2\n      sub\n      swap1\n      return\n        /* \"contracts/2_TokenSwap/TokenSwap.sol\":302:322  IERC20 public tokenA */\n    tag_12:\n      0x00\n      dup1\n      sload\n      swap1\n      0x0100\n      exp\n      swap1\n      div\n      0xffffffffffffffffffffffffffffffffffffffff\n      and\n      dup2\n      jump\t// out\n        /* \"contracts/2_TokenSwap/TokenSwap.sol\":878:1781  function createSwap(SwapType swapType, uint256 amountFrom, uint256 amountTo) public {... */\n    tag_18:\n        /* \"contracts/2_TokenSwap/TokenSwap.sol\":972:984  IERC20 token */\n      0x00\n        /* \"contracts/2_TokenSwap/TokenSwap.sol\":1010:1024  SwapType.AforB */\n      dup1\n        /* \"contracts/2_TokenSwap/TokenSwap.sol\":998:1024  swapType == SwapType.AforB */\n      0x01\n      dup2\n      gt\n      iszero\n      tag_42\n      jumpi\n      tag_43\n      tag_44\n      jump\t// in\n    tag_43:\n    tag_42:\n        /* \"contracts/2_TokenSwap/TokenSwap.sol\":998:1006  swapType */\n      dup5\n        /* \"contracts/2_TokenSwap/TokenSwap.sol\":998:1024  swapType == SwapType.AforB */\n      0x01\n      dup2\n      gt\n      iszero\n      tag_45\n      jumpi\n      tag_46\n      tag_44\n      jump\t// in\n    tag_46:\n    tag_45:\n      sub\n        /* \"contracts/2_TokenSwap/TokenSwap.sol\":994:1452  if (swapType == SwapType.AforB) {... */\n      tag_47\n      jumpi\n        /* \"contracts/2_TokenSwap/TokenSwap.sol\":1112:1122  amountFrom */\n      dup3\n        /* \"contracts/2_TokenSwap/TokenSwap.sol\":1065:1071  tokenA */\n      0x00\n      dup1\n      sload\n      swap1\n      0x0100\n      exp\n      swap1\n      div\n      0xffffffffffffffffffffffffffffffffffffffff\n      and\n        /* \"contracts/2_TokenSwap/TokenSwap.sol\":1065:1081  tokenA.allowance */\n      0xffffffffffffffffffffffffffffffffffffffff\n      and\n      0xdd62ed3e\n        /* \"contracts/2_TokenSwap/TokenSwap.sol\":1082:1092  msg.sender */\n      caller\n        /* \"contracts/2_TokenSwap/TokenSwap.sol\":1102:1106  this */\n      address\n        /* \"contracts/2_TokenSwap/TokenSwap.sol\":1065:1108  tokenA.allowance(msg.sender, address(this)) */\n      mload(0x40)\n      dup4\n      0xffffffff\n      and\n      0xe0\n      shl\n      dup2\n      mstore\n      0x04\n      add\n      tag_48\n      swap3\n      swap2\n      swap1\n      tag_49\n      jump\t// in\n    tag_48:\n      0x20\n      mload(0x40)\n      dup1\n      dup4\n      sub\n      dup2\n      dup7\n      gas\n      staticcall\n      iszero\n      dup1\n      iszero\n      tag_51\n      jumpi\n      returndatasize\n      0x00\n      dup1\n      returndatacopy\n      revert(0x00, returndatasize)\n    tag_51:\n      pop\n      pop\n      pop\n      pop\n      mload(0x40)\n      returndatasize\n      not(0x1f)\n      0x1f\n      dup3\n      add\n      and\n      dup3\n      add\n      dup1\n      0x40\n      mstore\n      pop\n      dup2\n      add\n      swap1\n      tag_52\n      swap2\n      swap1\n      tag_53\n      jump\t// in\n    tag_52:\n        /* \"contracts/2_TokenSwap/TokenSwap.sol\":1065:1122  tokenA.allowance(msg.sender, address(this)) >= amountFrom */\n      lt\n      iszero\n        /* \"contracts/2_TokenSwap/TokenSwap.sol\":1040:1181  require(... */\n      tag_54\n      jumpi\n      mload(0x40)\n      0x08c379a000000000000000000000000000000000000000000000000000000000\n      dup2\n      mstore\n      0x04\n      add\n      tag_55\n      swap1\n      tag_56\n      jump\t// in\n    tag_55:\n      mload(0x40)\n      dup1\n      swap2\n      sub\n      swap1\n      revert\n    tag_54:\n        /* \"contracts/2_TokenSwap/TokenSwap.sol\":1203:1209  tokenA */\n      0x00\n      dup1\n      sload\n      swap1\n      0x0100\n      exp\n      swap1\n      div\n      0xffffffffffffffffffffffffffffffffffffffff\n      and\n        /* \"contracts/2_TokenSwap/TokenSwap.sol\":1195:1209  token = tokenA */\n      swap1\n      pop\n        /* \"contracts/2_TokenSwap/TokenSwap.sol\":994:1452  if (swapType == SwapType.AforB) {... */\n      jump(tag_57)\n    tag_47:\n        /* \"contracts/2_TokenSwap/TokenSwap.sol\":1242:1256  SwapType.BforA */\n      0x01\n        /* \"contracts/2_TokenSwap/TokenSwap.sol\":1230:1256  swapType == SwapType.BforA */\n      dup1\n      dup2\n      gt\n      iszero\n      tag_58\n      jumpi\n      tag_59\n      tag_44\n      jump\t// in\n    tag_59:\n    tag_58:\n        /* \"contracts/2_TokenSwap/TokenSwap.sol\":1230:1238  swapType */\n      dup5\n        /* \"contracts/2_TokenSwap/TokenSwap.sol\":1230:1256  swapType == SwapType.BforA */\n      0x01\n      dup2\n      gt\n      iszero\n      tag_60\n      jumpi\n      tag_61\n      tag_44\n      jump\t// in\n    tag_61:\n    tag_60:\n      sub\n        /* \"contracts/2_TokenSwap/TokenSwap.sol\":1226:1452  if (swapType == SwapType.BforA) {... */\n      tag_62\n      jumpi\n        /* \"contracts/2_TokenSwap/TokenSwap.sol\":1344:1354  amountFrom */\n      dup3\n        /* \"contracts/2_TokenSwap/TokenSwap.sol\":1297:1303  tokenB */\n      0x01\n      0x00\n      swap1\n      sload\n      swap1\n      0x0100\n      exp\n      swap1\n      div\n      0xffffffffffffffffffffffffffffffffffffffff\n      and\n        /* \"contracts/2_TokenSwap/TokenSwap.sol\":1297:1313  tokenB.allowance */\n      0xffffffffffffffffffffffffffffffffffffffff\n      and\n      0xdd62ed3e\n        /* \"contracts/2_TokenSwap/TokenSwap.sol\":1314:1324  msg.sender */\n      caller\n        /* \"contracts/2_TokenSwap/TokenSwap.sol\":1334:1338  this */\n      address\n        /* \"contracts/2_TokenSwap/TokenSwap.sol\":1297:1340  tokenB.allowance(msg.sender, address(this)) */\n      mload(0x40)\n      dup4\n      0xffffffff\n      and\n      0xe0\n      shl\n      dup2\n      mstore\n      0x04\n      add\n      tag_63\n      swap3\n      swap2\n      swap1\n      tag_49\n      jump\t// in\n    tag_63:\n      0x20\n      mload(0x40)\n      dup1\n      dup4\n      sub\n      dup2\n      dup7\n      gas\n      staticcall\n      iszero\n      dup1\n      iszero\n      tag_65\n      jumpi\n      returndatasize\n      0x00\n      dup1\n      returndatacopy\n      revert(0x00, returndatasize)\n    tag_65:\n      pop\n      pop\n      pop\n      pop\n      mload(0x40)\n      returndatasize\n      not(0x1f)\n      0x1f\n      dup3\n      add\n      and\n      dup3\n      add\n      dup1\n      0x40\n      mstore\n      pop\n      dup2\n      add\n      swap1\n      tag_66\n      swap2\n      swap1\n      tag_53\n      jump\t// in\n    tag_66:\n        /* \"contracts/2_TokenSwap/TokenSwap.sol\":1297:1354  tokenB.allowance(msg.sender, address(this)) >= amountFrom */\n      lt\n      iszero\n        /* \"contracts/2_TokenSwap/TokenSwap.sol\":1272:1413  require(... */\n      tag_67\n      jumpi\n      mload(0x40)\n      0x08c379a000000000000000000000000000000000000000000000000000000000\n      dup2\n      mstore\n      0x04\n      add\n      tag_68\n      swap1\n      tag_69\n      jump\t// in\n    tag_68:\n      mload(0x40)\n      dup1\n      swap2\n      sub\n      swap1\n      revert\n    tag_67:\n        /* \"contracts/2_TokenSwap/TokenSwap.sol\":1435:1441  tokenB */\n      0x01\n      0x00\n      swap1\n      sload\n      swap1\n      0x0100\n      exp\n      swap1\n      div\n      0xffffffffffffffffffffffffffffffffffffffff\n      and\n        /* \"contracts/2_TokenSwap/TokenSwap.sol\":1427:1441  token = tokenB */\n      swap1\n      pop\n        /* \"contracts/2_TokenSwap/TokenSwap.sol\":1226:1452  if (swapType == SwapType.BforA) {... */\n    tag_62:\n        /* \"contracts/2_TokenSwap/TokenSwap.sol\":994:1452  if (swapType == SwapType.AforB) {... */\n    tag_57:\n        /* \"contracts/2_TokenSwap/TokenSwap.sol\":1462:1478  bytes32 swapHash */\n      0x00\n        /* \"contracts/2_TokenSwap/TokenSwap.sol\":1481:1515  _hash(globalSwapCount, msg.sender) */\n      tag_70\n        /* \"contracts/2_TokenSwap/TokenSwap.sol\":1487:1502  globalSwapCount */\n      sload(0x04)\n        /* \"contracts/2_TokenSwap/TokenSwap.sol\":1504:1514  msg.sender */\n      caller\n        /* \"contracts/2_TokenSwap/TokenSwap.sol\":1481:1486  _hash */\n      tag_71\n        /* \"contracts/2_TokenSwap/TokenSwap.sol\":1481:1515  _hash(globalSwapCount, msg.sender) */\n      jump\t// in\n    tag_70:\n        /* \"contracts/2_TokenSwap/TokenSwap.sol\":1462:1515  bytes32 swapHash = _hash(globalSwapCount, msg.sender) */\n      swap1\n      pop\n        /* \"contracts/2_TokenSwap/TokenSwap.sol\":1546:1623  Swap(swapHash, swapType, msg.sender, address(0), amountFrom, amountTo, false) */\n      mload(0x40)\n      dup1\n      0xe0\n      add\n      0x40\n      mstore\n      dup1\n        /* \"contracts/2_TokenSwap/TokenSwap.sol\":1551:1559  swapHash */\n      dup3\n        /* \"contracts/2_TokenSwap/TokenSwap.sol\":1546:1623  Swap(swapHash, swapType, msg.sender, address(0), amountFrom, amountTo, false) */\n      dup2\n      mstore\n      0x20\n      add\n        /* \"contracts/2_TokenSwap/TokenSwap.sol\":1561:1569  swapType */\n      dup7\n        /* \"contracts/2_TokenSwap/TokenSwap.sol\":1546:1623  Swap(swapHash, swapType, msg.sender, address(0), amountFrom, amountTo, false) */\n      0x01\n      dup2\n      gt\n      iszero\n      tag_72\n      jumpi\n      tag_73\n      tag_44\n      jump\t// in\n    tag_73:\n    tag_72:\n      dup2\n      mstore\n      0x20\n      add\n        /* \"contracts/2_TokenSwap/TokenSwap.sol\":1571:1581  msg.sender */\n      caller\n        /* \"contracts/2_TokenSwap/TokenSwap.sol\":1546:1623  Swap(swapHash, swapType, msg.sender, address(0), amountFrom, amountTo, false) */\n      0xffffffffffffffffffffffffffffffffffffffff\n      and\n      dup2\n      mstore\n      0x20\n      add\n        /* \"contracts/2_TokenSwap/TokenSwap.sol\":1591:1592  0 */\n      0x00\n        /* \"contracts/2_TokenSwap/TokenSwap.sol\":1546:1623  Swap(swapHash, swapType, msg.sender, address(0), amountFrom, amountTo, false) */\n      0xffffffffffffffffffffffffffffffffffffffff\n      and\n      dup2\n      mstore\n      0x20\n      add\n        /* \"contracts/2_TokenSwap/TokenSwap.sol\":1595:1605  amountFrom */\n      dup6\n        /* \"contracts/2_TokenSwap/TokenSwap.sol\":1546:1623  Swap(swapHash, swapType, msg.sender, address(0), amountFrom, amountTo, false) */\n      dup2\n      mstore\n      0x20\n      add\n        /* \"contracts/2_TokenSwap/TokenSwap.sol\":1607:1615  amountTo */\n      dup5\n        /* \"contracts/2_TokenSwap/TokenSwap.sol\":1546:1623  Swap(swapHash, swapType, msg.sender, address(0), amountFrom, amountTo, false) */\n      dup2\n      mstore\n      0x20\n      add\n        /* \"contracts/2_TokenSwap/TokenSwap.sol\":1617:1622  false */\n      0x00\n        /* \"contracts/2_TokenSwap/TokenSwap.sol\":1546:1623  Swap(swapHash, swapType, msg.sender, address(0), amountFrom, amountTo, false) */\n      iszero\n      iszero\n      dup2\n      mstore\n      pop\n        /* \"contracts/2_TokenSwap/TokenSwap.sol\":1525:1533  swapInfo */\n      0x03\n        /* \"contracts/2_TokenSwap/TokenSwap.sol\":1525:1543  swapInfo[swapHash] */\n      0x00\n        /* \"contracts/2_TokenSwap/TokenSwap.sol\":1534:1542  swapHash */\n      dup4\n        /* \"contracts/2_TokenSwap/TokenSwap.sol\":1525:1543  swapInfo[swapHash] */\n      dup2\n      mstore\n      0x20\n      add\n      swap1\n      dup2\n      mstore\n      0x20\n      add\n      0x00\n      keccak256\n        /* \"contracts/2_TokenSwap/TokenSwap.sol\":1525:1623  swapInfo[swapHash] = Swap(swapHash, swapType, msg.sender, address(0), amountFrom, amountTo, false) */\n      0x00\n      dup3\n      add\n      mload\n      dup2\n      0x00\n      add\n      sstore\n      0x20\n      dup3\n      add\n      mload\n      dup2\n      0x01\n      add\n      exp(0x0100, 0x00)\n      dup2\n      sload\n      dup2\n      0xff\n      mul\n      not\n      and\n      swap1\n      dup4\n      0x01\n      dup2\n      gt\n      iszero\n      tag_74\n      jumpi\n      tag_75\n      tag_44\n      jump\t// in\n    tag_75:\n    tag_74:\n      mul\n      or\n      swap1\n      sstore\n      pop\n      0x40\n      dup3\n      add\n      mload\n      dup2\n      0x01\n      add\n      exp(0x0100, 0x01)\n      dup2\n      sload\n      dup2\n      0xffffffffffffffffffffffffffffffffffffffff\n      mul\n      not\n      and\n      swap1\n      dup4\n      0xffffffffffffffffffffffffffffffffffffffff\n      and\n      mul\n      or\n      swap1\n      sstore\n      pop\n      0x60\n      dup3\n      add\n      mload\n      dup2\n      0x02\n      add\n      exp(0x0100, 0x00)\n      dup2\n      sload\n      dup2\n      0xffffffffffffffffffffffffffffffffffffffff\n      mul\n      not\n      and\n      swap1\n      dup4\n      0xffffffffffffffffffffffffffffffffffffffff\n      and\n      mul\n      or\n      swap1\n      sstore\n      pop\n      0x80\n      dup3\n      add\n      mload\n      dup2\n      0x03\n      add\n      sstore\n      0xa0\n      dup3\n      add\n      mload\n      dup2\n      0x04\n      add\n      sstore\n      0xc0\n      dup3\n      add\n      mload\n      dup2\n      0x05\n      add\n      exp(0x0100, 0x00)\n      dup2\n      sload\n      dup2\n      0xff\n      mul\n      not\n      and\n      swap1\n      dup4\n      iszero\n      iszero\n      mul\n      or\n      swap1\n      sstore\n      pop\n      swap1\n      pop\n      pop\n        /* \"contracts/2_TokenSwap/TokenSwap.sol\":1633:1645  ownerToSwaps */\n      0x02\n        /* \"contracts/2_TokenSwap/TokenSwap.sol\":1633:1657  ownerToSwaps[msg.sender] */\n      0x00\n        /* \"contracts/2_TokenSwap/TokenSwap.sol\":1646:1656  msg.sender */\n      caller\n        /* \"contracts/2_TokenSwap/TokenSwap.sol\":1633:1657  ownerToSwaps[msg.sender] */\n      0xffffffffffffffffffffffffffffffffffffffff\n      and\n      0xffffffffffffffffffffffffffffffffffffffff\n      and\n      dup2\n      mstore\n      0x20\n      add\n      swap1\n      dup2\n      mstore\n      0x20\n      add\n      0x00\n      keccak256\n        /* \"contracts/2_TokenSwap/TokenSwap.sol\":1663:1671  swapHash */\n      dup2\n        /* \"contracts/2_TokenSwap/TokenSwap.sol\":1633:1672  ownerToSwaps[msg.sender].push(swapHash) */\n      swap1\n      dup1\n      0x01\n      dup2\n      sload\n      add\n      dup1\n      dup3\n      sstore\n      dup1\n      swap2\n      pop\n      pop\n      0x01\n      swap1\n      sub\n      swap1\n      0x00\n      mstore\n      keccak256(0x00, 0x20)\n      add\n      0x00\n      swap1\n      swap2\n      swap1\n      swap2\n      swap1\n      swap2\n      pop\n      sstore\n        /* \"contracts/2_TokenSwap/TokenSwap.sol\":1683:1698  globalSwapCount */\n      0x04\n      0x00\n        /* \"contracts/2_TokenSwap/TokenSwap.sol\":1683:1700  globalSwapCount++ */\n      dup2\n      sload\n      dup1\n      swap3\n      swap2\n      swap1\n      tag_77\n      swap1\n      tag_78\n      jump\t// in\n    tag_77:\n      swap2\n      swap1\n      pop\n      sstore\n      pop\n        /* \"contracts/2_TokenSwap/TokenSwap.sol\":1711:1774  _safeTransferFrom(token, msg.sender, address(this), amountFrom) */\n      tag_79\n        /* \"contracts/2_TokenSwap/TokenSwap.sol\":1729:1734  token */\n      dup3\n        /* \"contracts/2_TokenSwap/TokenSwap.sol\":1736:1746  msg.sender */\n      caller\n        /* \"contracts/2_TokenSwap/TokenSwap.sol\":1756:1760  this */\n      address\n        /* \"contracts/2_TokenSwap/TokenSwap.sol\":1763:1773  amountFrom */\n      dup8\n        /* \"contracts/2_TokenSwap/TokenSwap.sol\":1711:1728  _safeTransferFrom */\n      tag_80\n        /* \"contracts/2_TokenSwap/TokenSwap.sol\":1711:1774  _safeTransferFrom(token, msg.sender, address(this), amountFrom) */\n      jump\t// in\n    tag_79:\n        /* \"contracts/2_TokenSwap/TokenSwap.sol\":962:1781  {... */\n      pop\n      pop\n        /* \"contracts/2_TokenSwap/TokenSwap.sol\":878:1781  function createSwap(SwapType swapType, uint256 amountFrom, uint256 amountTo) public {... */\n      pop\n      pop\n      pop\n      jump\t// out\n        /* \"contracts/2_TokenSwap/TokenSwap.sol\":328:348  IERC20 public tokenB */\n    tag_20:\n      0x01\n      0x00\n      swap1\n      sload\n      swap1\n      0x0100\n      exp\n      swap1\n      div\n      0xffffffffffffffffffffffffffffffffffffffff\n      and\n      dup2\n      jump\t// out\n        /* \"contracts/2_TokenSwap/TokenSwap.sol\":1957:2964  function swap(bytes32 id) public {... */\n    tag_25:\n        /* \"contracts/2_TokenSwap/TokenSwap.sol\":2000:2020  Swap memory tempSwap */\n      0x00\n        /* \"contracts/2_TokenSwap/TokenSwap.sol\":2023:2031  swapInfo */\n      0x03\n        /* \"contracts/2_TokenSwap/TokenSwap.sol\":2023:2035  swapInfo[id] */\n      0x00\n        /* \"contracts/2_TokenSwap/TokenSwap.sol\":2032:2034  id */\n      dup4\n        /* \"contracts/2_TokenSwap/TokenSwap.sol\":2023:2035  swapInfo[id] */\n      dup2\n      mstore\n      0x20\n      add\n      swap1\n      dup2\n      mstore\n      0x20\n      add\n      0x00\n      keccak256\n        /* \"contracts/2_TokenSwap/TokenSwap.sol\":2000:2035  Swap memory tempSwap = swapInfo[id] */\n      mload(0x40)\n      dup1\n      0xe0\n      add\n      0x40\n      mstore\n      swap1\n      dup2\n      0x00\n      dup3\n      add\n      sload\n      dup2\n      mstore\n      0x20\n      add\n      0x01\n      dup3\n      add\n      0x00\n      swap1\n      sload\n      swap1\n      0x0100\n      exp\n      swap1\n      div\n      0xff\n      and\n      0x01\n      dup2\n      gt\n      iszero\n      tag_82\n      jumpi\n      tag_83\n      tag_44\n      jump\t// in\n    tag_83:\n    tag_82:\n      0x01\n      dup2\n      gt\n      iszero\n      tag_84\n      jumpi\n      tag_85\n      tag_44\n      jump\t// in\n    tag_85:\n    tag_84:\n      dup2\n      mstore\n      0x20\n      add\n      0x01\n      dup3\n      add\n      0x01\n      swap1\n      sload\n      swap1\n      0x0100\n      exp\n      swap1\n      div\n      0xffffffffffffffffffffffffffffffffffffffff\n      and\n      0xffffffffffffffffffffffffffffffffffffffff\n      and\n      0xffffffffffffffffffffffffffffffffffffffff\n      and\n      dup2\n      mstore\n      0x20\n      add\n      0x02\n      dup3\n      add\n      0x00\n      swap1\n      sload\n      swap1\n      0x0100\n      exp\n      swap1\n      div\n      0xffffffffffffffffffffffffffffffffffffffff\n      and\n      0xffffffffffffffffffffffffffffffffffffffff\n      and\n      0xffffffffffffffffffffffffffffffffffffffff\n      and\n      dup2\n      mstore\n      0x20\n      add\n      0x03\n      dup3\n      add\n      sload\n      dup2\n      mstore\n      0x20\n      add\n      0x04\n      dup3\n      add\n      sload\n      dup2\n      mstore\n      0x20\n      add\n      0x05\n      dup3\n      add\n      0x00\n      swap1\n      sload\n      swap1\n      0x0100\n      exp\n      swap1\n      div\n      0xff\n      and\n      iszero\n      iszero\n      iszero\n      iszero\n      dup2\n      mstore\n      pop\n      pop\n      swap1\n      pop\n        /* \"contracts/2_TokenSwap/TokenSwap.sol\":2073:2083  msg.sender */\n      caller\n        /* \"contracts/2_TokenSwap/TokenSwap.sol\":2053:2083  tempSwap.creator != msg.sender */\n      0xffffffffffffffffffffffffffffffffffffffff\n      and\n        /* \"contracts/2_TokenSwap/TokenSwap.sol\":2053:2061  tempSwap */\n      dup2\n        /* \"contracts/2_TokenSwap/TokenSwap.sol\":2053:2069  tempSwap.creator */\n      0x40\n      add\n      mload\n        /* \"contracts/2_TokenSwap/TokenSwap.sol\":2053:2083  tempSwap.creator != msg.sender */\n      0xffffffffffffffffffffffffffffffffffffffff\n      and\n      sub\n        /* \"contracts/2_TokenSwap/TokenSwap.sol\":2045:2110  require(tempSwap.creator != msg.sender, \"caller is swap creator\") */\n      tag_86\n      jumpi\n      mload(0x40)\n      0x08c379a000000000000000000000000000000000000000000000000000000000\n      dup2\n      mstore\n      0x04\n      add\n      tag_87\n      swap1\n      tag_88\n      jump\t// in\n    tag_87:\n      mload(0x40)\n      dup1\n      swap2\n      sub\n      swap1\n      revert\n    tag_86:\n        /* \"contracts/2_TokenSwap/TokenSwap.sol\":2156:2157  0 */\n      0x00\n        /* \"contracts/2_TokenSwap/TokenSwap.sol\":2128:2158  tempSwap.creator != address(0) */\n      0xffffffffffffffffffffffffffffffffffffffff\n      and\n        /* \"contracts/2_TokenSwap/TokenSwap.sol\":2128:2136  tempSwap */\n      dup2\n        /* \"contracts/2_TokenSwap/TokenSwap.sol\":2128:2144  tempSwap.creator */\n      0x40\n      add\n      mload\n        /* \"contracts/2_TokenSwap/TokenSwap.sol\":2128:2158  tempSwap.creator != address(0) */\n      0xffffffffffffffffffffffffffffffffffffffff\n      and\n      sub\n        /* \"contracts/2_TokenSwap/TokenSwap.sol\":2120:2183  require(tempSwap.creator != address(0), \"creator zero address\") */\n      tag_89\n      jumpi\n      mload(0x40)\n      0x08c379a000000000000000000000000000000000000000000000000000000000\n      dup2\n      mstore\n      0x04\n      add\n      tag_90\n      swap1\n      tag_91\n      jump\t// in\n    tag_90:\n      mload(0x40)\n      dup1\n      swap2\n      sub\n      swap1\n      revert\n    tag_89:\n        /* \"contracts/2_TokenSwap/TokenSwap.sol\":2194:2210  IERC20 tokenFrom */\n      0x00\n        /* \"contracts/2_TokenSwap/TokenSwap.sol\":2220:2234  IERC20 tokenTo */\n      dup1\n        /* \"contracts/2_TokenSwap/TokenSwap.sol\":2269:2283  SwapType.AforB */\n      0x00\n        /* \"contracts/2_TokenSwap/TokenSwap.sol\":2248:2283  tempSwap.swapType == SwapType.AforB */\n      0x01\n      dup2\n      gt\n      iszero\n      tag_92\n      jumpi\n      tag_93\n      tag_44\n      jump\t// in\n    tag_93:\n    tag_92:\n        /* \"contracts/2_TokenSwap/TokenSwap.sol\":2248:2256  tempSwap */\n      dup4\n        /* \"contracts/2_TokenSwap/TokenSwap.sol\":2248:2265  tempSwap.swapType */\n      0x20\n      add\n      mload\n        /* \"contracts/2_TokenSwap/TokenSwap.sol\":2248:2283  tempSwap.swapType == SwapType.AforB */\n      0x01\n      dup2\n      gt\n      iszero\n      tag_94\n      jumpi\n      tag_95\n      tag_44\n      jump\t// in\n    tag_95:\n    tag_94:\n      sub\n        /* \"contracts/2_TokenSwap/TokenSwap.sol\":2244:2802  if (tempSwap.swapType == SwapType.AforB) {... */\n      tag_96\n      jumpi\n        /* \"contracts/2_TokenSwap/TokenSwap.sol\":2371:2379  tempSwap */\n      dup3\n        /* \"contracts/2_TokenSwap/TokenSwap.sol\":2371:2388  tempSwap.amountTo */\n      0xa0\n      add\n      mload\n        /* \"contracts/2_TokenSwap/TokenSwap.sol\":2324:2330  tokenB */\n      0x01\n      0x00\n      swap1\n      sload\n      swap1\n      0x0100\n      exp\n      swap1\n      div\n      0xffffffffffffffffffffffffffffffffffffffff\n      and\n        /* \"contracts/2_TokenSwap/TokenSwap.sol\":2324:2340  tokenB.allowance */\n      0xffffffffffffffffffffffffffffffffffffffff\n      and\n      0xdd62ed3e\n        /* \"contracts/2_TokenSwap/TokenSwap.sol\":2341:2351  msg.sender */\n      caller\n        /* \"contracts/2_TokenSwap/TokenSwap.sol\":2361:2365  this */\n      address\n        /* \"contracts/2_TokenSwap/TokenSwap.sol\":2324:2367  tokenB.allowance(msg.sender, address(this)) */\n      mload(0x40)\n      dup4\n      0xffffffff\n      and\n      0xe0\n      shl\n      dup2\n      mstore\n      0x04\n      add\n      tag_97\n      swap3\n      swap2\n      swap1\n      tag_49\n      jump\t// in\n    tag_97:\n      0x20\n      mload(0x40)\n      dup1\n      dup4\n      sub\n      dup2\n      dup7\n      gas\n      staticcall\n      iszero\n      dup1\n      iszero\n      tag_99\n      jumpi\n      returndatasize\n      0x00\n      dup1\n      returndatacopy\n      revert(0x00, returndatasize)\n    tag_99:\n      pop\n      pop\n      pop\n      pop\n      mload(0x40)\n      returndatasize\n      not(0x1f)\n      0x1f\n      dup3\n      add\n      and\n      dup3\n      add\n      dup1\n      0x40\n      mstore\n      pop\n      dup2\n      add\n      swap1\n      tag_100\n      swap2\n      swap1\n      tag_53\n      jump\t// in\n    tag_100:\n        /* \"contracts/2_TokenSwap/TokenSwap.sol\":2324:2388  tokenB.allowance(msg.sender, address(this)) >= tempSwap.amountTo */\n      lt\n      iszero\n        /* \"contracts/2_TokenSwap/TokenSwap.sol\":2299:2447  require(... */\n      tag_101\n      jumpi\n      mload(0x40)\n      0x08c379a000000000000000000000000000000000000000000000000000000000\n      dup2\n      mstore\n      0x04\n      add\n      tag_102\n      swap1\n      tag_69\n      jump\t// in\n    tag_102:\n      mload(0x40)\n      dup1\n      swap2\n      sub\n      swap1\n      revert\n    tag_101:\n        /* \"contracts/2_TokenSwap/TokenSwap.sol\":2473:2479  tokenA */\n      0x00\n      dup1\n      sload\n      swap1\n      0x0100\n      exp\n      swap1\n      div\n      0xffffffffffffffffffffffffffffffffffffffff\n      and\n        /* \"contracts/2_TokenSwap/TokenSwap.sol\":2461:2479  tokenFrom = tokenA */\n      swap2\n      pop\n        /* \"contracts/2_TokenSwap/TokenSwap.sol\":2503:2509  tokenB */\n      0x01\n      0x00\n      swap1\n      sload\n      swap1\n      0x0100\n      exp\n      swap1\n      div\n      0xffffffffffffffffffffffffffffffffffffffff\n      and\n        /* \"contracts/2_TokenSwap/TokenSwap.sol\":2493:2509  tokenTo = tokenB */\n      swap1\n      pop\n        /* \"contracts/2_TokenSwap/TokenSwap.sol\":2244:2802  if (tempSwap.swapType == SwapType.AforB) {... */\n      jump(tag_103)\n    tag_96:\n        /* \"contracts/2_TokenSwap/TokenSwap.sol\":2551:2565  SwapType.BforA */\n      0x01\n        /* \"contracts/2_TokenSwap/TokenSwap.sol\":2530:2565  tempSwap.swapType == SwapType.BforA */\n      dup1\n      dup2\n      gt\n      iszero\n      tag_104\n      jumpi\n      tag_105\n      tag_44\n      jump\t// in\n    tag_105:\n    tag_104:\n        /* \"contracts/2_TokenSwap/TokenSwap.sol\":2530:2538  tempSwap */\n      dup4\n        /* \"contracts/2_TokenSwap/TokenSwap.sol\":2530:2547  tempSwap.swapType */\n      0x20\n      add\n      mload\n        /* \"contracts/2_TokenSwap/TokenSwap.sol\":2530:2565  tempSwap.swapType == SwapType.BforA */\n      0x01\n      dup2\n      gt\n      iszero\n      tag_106\n      jumpi\n      tag_107\n      tag_44\n      jump\t// in\n    tag_107:\n    tag_106:\n      sub\n        /* \"contracts/2_TokenSwap/TokenSwap.sol\":2526:2802  if (tempSwap.swapType == SwapType.BforA) {... */\n      tag_108\n      jumpi\n        /* \"contracts/2_TokenSwap/TokenSwap.sol\":2653:2661  tempSwap */\n      dup3\n        /* \"contracts/2_TokenSwap/TokenSwap.sol\":2653:2670  tempSwap.amountTo */\n      0xa0\n      add\n      mload\n        /* \"contracts/2_TokenSwap/TokenSwap.sol\":2606:2612  tokenA */\n      0x00\n      dup1\n      sload\n      swap1\n      0x0100\n      exp\n      swap1\n      div\n      0xffffffffffffffffffffffffffffffffffffffff\n      and\n        /* \"contracts/2_TokenSwap/TokenSwap.sol\":2606:2622  tokenA.allowance */\n      0xffffffffffffffffffffffffffffffffffffffff\n      and\n      0xdd62ed3e\n        /* \"contracts/2_TokenSwap/TokenSwap.sol\":2623:2633  msg.sender */\n      caller\n        /* \"contracts/2_TokenSwap/TokenSwap.sol\":2643:2647  this */\n      address\n        /* \"contracts/2_TokenSwap/TokenSwap.sol\":2606:2649  tokenA.allowance(msg.sender, address(this)) */\n      mload(0x40)\n      dup4\n      0xffffffff\n      and\n      0xe0\n      shl\n      dup2\n      mstore\n      0x04\n      add\n      tag_109\n      swap3\n      swap2\n      swap1\n      tag_49\n      jump\t// in\n    tag_109:\n      0x20\n      mload(0x40)\n      dup1\n      dup4\n      sub\n      dup2\n      dup7\n      gas\n      staticcall\n      iszero\n      dup1\n      iszero\n      tag_111\n      jumpi\n      returndatasize\n      0x00\n      dup1\n      returndatacopy\n      revert(0x00, returndatasize)\n    tag_111:\n      pop\n      pop\n      pop\n      pop\n      mload(0x40)\n      returndatasize\n      not(0x1f)\n      0x1f\n      dup3\n      add\n      and\n      dup3\n      add\n      dup1\n      0x40\n      mstore\n      pop\n      dup2\n      add\n      swap1\n      tag_112\n      swap2\n      swap1\n      tag_53\n      jump\t// in\n    tag_112:\n        /* \"contracts/2_TokenSwap/TokenSwap.sol\":2606:2670  tokenA.allowance(msg.sender, address(this)) >= tempSwap.amountTo */\n      lt\n      iszero\n        /* \"contracts/2_TokenSwap/TokenSwap.sol\":2581:2729  require(... */\n      tag_113\n      jumpi\n      mload(0x40)\n      0x08c379a000000000000000000000000000000000000000000000000000000000\n      dup2\n      mstore\n      0x04\n      add\n      tag_114\n      swap1\n      tag_56\n      jump\t// in\n    tag_114:\n      mload(0x40)\n      dup1\n      swap2\n      sub\n      swap1\n      revert\n    tag_113:\n        /* \"contracts/2_TokenSwap/TokenSwap.sol\":2755:2761  tokenB */\n      0x01\n      0x00\n      swap1\n      sload\n      swap1\n      0x0100\n      exp\n      swap1\n      div\n      0xffffffffffffffffffffffffffffffffffffffff\n      and\n        /* \"contracts/2_TokenSwap/TokenSwap.sol\":2743:2761  tokenFrom = tokenB */\n      swap2\n      pop\n        /* \"contracts/2_TokenSwap/TokenSwap.sol\":2785:2791  tokenA */\n      0x00\n      dup1\n      sload\n      swap1\n      0x0100\n      exp\n      swap1\n      div\n      0xffffffffffffffffffffffffffffffffffffffff\n      and\n        /* \"contracts/2_TokenSwap/TokenSwap.sol\":2775:2791  tokenTo = tokenA */\n      swap1\n      pop\n        /* \"contracts/2_TokenSwap/TokenSwap.sol\":2526:2802  if (tempSwap.swapType == SwapType.BforA) {... */\n    tag_108:\n        /* \"contracts/2_TokenSwap/TokenSwap.sol\":2244:2802  if (tempSwap.swapType == SwapType.AforB) {... */\n    tag_103:\n        /* \"contracts/2_TokenSwap/TokenSwap.sol\":2812:2821  tokenFrom */\n      dup2\n        /* \"contracts/2_TokenSwap/TokenSwap.sol\":2812:2830  tokenFrom.transfer */\n      0xffffffffffffffffffffffffffffffffffffffff\n      and\n      0xa9059cbb\n        /* \"contracts/2_TokenSwap/TokenSwap.sol\":2831:2841  msg.sender */\n      caller\n        /* \"contracts/2_TokenSwap/TokenSwap.sol\":2843:2851  tempSwap */\n      dup6\n        /* \"contracts/2_TokenSwap/TokenSwap.sol\":2843:2862  tempSwap.amountFrom */\n      0x80\n      add\n      mload\n        /* \"contracts/2_TokenSwap/TokenSwap.sol\":2812:2863  tokenFrom.transfer(msg.sender, tempSwap.amountFrom) */\n      mload(0x40)\n      dup4\n      0xffffffff\n      and\n      0xe0\n      shl\n      dup2\n      mstore\n      0x04\n      add\n      tag_115\n      swap3\n      swap2\n      swap1\n      tag_116\n      jump\t// in\n    tag_115:\n      0x20\n      mload(0x40)\n      dup1\n      dup4\n      sub\n      dup2\n      0x00\n      dup8\n      gas\n      call\n      iszero\n      dup1\n      iszero\n      tag_118\n      jumpi\n      returndatasize\n      0x00\n      dup1\n      returndatacopy\n      revert(0x00, returndatasize)\n    tag_118:\n      pop\n      pop\n      pop\n      pop\n      mload(0x40)\n      returndatasize\n      not(0x1f)\n      0x1f\n      dup3\n      add\n      and\n      dup3\n      add\n      dup1\n      0x40\n      mstore\n      pop\n      dup2\n      add\n      swap1\n      tag_119\n      swap2\n      swap1\n      tag_120\n      jump\t// in\n    tag_119:\n      pop\n        /* \"contracts/2_TokenSwap/TokenSwap.sol\":2873:2948  _safeTransferFrom(tokenTo, msg.sender, tempSwap.creator, tempSwap.amountTo) */\n      tag_121\n        /* \"contracts/2_TokenSwap/TokenSwap.sol\":2891:2898  tokenTo */\n      dup2\n        /* \"contracts/2_TokenSwap/TokenSwap.sol\":2900:2910  msg.sender */\n      caller\n        /* \"contracts/2_TokenSwap/TokenSwap.sol\":2912:2920  tempSwap */\n      dup6\n        /* \"contracts/2_TokenSwap/TokenSwap.sol\":2912:2928  tempSwap.creator */\n      0x40\n      add\n      mload\n        /* \"contracts/2_TokenSwap/TokenSwap.sol\":2930:2938  tempSwap */\n      dup7\n        /* \"contracts/2_TokenSwap/TokenSwap.sol\":2930:2947  tempSwap.amountTo */\n      0xa0\n      add\n      mload\n        /* \"contracts/2_TokenSwap/TokenSwap.sol\":2873:2890  _safeTransferFrom */\n      tag_80\n        /* \"contracts/2_TokenSwap/TokenSwap.sol\":2873:2948  _safeTransferFrom(tokenTo, msg.sender, tempSwap.creator, tempSwap.amountTo) */\n      jump\t// in\n    tag_121:\n        /* \"contracts/2_TokenSwap/TokenSwap.sol\":1990:2964  {... */\n      pop\n      pop\n      pop\n        /* \"contracts/2_TokenSwap/TokenSwap.sol\":1957:2964  function swap(bytes32 id) public {... */\n      pop\n      jump\t// out\n        /* \"contracts/2_TokenSwap/TokenSwap.sol\":646:686  mapping(bytes32 => Swap) public swapInfo */\n    tag_28:\n      mstore(0x20, 0x03)\n      dup1\n      0x00\n      mstore\n      keccak256(0x00, 0x40)\n      0x00\n      swap2\n      pop\n      swap1\n      pop\n      dup1\n      0x00\n      add\n      sload\n      swap1\n      dup1\n      0x01\n      add\n      0x00\n      swap1\n      sload\n      swap1\n      0x0100\n      exp\n      swap1\n      div\n      0xff\n      and\n      swap1\n      dup1\n      0x01\n      add\n      0x01\n      swap1\n      sload\n      swap1\n      0x0100\n      exp\n      swap1\n      div\n      0xffffffffffffffffffffffffffffffffffffffff\n      and\n      swap1\n      dup1\n      0x02\n      add\n      0x00\n      swap1\n      sload\n      swap1\n      0x0100\n      exp\n      swap1\n      div\n      0xffffffffffffffffffffffffffffffffffffffff\n      and\n      swap1\n      dup1\n      0x03\n      add\n      sload\n      swap1\n      dup1\n      0x04\n      add\n      sload\n      swap1\n      dup1\n      0x05\n      add\n      0x00\n      swap1\n      sload\n      swap1\n      0x0100\n      exp\n      swap1\n      div\n      0xff\n      and\n      swap1\n      pop\n      dup8\n      jump\t// out\n        /* \"contracts/2_TokenSwap/TokenSwap.sol\":692:722  uint256 public globalSwapCount */\n    tag_32:\n      sload(0x04)\n      dup2\n      jump\t// out\n        /* \"contracts/2_TokenSwap/TokenSwap.sol\":591:640  mapping(address => bytes32[]) public ownerToSwaps */\n    tag_38:\n      mstore(0x20, 0x02)\n      dup2\n      0x00\n      mstore\n      keccak256(0x00, 0x40)\n      dup2\n      dup2\n      sload\n      dup2\n      lt\n      tag_122\n      jumpi\n      0x00\n      dup1\n      revert\n    tag_122:\n      swap1\n      0x00\n      mstore\n      keccak256(0x00, 0x20)\n      add\n      0x00\n      swap2\n      pop\n      swap2\n      pop\n      pop\n      sload\n      dup2\n      jump\t// out\n        /* \"contracts/2_TokenSwap/TokenSwap.sol\":1787:1951  function _hash(uint256 _index, address _creator) internal view returns (bytes32) {... */\n    tag_71:\n        /* \"contracts/2_TokenSwap/TokenSwap.sol\":1859:1866  bytes32 */\n      0x00\n        /* \"contracts/2_TokenSwap/TokenSwap.sol\":1912:1924  block.number */\n      number\n        /* \"contracts/2_TokenSwap/TokenSwap.sol\":1926:1932  _index */\n      dup4\n        /* \"contracts/2_TokenSwap/TokenSwap.sol\":1934:1942  _creator */\n      dup4\n        /* \"contracts/2_TokenSwap/TokenSwap.sol\":1895:1943  abi.encodePacked(block.number, _index, _creator) */\n      add(0x20, mload(0x40))\n      tag_125\n      swap4\n      swap3\n      swap2\n      swap1\n      tag_126\n      jump\t// in\n    tag_125:\n      mload(0x40)\n      0x20\n      dup2\n      dup4\n      sub\n      sub\n      dup2\n      mstore\n      swap1\n      0x40\n      mstore\n        /* \"contracts/2_TokenSwap/TokenSwap.sol\":1885:1944  keccak256(abi.encodePacked(block.number, _index, _creator)) */\n      dup1\n      mload\n      swap1\n      0x20\n      add\n      keccak256\n        /* \"contracts/2_TokenSwap/TokenSwap.sol\":1878:1944  return keccak256(abi.encodePacked(block.number, _index, _creator)) */\n      swap1\n      pop\n        /* \"contracts/2_TokenSwap/TokenSwap.sol\":1787:1951  function _hash(uint256 _index, address _creator) internal view returns (bytes32) {... */\n      swap3\n      swap2\n      pop\n      pop\n      jump\t// out\n        /* \"contracts/2_TokenSwap/TokenSwap.sol\":2970:3227  function _safeTransferFrom(... */\n    tag_80:\n        /* \"contracts/2_TokenSwap/TokenSwap.sol\":3115:3124  bool sent */\n      0x00\n        /* \"contracts/2_TokenSwap/TokenSwap.sol\":3127:3132  token */\n      dup5\n        /* \"contracts/2_TokenSwap/TokenSwap.sol\":3127:3145  token.transferFrom */\n      0xffffffffffffffffffffffffffffffffffffffff\n      and\n      0x23b872dd\n        /* \"contracts/2_TokenSwap/TokenSwap.sol\":3146:3152  sender */\n      dup6\n        /* \"contracts/2_TokenSwap/TokenSwap.sol\":3154:3163  recipient */\n      dup6\n        /* \"contracts/2_TokenSwap/TokenSwap.sol\":3165:3171  amount */\n      dup6\n        /* \"contracts/2_TokenSwap/TokenSwap.sol\":3127:3172  token.transferFrom(sender, recipient, amount) */\n      mload(0x40)\n      dup5\n      0xffffffff\n      and\n      0xe0\n      shl\n      dup2\n      mstore\n      0x04\n      add\n      tag_128\n      swap4\n      swap3\n      swap2\n      swap1\n      tag_129\n      jump\t// in\n    tag_128:\n      0x20\n      mload(0x40)\n      dup1\n      dup4\n      sub\n      dup2\n      0x00\n      dup8\n      gas\n      call\n      iszero\n      dup1\n      iszero\n      tag_131\n      jumpi\n      returndatasize\n      0x00\n      dup1\n      returndatacopy\n      revert(0x00, returndatasize)\n    tag_131:\n      pop\n      pop\n      pop\n      pop\n      mload(0x40)\n      returndatasize\n      not(0x1f)\n      0x1f\n      dup3\n      add\n      and\n      dup3\n      add\n      dup1\n      0x40\n      mstore\n      pop\n      dup2\n      add\n      swap1\n      tag_132\n      swap2\n      swap1\n      tag_120\n      jump\t// in\n    tag_132:\n        /* \"contracts/2_TokenSwap/TokenSwap.sol\":3115:3172  bool sent = token.transferFrom(sender, recipient, amount) */\n      swap1\n      pop\n        /* \"contracts/2_TokenSwap/TokenSwap.sol\":3190:3194  sent */\n      dup1\n        /* \"contracts/2_TokenSwap/TokenSwap.sol\":3182:3220  require(sent, \"Token transfer failed\") */\n      tag_133\n      jumpi\n      mload(0x40)\n      0x08c379a000000000000000000000000000000000000000000000000000000000\n      dup2\n      mstore\n      0x04\n      add\n      tag_134\n      swap1\n      tag_135\n      jump\t// in\n    tag_134:\n      mload(0x40)\n      dup1\n      swap2\n      sub\n      swap1\n      revert\n    tag_133:\n        /* \"contracts/2_TokenSwap/TokenSwap.sol\":3105:3227  {... */\n      pop\n        /* \"contracts/2_TokenSwap/TokenSwap.sol\":2970:3227  function _safeTransferFrom(... */\n      pop\n      pop\n      pop\n      pop\n      jump\t// out\n        /* \"#utility.yul\":7:133   */\n    tag_136:\n        /* \"#utility.yul\":44:51   */\n      0x00\n        /* \"#utility.yul\":84:126   */\n      0xffffffffffffffffffffffffffffffffffffffff\n        /* \"#utility.yul\":77:82   */\n      dup3\n        /* \"#utility.yul\":73:127   */\n      and\n        /* \"#utility.yul\":62:127   */\n      swap1\n      pop\n        /* \"#utility.yul\":7:133   */\n      swap2\n      swap1\n      pop\n      jump\t// out\n        /* \"#utility.yul\":139:199   */\n    tag_137:\n        /* \"#utility.yul\":167:170   */\n      0x00\n        /* \"#utility.yul\":188:193   */\n      dup2\n        /* \"#utility.yul\":181:193   */\n      swap1\n      pop\n        /* \"#utility.yul\":139:199   */\n      swap2\n      swap1\n      pop\n      jump\t// out\n        /* \"#utility.yul\":205:347   */\n    tag_138:\n        /* \"#utility.yul\":255:264   */\n      0x00\n        /* \"#utility.yul\":288:341   */\n      tag_190\n        /* \"#utility.yul\":306:340   */\n      tag_191\n        /* \"#utility.yul\":315:339   */\n      tag_192\n        /* \"#utility.yul\":333:338   */\n      dup5\n        /* \"#utility.yul\":315:339   */\n      tag_136\n      jump\t// in\n    tag_192:\n        /* \"#utility.yul\":306:340   */\n      tag_137\n      jump\t// in\n    tag_191:\n        /* \"#utility.yul\":288:341   */\n      tag_136\n      jump\t// in\n    tag_190:\n        /* \"#utility.yul\":275:341   */\n      swap1\n      pop\n        /* \"#utility.yul\":205:347   */\n      swap2\n      swap1\n      pop\n      jump\t// out\n        /* \"#utility.yul\":353:479   */\n    tag_139:\n        /* \"#utility.yul\":403:412   */\n      0x00\n        /* \"#utility.yul\":436:473   */\n      tag_194\n        /* \"#utility.yul\":467:472   */\n      dup3\n        /* \"#utility.yul\":436:473   */\n      tag_138\n      jump\t// in\n    tag_194:\n        /* \"#utility.yul\":423:473   */\n      swap1\n      pop\n        /* \"#utility.yul\":353:479   */\n      swap2\n      swap1\n      pop\n      jump\t// out\n        /* \"#utility.yul\":485:626   */\n    tag_140:\n        /* \"#utility.yul\":550:559   */\n      0x00\n        /* \"#utility.yul\":583:620   */\n      tag_196\n        /* \"#utility.yul\":614:619   */\n      dup3\n        /* \"#utility.yul\":583:620   */\n      tag_139\n      jump\t// in\n    tag_196:\n        /* \"#utility.yul\":570:620   */\n      swap1\n      pop\n        /* \"#utility.yul\":485:626   */\n      swap2\n      swap1\n      pop\n      jump\t// out\n        /* \"#utility.yul\":632:793   */\n    tag_141:\n        /* \"#utility.yul\":734:786   */\n      tag_198\n        /* \"#utility.yul\":780:785   */\n      dup2\n        /* \"#utility.yul\":734:786   */\n      tag_140\n      jump\t// in\n    tag_198:\n        /* \"#utility.yul\":729:732   */\n      dup3\n        /* \"#utility.yul\":722:787   */\n      mstore\n        /* \"#utility.yul\":632:793   */\n      pop\n      pop\n      jump\t// out\n        /* \"#utility.yul\":799:1051   */\n    tag_14:\n        /* \"#utility.yul\":907:911   */\n      0x00\n        /* \"#utility.yul\":945:947   */\n      0x20\n        /* \"#utility.yul\":934:943   */\n      dup3\n        /* \"#utility.yul\":930:948   */\n      add\n        /* \"#utility.yul\":922:948   */\n      swap1\n      pop\n        /* \"#utility.yul\":958:1044   */\n      tag_200\n        /* \"#utility.yul\":1041:1042   */\n      0x00\n        /* \"#utility.yul\":1030:1039   */\n      dup4\n        /* \"#utility.yul\":1026:1043   */\n      add\n        /* \"#utility.yul\":1017:1023   */\n      dup5\n        /* \"#utility.yul\":958:1044   */\n      tag_141\n      jump\t// in\n    tag_200:\n        /* \"#utility.yul\":799:1051   */\n      swap3\n      swap2\n      pop\n      pop\n      jump\t// out\n        /* \"#utility.yul\":1138:1255   */\n    tag_143:\n        /* \"#utility.yul\":1247:1248   */\n      0x00\n        /* \"#utility.yul\":1244:1245   */\n      dup1\n        /* \"#utility.yul\":1237:1249   */\n      revert\n        /* \"#utility.yul\":1384:1494   */\n    tag_145:\n        /* \"#utility.yul\":1468:1469   */\n      0x02\n        /* \"#utility.yul\":1461:1466   */\n      dup2\n        /* \"#utility.yul\":1458:1470   */\n      lt\n        /* \"#utility.yul\":1448:1488   */\n      tag_205\n      jumpi\n        /* \"#utility.yul\":1484:1485   */\n      0x00\n        /* \"#utility.yul\":1481:1482   */\n      dup1\n        /* \"#utility.yul\":1474:1486   */\n      revert\n        /* \"#utility.yul\":1448:1488   */\n    tag_205:\n        /* \"#utility.yul\":1384:1494   */\n      pop\n      jump\t// out\n        /* \"#utility.yul\":1500:1661   */\n    tag_146:\n        /* \"#utility.yul\":1557:1562   */\n      0x00\n        /* \"#utility.yul\":1595:1601   */\n      dup2\n        /* \"#utility.yul\":1582:1602   */\n      calldataload\n        /* \"#utility.yul\":1573:1602   */\n      swap1\n      pop\n        /* \"#utility.yul\":1611:1655   */\n      tag_207\n        /* \"#utility.yul\":1649:1654   */\n      dup2\n        /* \"#utility.yul\":1611:1655   */\n      tag_145\n      jump\t// in\n    tag_207:\n        /* \"#utility.yul\":1500:1661   */\n      swap3\n      swap2\n      pop\n      pop\n      jump\t// out\n        /* \"#utility.yul\":1667:1744   */\n    tag_147:\n        /* \"#utility.yul\":1704:1711   */\n      0x00\n        /* \"#utility.yul\":1733:1738   */\n      dup2\n        /* \"#utility.yul\":1722:1738   */\n      swap1\n      pop\n        /* \"#utility.yul\":1667:1744   */\n      swap2\n      swap1\n      pop\n      jump\t// out\n        /* \"#utility.yul\":1750:1872   */\n    tag_148:\n        /* \"#utility.yul\":1823:1847   */\n      tag_210\n        /* \"#utility.yul\":1841:1846   */\n      dup2\n        /* \"#utility.yul\":1823:1847   */\n      tag_147\n      jump\t// in\n    tag_210:\n        /* \"#utility.yul\":1816:1821   */\n      dup2\n        /* \"#utility.yul\":1813:1848   */\n      eq\n        /* \"#utility.yul\":1803:1866   */\n      tag_211\n      jumpi\n        /* \"#utility.yul\":1862:1863   */\n      0x00\n        /* \"#utility.yul\":1859:1860   */\n      dup1\n        /* \"#utility.yul\":1852:1864   */\n      revert\n        /* \"#utility.yul\":1803:1866   */\n    tag_211:\n        /* \"#utility.yul\":1750:1872   */\n      pop\n      jump\t// out\n        /* \"#utility.yul\":1878:2017   */\n    tag_149:\n        /* \"#utility.yul\":1924:1929   */\n      0x00\n        /* \"#utility.yul\":1962:1968   */\n      dup2\n        /* \"#utility.yul\":1949:1969   */\n      calldataload\n        /* \"#utility.yul\":1940:1969   */\n      swap1\n      pop\n        /* \"#utility.yul\":1978:2011   */\n      tag_213\n        /* \"#utility.yul\":2005:2010   */\n      dup2\n        /* \"#utility.yul\":1978:2011   */\n      tag_148\n      jump\t// in\n    tag_213:\n        /* \"#utility.yul\":1878:2017   */\n      swap3\n      swap2\n      pop\n      pop\n      jump\t// out\n        /* \"#utility.yul\":2023:2664   */\n    tag_17:\n        /* \"#utility.yul\":2111:2117   */\n      0x00\n        /* \"#utility.yul\":2119:2125   */\n      dup1\n        /* \"#utility.yul\":2127:2133   */\n      0x00\n        /* \"#utility.yul\":2176:2178   */\n      0x60\n        /* \"#utility.yul\":2164:2173   */\n      dup5\n        /* \"#utility.yul\":2155:2162   */\n      dup7\n        /* \"#utility.yul\":2151:2174   */\n      sub\n        /* \"#utility.yul\":2147:2179   */\n      slt\n        /* \"#utility.yul\":2144:2263   */\n      iszero\n      tag_215\n      jumpi\n        /* \"#utility.yul\":2182:2261   */\n      tag_216\n      tag_143\n      jump\t// in\n    tag_216:\n        /* \"#utility.yul\":2144:2263   */\n    tag_215:\n        /* \"#utility.yul\":2302:2303   */\n      0x00\n        /* \"#utility.yul\":2327:2391   */\n      tag_217\n        /* \"#utility.yul\":2383:2390   */\n      dup7\n        /* \"#utility.yul\":2374:2380   */\n      dup3\n        /* \"#utility.yul\":2363:2372   */\n      dup8\n        /* \"#utility.yul\":2359:2381   */\n      add\n        /* \"#utility.yul\":2327:2391   */\n      tag_146\n      jump\t// in\n    tag_217:\n        /* \"#utility.yul\":2317:2391   */\n      swap4\n      pop\n        /* \"#utility.yul\":2273:2401   */\n      pop\n        /* \"#utility.yul\":2440:2442   */\n      0x20\n        /* \"#utility.yul\":2466:2519   */\n      tag_218\n        /* \"#utility.yul\":2511:2518   */\n      dup7\n        /* \"#utility.yul\":2502:2508   */\n      dup3\n        /* \"#utility.yul\":2491:2500   */\n      dup8\n        /* \"#utility.yul\":2487:2509   */\n      add\n        /* \"#utility.yul\":2466:2519   */\n      tag_149\n      jump\t// in\n    tag_218:\n        /* \"#utility.yul\":2456:2519   */\n      swap3\n      pop\n        /* \"#utility.yul\":2411:2529   */\n      pop\n        /* \"#utility.yul\":2568:2570   */\n      0x40\n        /* \"#utility.yul\":2594:2647   */\n      tag_219\n        /* \"#utility.yul\":2639:2646   */\n      dup7\n        /* \"#utility.yul\":2630:2636   */\n      dup3\n        /* \"#utility.yul\":2619:2628   */\n      dup8\n        /* \"#utility.yul\":2615:2637   */\n      add\n        /* \"#utility.yul\":2594:2647   */\n      tag_149\n      jump\t// in\n    tag_219:\n        /* \"#utility.yul\":2584:2647   */\n      swap2\n      pop\n        /* \"#utility.yul\":2539:2657   */\n      pop\n        /* \"#utility.yul\":2023:2664   */\n      swap3\n      pop\n      swap3\n      pop\n      swap3\n      jump\t// out\n        /* \"#utility.yul\":2670:2747   */\n    tag_150:\n        /* \"#utility.yul\":2707:2714   */\n      0x00\n        /* \"#utility.yul\":2736:2741   */\n      dup2\n        /* \"#utility.yul\":2725:2741   */\n      swap1\n      pop\n        /* \"#utility.yul\":2670:2747   */\n      swap2\n      swap1\n      pop\n      jump\t// out\n        /* \"#utility.yul\":2753:2875   */\n    tag_151:\n        /* \"#utility.yul\":2826:2850   */\n      tag_222\n        /* \"#utility.yul\":2844:2849   */\n      dup2\n        /* \"#utility.yul\":2826:2850   */\n      tag_150\n      jump\t// in\n    tag_222:\n        /* \"#utility.yul\":2819:2824   */\n      dup2\n        /* \"#utility.yul\":2816:2851   */\n      eq\n        /* \"#utility.yul\":2806:2869   */\n      tag_223\n      jumpi\n        /* \"#utility.yul\":2865:2866   */\n      0x00\n        /* \"#utility.yul\":2862:2863   */\n      dup1\n        /* \"#utility.yul\":2855:2867   */\n      revert\n        /* \"#utility.yul\":2806:2869   */\n    tag_223:\n        /* \"#utility.yul\":2753:2875   */\n      pop\n      jump\t// out\n        /* \"#utility.yul\":2881:3020   */\n    tag_152:\n        /* \"#utility.yul\":2927:2932   */\n      0x00\n        /* \"#utility.yul\":2965:2971   */\n      dup2\n        /* \"#utility.yul\":2952:2972   */\n      calldataload\n        /* \"#utility.yul\":2943:2972   */\n      swap1\n      pop\n        /* \"#utility.yul\":2981:3014   */\n      tag_225\n        /* \"#utility.yul\":3008:3013   */\n      dup2\n        /* \"#utility.yul\":2981:3014   */\n      tag_151\n      jump\t// in\n    tag_225:\n        /* \"#utility.yul\":2881:3020   */\n      swap3\n      swap2\n      pop\n      pop\n      jump\t// out\n        /* \"#utility.yul\":3026:3355   */\n    tag_24:\n        /* \"#utility.yul\":3085:3091   */\n      0x00\n        /* \"#utility.yul\":3134:3136   */\n      0x20\n        /* \"#utility.yul\":3122:3131   */\n      dup3\n        /* \"#utility.yul\":3113:3120   */\n      dup5\n        /* \"#utility.yul\":3109:3132   */\n      sub\n        /* \"#utility.yul\":3105:3137   */\n      slt\n        /* \"#utility.yul\":3102:3221   */\n      iszero\n      tag_227\n      jumpi\n        /* \"#utility.yul\":3140:3219   */\n      tag_228\n      tag_143\n      jump\t// in\n    tag_228:\n        /* \"#utility.yul\":3102:3221   */\n    tag_227:\n        /* \"#utility.yul\":3260:3261   */\n      0x00\n        /* \"#utility.yul\":3285:3338   */\n      tag_229\n        /* \"#utility.yul\":3330:3337   */\n      dup5\n        /* \"#utility.yul\":3321:3327   */\n      dup3\n        /* \"#utility.yul\":3310:3319   */\n      dup6\n        /* \"#utility.yul\":3306:3328   */\n      add\n        /* \"#utility.yul\":3285:3338   */\n      tag_152\n      jump\t// in\n    tag_229:\n        /* \"#utility.yul\":3275:3338   */\n      swap2\n      pop\n        /* \"#utility.yul\":3231:3348   */\n      pop\n        /* \"#utility.yul\":3026:3355   */\n      swap3\n      swap2\n      pop\n      pop\n      jump\t// out\n        /* \"#utility.yul\":3361:3479   */\n    tag_153:\n        /* \"#utility.yul\":3448:3472   */\n      tag_231\n        /* \"#utility.yul\":3466:3471   */\n      dup2\n        /* \"#utility.yul\":3448:3472   */\n      tag_150\n      jump\t// in\n    tag_231:\n        /* \"#utility.yul\":3443:3446   */\n      dup3\n        /* \"#utility.yul\":3436:3473   */\n      mstore\n        /* \"#utility.yul\":3361:3479   */\n      pop\n      pop\n      jump\t// out\n        /* \"#utility.yul\":3485:3665   */\n    tag_44:\n        /* \"#utility.yul\":3533:3610   */\n      0x4e487b7100000000000000000000000000000000000000000000000000000000\n        /* \"#utility.yul\":3530:3531   */\n      0x00\n        /* \"#utility.yul\":3523:3611   */\n      mstore\n        /* \"#utility.yul\":3630:3634   */\n      0x21\n        /* \"#utility.yul\":3627:3628   */\n      0x04\n        /* \"#utility.yul\":3620:3635   */\n      mstore\n        /* \"#utility.yul\":3654:3658   */\n      0x24\n        /* \"#utility.yul\":3651:3652   */\n      0x00\n        /* \"#utility.yul\":3644:3659   */\n      revert\n        /* \"#utility.yul\":3671:3787   */\n    tag_154:\n        /* \"#utility.yul\":3755:3756   */\n      0x02\n        /* \"#utility.yul\":3748:3753   */\n      dup2\n        /* \"#utility.yul\":3745:3757   */\n      lt\n        /* \"#utility.yul\":3735:3781   */\n      tag_234\n      jumpi\n        /* \"#utility.yul\":3761:3779   */\n      tag_235\n      tag_44\n      jump\t// in\n    tag_235:\n        /* \"#utility.yul\":3735:3781   */\n    tag_234:\n        /* \"#utility.yul\":3671:3787   */\n      pop\n      jump\t// out\n        /* \"#utility.yul\":3793:3926   */\n    tag_155:\n        /* \"#utility.yul\":3841:3848   */\n      0x00\n        /* \"#utility.yul\":3870:3875   */\n      dup2\n        /* \"#utility.yul\":3859:3875   */\n      swap1\n      pop\n        /* \"#utility.yul\":3876:3920   */\n      tag_237\n        /* \"#utility.yul\":3914:3919   */\n      dup3\n        /* \"#utility.yul\":3876:3920   */\n      tag_154\n      jump\t// in\n    tag_237:\n        /* \"#utility.yul\":3793:3926   */\n      swap2\n      swap1\n      pop\n      jump\t// out\n        /* \"#utility.yul\":3932:4065   */\n    tag_156:\n        /* \"#utility.yul\":3991:4000   */\n      0x00\n        /* \"#utility.yul\":4024:4059   */\n      tag_239\n        /* \"#utility.yul\":4053:4058   */\n      dup3\n        /* \"#utility.yul\":4024:4059   */\n      tag_155\n      jump\t// in\n    tag_239:\n        /* \"#utility.yul\":4011:4059   */\n      swap1\n      pop\n        /* \"#utility.yul\":3932:4065   */\n      swap2\n      swap1\n      pop\n      jump\t// out\n        /* \"#utility.yul\":4071:4220   */\n    tag_157:\n        /* \"#utility.yul\":4167:4213   */\n      tag_241\n        /* \"#utility.yul\":4207:4212   */\n      dup2\n        /* \"#utility.yul\":4167:4213   */\n      tag_156\n      jump\t// in\n    tag_241:\n        /* \"#utility.yul\":4162:4165   */\n      dup3\n        /* \"#utility.yul\":4155:4214   */\n      mstore\n        /* \"#utility.yul\":4071:4220   */\n      pop\n      pop\n      jump\t// out\n        /* \"#utility.yul\":4226:4322   */\n    tag_158:\n        /* \"#utility.yul\":4263:4270   */\n      0x00\n        /* \"#utility.yul\":4292:4316   */\n      tag_243\n        /* \"#utility.yul\":4310:4315   */\n      dup3\n        /* \"#utility.yul\":4292:4316   */\n      tag_136\n      jump\t// in\n    tag_243:\n        /* \"#utility.yul\":4281:4316   */\n      swap1\n      pop\n        /* \"#utility.yul\":4226:4322   */\n      swap2\n      swap1\n      pop\n      jump\t// out\n        /* \"#utility.yul\":4328:4446   */\n    tag_159:\n        /* \"#utility.yul\":4415:4439   */\n      tag_245\n        /* \"#utility.yul\":4433:4438   */\n      dup2\n        /* \"#utility.yul\":4415:4439   */\n      tag_158\n      jump\t// in\n    tag_245:\n        /* \"#utility.yul\":4410:4413   */\n      dup3\n        /* \"#utility.yul\":4403:4440   */\n      mstore\n        /* \"#utility.yul\":4328:4446   */\n      pop\n      pop\n      jump\t// out\n        /* \"#utility.yul\":4452:4570   */\n    tag_160:\n        /* \"#utility.yul\":4539:4563   */\n      tag_247\n        /* \"#utility.yul\":4557:4562   */\n      dup2\n        /* \"#utility.yul\":4539:4563   */\n      tag_147\n      jump\t// in\n    tag_247:\n        /* \"#utility.yul\":4534:4537   */\n      dup3\n        /* \"#utility.yul\":4527:4564   */\n      mstore\n        /* \"#utility.yul\":4452:4570   */\n      pop\n      pop\n      jump\t// out\n        /* \"#utility.yul\":4576:4666   */\n    tag_161:\n        /* \"#utility.yul\":4610:4617   */\n      0x00\n        /* \"#utility.yul\":4653:4658   */\n      dup2\n        /* \"#utility.yul\":4646:4659   */\n      iszero\n        /* \"#utility.yul\":4639:4660   */\n      iszero\n        /* \"#utility.yul\":4628:4660   */\n      swap1\n      pop\n        /* \"#utility.yul\":4576:4666   */\n      swap2\n      swap1\n      pop\n      jump\t// out\n        /* \"#utility.yul\":4672:4781   */\n    tag_162:\n        /* \"#utility.yul\":4753:4774   */\n      tag_250\n        /* \"#utility.yul\":4768:4773   */\n      dup2\n        /* \"#utility.yul\":4753:4774   */\n      tag_161\n      jump\t// in\n    tag_250:\n        /* \"#utility.yul\":4748:4751   */\n      dup3\n        /* \"#utility.yul\":4741:4775   */\n      mstore\n        /* \"#utility.yul\":4672:4781   */\n      pop\n      pop\n      jump\t// out\n        /* \"#utility.yul\":4787:5679   */\n    tag_30:\n        /* \"#utility.yul\":5051:5055   */\n      0x00\n        /* \"#utility.yul\":5089:5092   */\n      0xe0\n        /* \"#utility.yul\":5078:5087   */\n      dup3\n        /* \"#utility.yul\":5074:5093   */\n      add\n        /* \"#utility.yul\":5066:5093   */\n      swap1\n      pop\n        /* \"#utility.yul\":5103:5174   */\n      tag_252\n        /* \"#utility.yul\":5171:5172   */\n      0x00\n        /* \"#utility.yul\":5160:5169   */\n      dup4\n        /* \"#utility.yul\":5156:5173   */\n      add\n        /* \"#utility.yul\":5147:5153   */\n      dup11\n        /* \"#utility.yul\":5103:5174   */\n      tag_153\n      jump\t// in\n    tag_252:\n        /* \"#utility.yul\":5184:5265   */\n      tag_253\n        /* \"#utility.yul\":5261:5263   */\n      0x20\n        /* \"#utility.yul\":5250:5259   */\n      dup4\n        /* \"#utility.yul\":5246:5264   */\n      add\n        /* \"#utility.yul\":5237:5243   */\n      dup10\n        /* \"#utility.yul\":5184:5265   */\n      tag_157\n      jump\t// in\n    tag_253:\n        /* \"#utility.yul\":5275:5347   */\n      tag_254\n        /* \"#utility.yul\":5343:5345   */\n      0x40\n        /* \"#utility.yul\":5332:5341   */\n      dup4\n        /* \"#utility.yul\":5328:5346   */\n      add\n        /* \"#utility.yul\":5319:5325   */\n      dup9\n        /* \"#utility.yul\":5275:5347   */\n      tag_159\n      jump\t// in\n    tag_254:\n        /* \"#utility.yul\":5357:5429   */\n      tag_255\n        /* \"#utility.yul\":5425:5427   */\n      0x60\n        /* \"#utility.yul\":5414:5423   */\n      dup4\n        /* \"#utility.yul\":5410:5428   */\n      add\n        /* \"#utility.yul\":5401:5407   */\n      dup8\n        /* \"#utility.yul\":5357:5429   */\n      tag_159\n      jump\t// in\n    tag_255:\n        /* \"#utility.yul\":5439:5512   */\n      tag_256\n        /* \"#utility.yul\":5507:5510   */\n      0x80\n        /* \"#utility.yul\":5496:5505   */\n      dup4\n        /* \"#utility.yul\":5492:5511   */\n      add\n        /* \"#utility.yul\":5483:5489   */\n      dup7\n        /* \"#utility.yul\":5439:5512   */\n      tag_160\n      jump\t// in\n    tag_256:\n        /* \"#utility.yul\":5522:5595   */\n      tag_257\n        /* \"#utility.yul\":5590:5593   */\n      0xa0\n        /* \"#utility.yul\":5579:5588   */\n      dup4\n        /* \"#utility.yul\":5575:5594   */\n      add\n        /* \"#utility.yul\":5566:5572   */\n      dup6\n        /* \"#utility.yul\":5522:5595   */\n      tag_160\n      jump\t// in\n    tag_257:\n        /* \"#utility.yul\":5605:5672   */\n      tag_258\n        /* \"#utility.yul\":5667:5670   */\n      0xc0\n        /* \"#utility.yul\":5656:5665   */\n      dup4\n        /* \"#utility.yul\":5652:5671   */\n      add\n        /* \"#utility.yul\":5643:5649   */\n      dup5\n        /* \"#utility.yul\":5605:5672   */\n      tag_162\n      jump\t// in\n    tag_258:\n        /* \"#utility.yul\":4787:5679   */\n      swap9\n      swap8\n      pop\n      pop\n      pop\n      pop\n      pop\n      pop\n      pop\n      pop\n      jump\t// out\n        /* \"#utility.yul\":5685:5907   */\n    tag_34:\n        /* \"#utility.yul\":5778:5782   */\n      0x00\n        /* \"#utility.yul\":5816:5818   */\n      0x20\n        /* \"#utility.yul\":5805:5814   */\n      dup3\n        /* \"#utility.yul\":5801:5819   */\n      add\n        /* \"#utility.yul\":5793:5819   */\n      swap1\n      pop\n        /* \"#utility.yul\":5829:5900   */\n      tag_260\n        /* \"#utility.yul\":5897:5898   */\n      0x00\n        /* \"#utility.yul\":5886:5895   */\n      dup4\n        /* \"#utility.yul\":5882:5899   */\n      add\n        /* \"#utility.yul\":5873:5879   */\n      dup5\n        /* \"#utility.yul\":5829:5900   */\n      tag_160\n      jump\t// in\n    tag_260:\n        /* \"#utility.yul\":5685:5907   */\n      swap3\n      swap2\n      pop\n      pop\n      jump\t// out\n        /* \"#utility.yul\":5913:6035   */\n    tag_163:\n        /* \"#utility.yul\":5986:6010   */\n      tag_262\n        /* \"#utility.yul\":6004:6009   */\n      dup2\n        /* \"#utility.yul\":5986:6010   */\n      tag_158\n      jump\t// in\n    tag_262:\n        /* \"#utility.yul\":5979:5984   */\n      dup2\n        /* \"#utility.yul\":5976:6011   */\n      eq\n        /* \"#utility.yul\":5966:6029   */\n      tag_263\n      jumpi\n        /* \"#utility.yul\":6025:6026   */\n      0x00\n        /* \"#utility.yul\":6022:6023   */\n      dup1\n        /* \"#utility.yul\":6015:6027   */\n      revert\n        /* \"#utility.yul\":5966:6029   */\n    tag_263:\n        /* \"#utility.yul\":5913:6035   */\n      pop\n      jump\t// out\n        /* \"#utility.yul\":6041:6180   */\n    tag_164:\n        /* \"#utility.yul\":6087:6092   */\n      0x00\n        /* \"#utility.yul\":6125:6131   */\n      dup2\n        /* \"#utility.yul\":6112:6132   */\n      calldataload\n        /* \"#utility.yul\":6103:6132   */\n      swap1\n      pop\n        /* \"#utility.yul\":6141:6174   */\n      tag_265\n        /* \"#utility.yul\":6168:6173   */\n      dup2\n        /* \"#utility.yul\":6141:6174   */\n      tag_163\n      jump\t// in\n    tag_265:\n        /* \"#utility.yul\":6041:6180   */\n      swap3\n      swap2\n      pop\n      pop\n      jump\t// out\n        /* \"#utility.yul\":6186:6660   */\n    tag_37:\n        /* \"#utility.yul\":6254:6260   */\n      0x00\n        /* \"#utility.yul\":6262:6268   */\n      dup1\n        /* \"#utility.yul\":6311:6313   */\n      0x40\n        /* \"#utility.yul\":6299:6308   */\n      dup4\n        /* \"#utility.yul\":6290:6297   */\n      dup6\n        /* \"#utility.yul\":6286:6309   */\n      sub\n        /* \"#utility.yul\":6282:6314   */\n      slt\n        /* \"#utility.yul\":6279:6398   */\n      iszero\n      tag_267\n      jumpi\n        /* \"#utility.yul\":6317:6396   */\n      tag_268\n      tag_143\n      jump\t// in\n    tag_268:\n        /* \"#utility.yul\":6279:6398   */\n    tag_267:\n        /* \"#utility.yul\":6437:6438   */\n      0x00\n        /* \"#utility.yul\":6462:6515   */\n      tag_269\n        /* \"#utility.yul\":6507:6514   */\n      dup6\n        /* \"#utility.yul\":6498:6504   */\n      dup3\n        /* \"#utility.yul\":6487:6496   */\n      dup7\n        /* \"#utility.yul\":6483:6505   */\n      add\n        /* \"#utility.yul\":6462:6515   */\n      tag_164\n      jump\t// in\n    tag_269:\n        /* \"#utility.yul\":6452:6515   */\n      swap3\n      pop\n        /* \"#utility.yul\":6408:6525   */\n      pop\n        /* \"#utility.yul\":6564:6566   */\n      0x20\n        /* \"#utility.yul\":6590:6643   */\n      tag_270\n        /* \"#utility.yul\":6635:6642   */\n      dup6\n        /* \"#utility.yul\":6626:6632   */\n      dup3\n        /* \"#utility.yul\":6615:6624   */\n      dup7\n        /* \"#utility.yul\":6611:6633   */\n      add\n        /* \"#utility.yul\":6590:6643   */\n      tag_149\n      jump\t// in\n    tag_270:\n        /* \"#utility.yul\":6580:6643   */\n      swap2\n      pop\n        /* \"#utility.yul\":6535:6653   */\n      pop\n        /* \"#utility.yul\":6186:6660   */\n      swap3\n      pop\n      swap3\n      swap1\n      pop\n      jump\t// out\n        /* \"#utility.yul\":6666:6888   */\n    tag_40:\n        /* \"#utility.yul\":6759:6763   */\n      0x00\n        /* \"#utility.yul\":6797:6799   */\n      0x20\n        /* \"#utility.yul\":6786:6795   */\n      dup3\n        /* \"#utility.yul\":6782:6800   */\n      add\n        /* \"#utility.yul\":6774:6800   */\n      swap1\n      pop\n        /* \"#utility.yul\":6810:6881   */\n      tag_272\n        /* \"#utility.yul\":6878:6879   */\n      0x00\n        /* \"#utility.yul\":6867:6876   */\n      dup4\n        /* \"#utility.yul\":6863:6880   */\n      add\n        /* \"#utility.yul\":6854:6860   */\n      dup5\n        /* \"#utility.yul\":6810:6881   */\n      tag_153\n      jump\t// in\n    tag_272:\n        /* \"#utility.yul\":6666:6888   */\n      swap3\n      swap2\n      pop\n      pop\n      jump\t// out\n        /* \"#utility.yul\":6894:7226   */\n    tag_49:\n        /* \"#utility.yul\":7015:7019   */\n      0x00\n        /* \"#utility.yul\":7053:7055   */\n      0x40\n        /* \"#utility.yul\":7042:7051   */\n      dup3\n        /* \"#utility.yul\":7038:7056   */\n      add\n        /* \"#utility.yul\":7030:7056   */\n      swap1\n      pop\n        /* \"#utility.yul\":7066:7137   */\n      tag_274\n        /* \"#utility.yul\":7134:7135   */\n      0x00\n        /* \"#utility.yul\":7123:7132   */\n      dup4\n        /* \"#utility.yul\":7119:7136   */\n      add\n        /* \"#utility.yul\":7110:7116   */\n      dup6\n        /* \"#utility.yul\":7066:7137   */\n      tag_159\n      jump\t// in\n    tag_274:\n        /* \"#utility.yul\":7147:7219   */\n      tag_275\n        /* \"#utility.yul\":7215:7217   */\n      0x20\n        /* \"#utility.yul\":7204:7213   */\n      dup4\n        /* \"#utility.yul\":7200:7218   */\n      add\n        /* \"#utility.yul\":7191:7197   */\n      dup5\n        /* \"#utility.yul\":7147:7219   */\n      tag_159\n      jump\t// in\n    tag_275:\n        /* \"#utility.yul\":6894:7226   */\n      swap4\n      swap3\n      pop\n      pop\n      pop\n      jump\t// out\n        /* \"#utility.yul\":7232:7375   */\n    tag_165:\n        /* \"#utility.yul\":7289:7294   */\n      0x00\n        /* \"#utility.yul\":7320:7326   */\n      dup2\n        /* \"#utility.yul\":7314:7327   */\n      mload\n        /* \"#utility.yul\":7305:7327   */\n      swap1\n      pop\n        /* \"#utility.yul\":7336:7369   */\n      tag_277\n        /* \"#utility.yul\":7363:7368   */\n      dup2\n        /* \"#utility.yul\":7336:7369   */\n      tag_148\n      jump\t// in\n    tag_277:\n        /* \"#utility.yul\":7232:7375   */\n      swap3\n      swap2\n      pop\n      pop\n      jump\t// out\n        /* \"#utility.yul\":7381:7732   */\n    tag_53:\n        /* \"#utility.yul\":7451:7457   */\n      0x00\n        /* \"#utility.yul\":7500:7502   */\n      0x20\n        /* \"#utility.yul\":7488:7497   */\n      dup3\n        /* \"#utility.yul\":7479:7486   */\n      dup5\n        /* \"#utility.yul\":7475:7498   */\n      sub\n        /* \"#utility.yul\":7471:7503   */\n      slt\n        /* \"#utility.yul\":7468:7587   */\n      iszero\n      tag_279\n      jumpi\n        /* \"#utility.yul\":7506:7585   */\n      tag_280\n      tag_143\n      jump\t// in\n    tag_280:\n        /* \"#utility.yul\":7468:7587   */\n    tag_279:\n        /* \"#utility.yul\":7626:7627   */\n      0x00\n        /* \"#utility.yul\":7651:7715   */\n      tag_281\n        /* \"#utility.yul\":7707:7714   */\n      dup5\n        /* \"#utility.yul\":7698:7704   */\n      dup3\n        /* \"#utility.yul\":7687:7696   */\n      dup6\n        /* \"#utility.yul\":7683:7705   */\n      add\n        /* \"#utility.yul\":7651:7715   */\n      tag_165\n      jump\t// in\n    tag_281:\n        /* \"#utility.yul\":7641:7715   */\n      swap2\n      pop\n        /* \"#utility.yul\":7597:7725   */\n      pop\n        /* \"#utility.yul\":7381:7732   */\n      swap3\n      swap2\n      pop\n      pop\n      jump\t// out\n        /* \"#utility.yul\":7738:7907   */\n    tag_166:\n        /* \"#utility.yul\":7822:7833   */\n      0x00\n        /* \"#utility.yul\":7856:7862   */\n      dup3\n        /* \"#utility.yul\":7851:7854   */\n      dup3\n        /* \"#utility.yul\":7844:7863   */\n      mstore\n        /* \"#utility.yul\":7896:7900   */\n      0x20\n        /* \"#utility.yul\":7891:7894   */\n      dup3\n        /* \"#utility.yul\":7887:7901   */\n      add\n        /* \"#utility.yul\":7872:7901   */\n      swap1\n      pop\n        /* \"#utility.yul\":7738:7907   */\n      swap3\n      swap2\n      pop\n      pop\n      jump\t// out\n        /* \"#utility.yul\":7913:8088   */\n    tag_167:\n        /* \"#utility.yul\":8053:8080   */\n      0x546f6b656e204120616c6c6f77616e636520746f6f206c6f7700000000000000\n        /* \"#utility.yul\":8049:8050   */\n      0x00\n        /* \"#utility.yul\":8041:8047   */\n      dup3\n        /* \"#utility.yul\":8037:8051   */\n      add\n        /* \"#utility.yul\":8030:8081   */\n      mstore\n        /* \"#utility.yul\":7913:8088   */\n      pop\n      jump\t// out\n        /* \"#utility.yul\":8094:8460   */\n    tag_168:\n        /* \"#utility.yul\":8236:8239   */\n      0x00\n        /* \"#utility.yul\":8257:8324   */\n      tag_285\n        /* \"#utility.yul\":8321:8323   */\n      0x19\n        /* \"#utility.yul\":8316:8319   */\n      dup4\n        /* \"#utility.yul\":8257:8324   */\n      tag_166\n      jump\t// in\n    tag_285:\n        /* \"#utility.yul\":8250:8324   */\n      swap2\n      pop\n        /* \"#utility.yul\":8333:8426   */\n      tag_286\n        /* \"#utility.yul\":8422:8425   */\n      dup3\n        /* \"#utility.yul\":8333:8426   */\n      tag_167\n      jump\t// in\n    tag_286:\n        /* \"#utility.yul\":8451:8453   */\n      0x20\n        /* \"#utility.yul\":8446:8449   */\n      dup3\n        /* \"#utility.yul\":8442:8454   */\n      add\n        /* \"#utility.yul\":8435:8454   */\n      swap1\n      pop\n        /* \"#utility.yul\":8094:8460   */\n      swap2\n      swap1\n      pop\n      jump\t// out\n        /* \"#utility.yul\":8466:8885   */\n    tag_56:\n        /* \"#utility.yul\":8632:8636   */\n      0x00\n        /* \"#utility.yul\":8670:8672   */\n      0x20\n        /* \"#utility.yul\":8659:8668   */\n      dup3\n        /* \"#utility.yul\":8655:8673   */\n      add\n        /* \"#utility.yul\":8647:8673   */\n      swap1\n      pop\n        /* \"#utility.yul\":8719:8728   */\n      dup2\n        /* \"#utility.yul\":8713:8717   */\n      dup2\n        /* \"#utility.yul\":8709:8729   */\n      sub\n        /* \"#utility.yul\":8705:8706   */\n      0x00\n        /* \"#utility.yul\":8694:8703   */\n      dup4\n        /* \"#utility.yul\":8690:8707   */\n      add\n        /* \"#utility.yul\":8683:8730   */\n      mstore\n        /* \"#utility.yul\":8747:8878   */\n      tag_288\n        /* \"#utility.yul\":8873:8877   */\n      dup2\n        /* \"#utility.yul\":8747:8878   */\n      tag_168\n      jump\t// in\n    tag_288:\n        /* \"#utility.yul\":8739:8878   */\n      swap1\n      pop\n        /* \"#utility.yul\":8466:8885   */\n      swap2\n      swap1\n      pop\n      jump\t// out\n        /* \"#utility.yul\":8891:9066   */\n    tag_169:\n        /* \"#utility.yul\":9031:9058   */\n      0x546f6b656e204220616c6c6f77616e636520746f6f206c6f7700000000000000\n        /* \"#utility.yul\":9027:9028   */\n      0x00\n        /* \"#utility.yul\":9019:9025   */\n      dup3\n        /* \"#utility.yul\":9015:9029   */\n      add\n        /* \"#utility.yul\":9008:9059   */\n      mstore\n        /* \"#utility.yul\":8891:9066   */\n      pop\n      jump\t// out\n        /* \"#utility.yul\":9072:9438   */\n    tag_170:\n        /* \"#utility.yul\":9214:9217   */\n      0x00\n        /* \"#utility.yul\":9235:9302   */\n      tag_291\n        /* \"#utility.yul\":9299:9301   */\n      0x19\n        /* \"#utility.yul\":9294:9297   */\n      dup4\n        /* \"#utility.yul\":9235:9302   */\n      tag_166\n      jump\t// in\n    tag_291:\n        /* \"#utility.yul\":9228:9302   */\n      swap2\n      pop\n        /* \"#utility.yul\":9311:9404   */\n      tag_292\n        /* \"#utility.yul\":9400:9403   */\n      dup3\n        /* \"#utility.yul\":9311:9404   */\n      tag_169\n      jump\t// in\n    tag_292:\n        /* \"#utility.yul\":9429:9431   */\n      0x20\n        /* \"#utility.yul\":9424:9427   */\n      dup3\n        /* \"#utility.yul\":9420:9432   */\n      add\n        /* \"#utility.yul\":9413:9432   */\n      swap1\n      pop\n        /* \"#utility.yul\":9072:9438   */\n      swap2\n      swap1\n      pop\n      jump\t// out\n        /* \"#utility.yul\":9444:9863   */\n    tag_69:\n        /* \"#utility.yul\":9610:9614   */\n      0x00\n        /* \"#utility.yul\":9648:9650   */\n      0x20\n        /* \"#utility.yul\":9637:9646   */\n      dup3\n        /* \"#utility.yul\":9633:9651   */\n      add\n        /* \"#utility.yul\":9625:9651   */\n      swap1\n      pop\n        /* \"#utility.yul\":9697:9706   */\n      dup2\n        /* \"#utility.yul\":9691:9695   */\n      dup2\n        /* \"#utility.yul\":9687:9707   */\n      sub\n        /* \"#utility.yul\":9683:9684   */\n      0x00\n        /* \"#utility.yul\":9672:9681   */\n      dup4\n        /* \"#utility.yul\":9668:9685   */\n      add\n        /* \"#utility.yul\":9661:9708   */\n      mstore\n        /* \"#utility.yul\":9725:9856   */\n      tag_294\n        /* \"#utility.yul\":9851:9855   */\n      dup2\n        /* \"#utility.yul\":9725:9856   */\n      tag_170\n      jump\t// in\n    tag_294:\n        /* \"#utility.yul\":9717:9856   */\n      swap1\n      pop\n        /* \"#utility.yul\":9444:9863   */\n      swap2\n      swap1\n      pop\n      jump\t// out\n        /* \"#utility.yul\":9869:10049   */\n    tag_171:\n        /* \"#utility.yul\":9917:9994   */\n      0x4e487b7100000000000000000000000000000000000000000000000000000000\n        /* \"#utility.yul\":9914:9915   */\n      0x00\n        /* \"#utility.yul\":9907:9995   */\n      mstore\n        /* \"#utility.yul\":10014:10018   */\n      0x11\n        /* \"#utility.yul\":10011:10012   */\n      0x04\n        /* \"#utility.yul\":10004:10019   */\n      mstore\n        /* \"#utility.yul\":10038:10042   */\n      0x24\n        /* \"#utility.yul\":10035:10036   */\n      0x00\n        /* \"#utility.yul\":10028:10043   */\n      revert\n        /* \"#utility.yul\":10055:10288   */\n    tag_78:\n        /* \"#utility.yul\":10094:10097   */\n      0x00\n        /* \"#utility.yul\":10117:10141   */\n      tag_297\n        /* \"#utility.yul\":10135:10140   */\n      dup3\n        /* \"#utility.yul\":10117:10141   */\n      tag_147\n      jump\t// in\n    tag_297:\n        /* \"#utility.yul\":10108:10141   */\n      swap2\n      pop\n        /* \"#utility.yul\":10163:10229   */\n      0xffffffffffffffffffffffffffffffffffffffffffffffffffffffffffffffff\n        /* \"#utility.yul\":10156:10161   */\n      dup3\n        /* \"#utility.yul\":10153:10230   */\n      sub\n        /* \"#utility.yul\":10150:10253   */\n      tag_298\n      jumpi\n        /* \"#utility.yul\":10233:10251   */\n      tag_299\n      tag_171\n      jump\t// in\n    tag_299:\n        /* \"#utility.yul\":10150:10253   */\n    tag_298:\n        /* \"#utility.yul\":10280:10281   */\n      0x01\n        /* \"#utility.yul\":10273:10278   */\n      dup3\n        /* \"#utility.yul\":10269:10282   */\n      add\n        /* \"#utility.yul\":10262:10282   */\n      swap1\n      pop\n        /* \"#utility.yul\":10055:10288   */\n      swap2\n      swap1\n      pop\n      jump\t// out\n        /* \"#utility.yul\":10294:10466   */\n    tag_172:\n        /* \"#utility.yul\":10434:10458   */\n      0x63616c6c657220697320737761702063726561746f7200000000000000000000\n        /* \"#utility.yul\":10430:10431   */\n      0x00\n        /* \"#utility.yul\":10422:10428   */\n      dup3\n        /* \"#utility.yul\":10418:10432   */\n      add\n        /* \"#utility.yul\":10411:10459   */\n      mstore\n        /* \"#utility.yul\":10294:10466   */\n      pop\n      jump\t// out\n        /* \"#utility.yul\":10472:10838   */\n    tag_173:\n        /* \"#utility.yul\":10614:10617   */\n      0x00\n        /* \"#utility.yul\":10635:10702   */\n      tag_302\n        /* \"#utility.yul\":10699:10701   */\n      0x16\n        /* \"#utility.yul\":10694:10697   */\n      dup4\n        /* \"#utility.yul\":10635:10702   */\n      tag_166\n      jump\t// in\n    tag_302:\n        /* \"#utility.yul\":10628:10702   */\n      swap2\n      pop\n        /* \"#utility.yul\":10711:10804   */\n      tag_303\n        /* \"#utility.yul\":10800:10803   */\n      dup3\n        /* \"#utility.yul\":10711:10804   */\n      tag_172\n      jump\t// in\n    tag_303:\n        /* \"#utility.yul\":10829:10831   */\n      0x20\n        /* \"#utility.yul\":10824:10827   */\n      dup3\n        /* \"#utility.yul\":10820:10832   */\n      add\n        /* \"#utility.yul\":10813:10832   */\n      swap1\n      pop\n        /* \"#utility.yul\":10472:10838   */\n      swap2\n      swap1\n      pop\n      jump\t// out\n        /* \"#utility.yul\":10844:11263   */\n    tag_88:\n        /* \"#utility.yul\":11010:11014   */\n      0x00\n        /* \"#utility.yul\":11048:11050   */\n      0x20\n        /* \"#utility.yul\":11037:11046   */\n      dup3\n        /* \"#utility.yul\":11033:11051   */\n      add\n        /* \"#utility.yul\":11025:11051   */\n      swap1\n      pop\n        /* \"#utility.yul\":11097:11106   */\n      dup2\n        /* \"#utility.yul\":11091:11095   */\n      dup2\n        /* \"#utility.yul\":11087:11107   */\n      sub\n        /* \"#utility.yul\":11083:11084   */\n      0x00\n        /* \"#utility.yul\":11072:11081   */\n      dup4\n        /* \"#utility.yul\":11068:11085   */\n      add\n        /* \"#utility.yul\":11061:11108   */\n      mstore\n        /* \"#utility.yul\":11125:11256   */\n      tag_305\n        /* \"#utility.yul\":11251:11255   */\n      dup2\n        /* \"#utility.yul\":11125:11256   */\n      tag_173\n      jump\t// in\n    tag_305:\n        /* \"#utility.yul\":11117:11256   */\n      swap1\n      pop\n        /* \"#utility.yul\":10844:11263   */\n      swap2\n      swap1\n      pop\n      jump\t// out\n        /* \"#utility.yul\":11269:11439   */\n    tag_174:\n        /* \"#utility.yul\":11409:11431   */\n      0x63726561746f72207a65726f2061646472657373000000000000000000000000\n        /* \"#utility.yul\":11405:11406   */\n      0x00\n        /* \"#utility.yul\":11397:11403   */\n      dup3\n        /* \"#utility.yul\":11393:11407   */\n      add\n        /* \"#utility.yul\":11386:11432   */\n      mstore\n        /* \"#utility.yul\":11269:11439   */\n      pop\n      jump\t// out\n        /* \"#utility.yul\":11445:11811   */\n    tag_175:\n        /* \"#utility.yul\":11587:11590   */\n      0x00\n        /* \"#utility.yul\":11608:11675   */\n      tag_308\n        /* \"#utility.yul\":11672:11674   */\n      0x14\n        /* \"#utility.yul\":11667:11670   */\n      dup4\n        /* \"#utility.yul\":11608:11675   */\n      tag_166\n      jump\t// in\n    tag_308:\n        /* \"#utility.yul\":11601:11675   */\n      swap2\n      pop\n        /* \"#utility.yul\":11684:11777   */\n      tag_309\n        /* \"#utility.yul\":11773:11776   */\n      dup3\n        /* \"#utility.yul\":11684:11777   */\n      tag_174\n      jump\t// in\n    tag_309:\n        /* \"#utility.yul\":11802:11804   */\n      0x20\n        /* \"#utility.yul\":11797:11800   */\n      dup3\n        /* \"#utility.yul\":11793:11805   */\n      add\n        /* \"#utility.yul\":11786:11805   */\n      swap1\n      pop\n        /* \"#utility.yul\":11445:11811   */\n      swap2\n      swap1\n      pop\n      jump\t// out\n        /* \"#utility.yul\":11817:12236   */\n    tag_91:\n        /* \"#utility.yul\":11983:11987   */\n      0x00\n        /* \"#utility.yul\":12021:12023   */\n      0x20\n        /* \"#utility.yul\":12010:12019   */\n      dup3\n        /* \"#utility.yul\":12006:12024   */\n      add\n        /* \"#utility.yul\":11998:12024   */\n      swap1\n      pop\n        /* \"#utility.yul\":12070:12079   */\n      dup2\n        /* \"#utility.yul\":12064:12068   */\n      dup2\n        /* \"#utility.yul\":12060:12080   */\n      sub\n        /* \"#utility.yul\":12056:12057   */\n      0x00\n        /* \"#utility.yul\":12045:12054   */\n      dup4\n        /* \"#utility.yul\":12041:12058   */\n      add\n        /* \"#utility.yul\":12034:12081   */\n      mstore\n        /* \"#utility.yul\":12098:12229   */\n      tag_311\n        /* \"#utility.yul\":12224:12228   */\n      dup2\n        /* \"#utility.yul\":12098:12229   */\n      tag_175\n      jump\t// in\n    tag_311:\n        /* \"#utility.yul\":12090:12229   */\n      swap1\n      pop\n        /* \"#utility.yul\":11817:12236   */\n      swap2\n      swap1\n      pop\n      jump\t// out\n        /* \"#utility.yul\":12242:12574   */\n    tag_116:\n        /* \"#utility.yul\":12363:12367   */\n      0x00\n        /* \"#utility.yul\":12401:12403   */\n      0x40\n        /* \"#utility.yul\":12390:12399   */\n      dup3\n        /* \"#utility.yul\":12386:12404   */\n      add\n        /* \"#utility.yul\":12378:12404   */\n      swap1\n      pop\n        /* \"#utility.yul\":12414:12485   */\n      tag_313\n        /* \"#utility.yul\":12482:12483   */\n      0x00\n        /* \"#utility.yul\":12471:12480   */\n      dup4\n        /* \"#utility.yul\":12467:12484   */\n      add\n        /* \"#utility.yul\":12458:12464   */\n      dup6\n        /* \"#utility.yul\":12414:12485   */\n      tag_159\n      jump\t// in\n    tag_313:\n        /* \"#utility.yul\":12495:12567   */\n      tag_314\n        /* \"#utility.yul\":12563:12565   */\n      0x20\n        /* \"#utility.yul\":12552:12561   */\n      dup4\n        /* \"#utility.yul\":12548:12566   */\n      add\n        /* \"#utility.yul\":12539:12545   */\n      dup5\n        /* \"#utility.yul\":12495:12567   */\n      tag_160\n      jump\t// in\n    tag_314:\n        /* \"#utility.yul\":12242:12574   */\n      swap4\n      swap3\n      pop\n      pop\n      pop\n      jump\t// out\n        /* \"#utility.yul\":12580:12696   */\n    tag_176:\n        /* \"#utility.yul\":12650:12671   */\n      tag_316\n        /* \"#utility.yul\":12665:12670   */\n      dup2\n        /* \"#utility.yul\":12650:12671   */\n      tag_161\n      jump\t// in\n    tag_316:\n        /* \"#utility.yul\":12643:12648   */\n      dup2\n        /* \"#utility.yul\":12640:12672   */\n      eq\n        /* \"#utility.yul\":12630:12690   */\n      tag_317\n      jumpi\n        /* \"#utility.yul\":12686:12687   */\n      0x00\n        /* \"#utility.yul\":12683:12684   */\n      dup1\n        /* \"#utility.yul\":12676:12688   */\n      revert\n        /* \"#utility.yul\":12630:12690   */\n    tag_317:\n        /* \"#utility.yul\":12580:12696   */\n      pop\n      jump\t// out\n        /* \"#utility.yul\":12702:12839   */\n    tag_177:\n        /* \"#utility.yul\":12756:12761   */\n      0x00\n        /* \"#utility.yul\":12787:12793   */\n      dup2\n        /* \"#utility.yul\":12781:12794   */\n      mload\n        /* \"#utility.yul\":12772:12794   */\n      swap1\n      pop\n        /* \"#utility.yul\":12803:12833   */\n      tag_319\n        /* \"#utility.yul\":12827:12832   */\n      dup2\n        /* \"#utility.yul\":12803:12833   */\n      tag_176\n      jump\t// in\n    tag_319:\n        /* \"#utility.yul\":12702:12839   */\n      swap3\n      swap2\n      pop\n      pop\n      jump\t// out\n        /* \"#utility.yul\":12845:13190   */\n    tag_120:\n        /* \"#utility.yul\":12912:12918   */\n      0x00\n        /* \"#utility.yul\":12961:12963   */\n      0x20\n        /* \"#utility.yul\":12949:12958   */\n      dup3\n        /* \"#utility.yul\":12940:12947   */\n      dup5\n        /* \"#utility.yul\":12936:12959   */\n      sub\n        /* \"#utility.yul\":12932:12964   */\n      slt\n        /* \"#utility.yul\":12929:13048   */\n      iszero\n      tag_321\n      jumpi\n        /* \"#utility.yul\":12967:13046   */\n      tag_322\n      tag_143\n      jump\t// in\n    tag_322:\n        /* \"#utility.yul\":12929:13048   */\n    tag_321:\n        /* \"#utility.yul\":13087:13088   */\n      0x00\n        /* \"#utility.yul\":13112:13173   */\n      tag_323\n        /* \"#utility.yul\":13165:13172   */\n      dup5\n        /* \"#utility.yul\":13156:13162   */\n      dup3\n        /* \"#utility.yul\":13145:13154   */\n      dup6\n        /* \"#utility.yul\":13141:13163   */\n      add\n        /* \"#utility.yul\":13112:13173   */\n      tag_177\n      jump\t// in\n    tag_323:\n        /* \"#utility.yul\":13102:13173   */\n      swap2\n      pop\n        /* \"#utility.yul\":13058:13183   */\n      pop\n        /* \"#utility.yul\":12845:13190   */\n      swap3\n      swap2\n      pop\n      pop\n      jump\t// out\n        /* \"#utility.yul\":13196:13275   */\n    tag_178:\n        /* \"#utility.yul\":13235:13242   */\n      0x00\n        /* \"#utility.yul\":13264:13269   */\n      dup2\n        /* \"#utility.yul\":13253:13269   */\n      swap1\n      pop\n        /* \"#utility.yul\":13196:13275   */\n      swap2\n      swap1\n      pop\n      jump\t// out\n        /* \"#utility.yul\":13281:13438   */\n    tag_179:\n        /* \"#utility.yul\":13386:13431   */\n      tag_326\n        /* \"#utility.yul\":13406:13430   */\n      tag_327\n        /* \"#utility.yul\":13424:13429   */\n      dup3\n        /* \"#utility.yul\":13406:13430   */\n      tag_147\n      jump\t// in\n    tag_327:\n        /* \"#utility.yul\":13386:13431   */\n      tag_178\n      jump\t// in\n    tag_326:\n        /* \"#utility.yul\":13381:13384   */\n      dup3\n        /* \"#utility.yul\":13374:13432   */\n      mstore\n        /* \"#utility.yul\":13281:13438   */\n      pop\n      pop\n      jump\t// out\n        /* \"#utility.yul\":13444:13538   */\n    tag_180:\n        /* \"#utility.yul\":13477:13485   */\n      0x00\n        /* \"#utility.yul\":13525:13530   */\n      dup2\n        /* \"#utility.yul\":13521:13523   */\n      0x60\n        /* \"#utility.yul\":13517:13531   */\n      shl\n        /* \"#utility.yul\":13496:13531   */\n      swap1\n      pop\n        /* \"#utility.yul\":13444:13538   */\n      swap2\n      swap1\n      pop\n      jump\t// out\n        /* \"#utility.yul\":13544:13638   */\n    tag_181:\n        /* \"#utility.yul\":13583:13590   */\n      0x00\n        /* \"#utility.yul\":13612:13632   */\n      tag_330\n        /* \"#utility.yul\":13626:13631   */\n      dup3\n        /* \"#utility.yul\":13612:13632   */\n      tag_180\n      jump\t// in\n    tag_330:\n        /* \"#utility.yul\":13601:13632   */\n      swap1\n      pop\n        /* \"#utility.yul\":13544:13638   */\n      swap2\n      swap1\n      pop\n      jump\t// out\n        /* \"#utility.yul\":13644:13744   */\n    tag_182:\n        /* \"#utility.yul\":13683:13690   */\n      0x00\n        /* \"#utility.yul\":13712:13738   */\n      tag_332\n        /* \"#utility.yul\":13732:13737   */\n      dup3\n        /* \"#utility.yul\":13712:13738   */\n      tag_181\n      jump\t// in\n    tag_332:\n        /* \"#utility.yul\":13701:13738   */\n      swap1\n      pop\n        /* \"#utility.yul\":13644:13744   */\n      swap2\n      swap1\n      pop\n      jump\t// out\n        /* \"#utility.yul\":13750:13907   */\n    tag_183:\n        /* \"#utility.yul\":13855:13900   */\n      tag_334\n        /* \"#utility.yul\":13875:13899   */\n      tag_335\n        /* \"#utility.yul\":13893:13898   */\n      dup3\n        /* \"#utility.yul\":13875:13899   */\n      tag_158\n      jump\t// in\n    tag_335:\n        /* \"#utility.yul\":13855:13900   */\n      tag_182\n      jump\t// in\n    tag_334:\n        /* \"#utility.yul\":13850:13853   */\n      dup3\n        /* \"#utility.yul\":13843:13901   */\n      mstore\n        /* \"#utility.yul\":13750:13907   */\n      pop\n      pop\n      jump\t// out\n        /* \"#utility.yul\":13913:14451   */\n    tag_126:\n        /* \"#utility.yul\":14081:14084   */\n      0x00\n        /* \"#utility.yul\":14096:14171   */\n      tag_337\n        /* \"#utility.yul\":14167:14170   */\n      dup3\n        /* \"#utility.yul\":14158:14164   */\n      dup7\n        /* \"#utility.yul\":14096:14171   */\n      tag_179\n      jump\t// in\n    tag_337:\n        /* \"#utility.yul\":14196:14198   */\n      0x20\n        /* \"#utility.yul\":14191:14194   */\n      dup3\n        /* \"#utility.yul\":14187:14199   */\n      add\n        /* \"#utility.yul\":14180:14199   */\n      swap2\n      pop\n        /* \"#utility.yul\":14209:14284   */\n      tag_338\n        /* \"#utility.yul\":14280:14283   */\n      dup3\n        /* \"#utility.yul\":14271:14277   */\n      dup6\n        /* \"#utility.yul\":14209:14284   */\n      tag_179\n      jump\t// in\n    tag_338:\n        /* \"#utility.yul\":14309:14311   */\n      0x20\n        /* \"#utility.yul\":14304:14307   */\n      dup3\n        /* \"#utility.yul\":14300:14312   */\n      add\n        /* \"#utility.yul\":14293:14312   */\n      swap2\n      pop\n        /* \"#utility.yul\":14322:14397   */\n      tag_339\n        /* \"#utility.yul\":14393:14396   */\n      dup3\n        /* \"#utility.yul\":14384:14390   */\n      dup5\n        /* \"#utility.yul\":14322:14397   */\n      tag_183\n      jump\t// in\n    tag_339:\n        /* \"#utility.yul\":14422:14424   */\n      0x14\n        /* \"#utility.yul\":14417:14420   */\n      dup3\n        /* \"#utility.yul\":14413:14425   */\n      add\n        /* \"#utility.yul\":14406:14425   */\n      swap2\n      pop\n        /* \"#utility.yul\":14442:14445   */\n      dup2\n        /* \"#utility.yul\":14435:14445   */\n      swap1\n      pop\n        /* \"#utility.yul\":13913:14451   */\n      swap5\n      swap4\n      pop\n      pop\n      pop\n      pop\n      jump\t// out\n        /* \"#utility.yul\":14457:14899   */\n    tag_129:\n        /* \"#utility.yul\":14606:14610   */\n      0x00\n        /* \"#utility.yul\":14644:14646   */\n      0x60\n        /* \"#utility.yul\":14633:14642   */\n      dup3\n        /* \"#utility.yul\":14629:14647   */\n      add\n        /* \"#utility.yul\":14621:14647   */\n      swap1\n      pop\n        /* \"#utility.yul\":14657:14728   */\n      tag_341\n        /* \"#utility.yul\":14725:14726   */\n      0x00\n        /* \"#utility.yul\":14714:14723   */\n      dup4\n        /* \"#utility.yul\":14710:14727   */\n      add\n        /* \"#utility.yul\":14701:14707   */\n      dup7\n        /* \"#utility.yul\":14657:14728   */\n      tag_159\n      jump\t// in\n    tag_341:\n        /* \"#utility.yul\":14738:14810   */\n      tag_342\n        /* \"#utility.yul\":14806:14808   */\n      0x20\n        /* \"#utility.yul\":14795:14804   */\n      dup4\n        /* \"#utility.yul\":14791:14809   */\n      add\n        /* \"#utility.yul\":14782:14788   */\n      dup6\n        /* \"#utility.yul\":14738:14810   */\n      tag_159\n      jump\t// in\n    tag_342:\n        /* \"#utility.yul\":14820:14892   */\n      tag_343\n        /* \"#utility.yul\":14888:14890   */\n      0x40\n        /* \"#utility.yul\":14877:14886   */\n      dup4\n        /* \"#utility.yul\":14873:14891   */\n      add\n        /* \"#utility.yul\":14864:14870   */\n      dup5\n        /* \"#utility.yul\":14820:14892   */\n      tag_160\n      jump\t// in\n    tag_343:\n        /* \"#utility.yul\":14457:14899   */\n      swap5\n      swap4\n      pop\n      pop\n      pop\n      pop\n      jump\t// out\n        /* \"#utility.yul\":14905:15076   */\n    tag_184:\n        /* \"#utility.yul\":15045:15068   */\n      0x546f6b656e207472616e73666572206661696c65640000000000000000000000\n        /* \"#utility.yul\":15041:15042   */\n      0x00\n        /* \"#utility.yul\":15033:15039   */\n      dup3\n        /* \"#utility.yul\":15029:15043   */\n      add\n        /* \"#utility.yul\":15022:15069   */\n      mstore\n        /* \"#utility.yul\":14905:15076   */\n      pop\n      jump\t// out\n        /* \"#utility.yul\":15082:15448   */\n    tag_185:\n        /* \"#utility.yul\":15224:15227   */\n      0x00\n        /* \"#utility.yul\":15245:15312   */\n      tag_346\n        /* \"#utility.yul\":15309:15311   */\n      0x15\n        /* \"#utility.yul\":15304:15307   */\n      dup4\n        /* \"#utility.yul\":15245:15312   */\n      tag_166\n      jump\t// in\n    tag_346:\n        /* \"#utility.yul\":15238:15312   */\n      swap2\n      pop\n        /* \"#utility.yul\":15321:15414   */\n      tag_347\n        /* \"#utility.yul\":15410:15413   */\n      dup3\n        /* \"#utility.yul\":15321:15414   */\n      tag_184\n      jump\t// in\n    tag_347:\n        /* \"#utility.yul\":15439:15441   */\n      0x20\n        /* \"#utility.yul\":15434:15437   */\n      dup3\n        /* \"#utility.yul\":15430:15442   */\n      add\n        /* \"#utility.yul\":15423:15442   */\n      swap1\n      pop\n        /* \"#utility.yul\":15082:15448   */\n      swap2\n      swap1\n      pop\n      jump\t// out\n        /* \"#utility.yul\":15454:15873   */\n    tag_135:\n        /* \"#utility.yul\":15620:15624   */\n      0x00\n        /* \"#utility.yul\":15658:15660   */\n      0x20\n        /* \"#utility.yul\":15647:15656   */\n      dup3\n        /* \"#utility.yul\":15643:15661   */\n      add\n        /* \"#utility.yul\":15635:15661   */\n      swap1\n      pop\n        /* \"#utility.yul\":15707:15716   */\n      dup2\n        /* \"#utility.yul\":15701:15705   */\n      dup2\n        /* \"#utility.yul\":15697:15717   */\n      sub\n        /* \"#utility.yul\":15693:15694   */\n      0x00\n        /* \"#utility.yul\":15682:15691   */\n      dup4\n        /* \"#utility.yul\":15678:15695   */\n      add\n        /* \"#utility.yul\":15671:15718   */\n      mstore\n        /* \"#utility.yul\":15735:15866   */\n      tag_349\n        /* \"#utility.yul\":15861:15865   */\n      dup2\n        /* \"#utility.yul\":15735:15866   */\n      tag_185\n      jump\t// in\n    tag_349:\n        /* \"#utility.yul\":15727:15866   */\n      swap1\n      pop\n        /* \"#utility.yul\":15454:15873   */\n      swap2\n      swap1\n      pop\n      jump\t// out\n\n    auxdata: 0xa2646970667358221220319bf75c531a6881d773a4310213faa92e90b7c2dc0a9b21cbb1e68f9f5eae1c64736f6c634300080e0033\n}\n",
				"bytecode": {
					"linkReferences": {},
					"object": "60806040523480156200001157600080fd5b506040516200175e3803806200175e83398181016040528101906200003791906200012a565b816000806101000a81548173ffffffffffffffffffffffffffffffffffffffff021916908373ffffffffffffffffffffffffffffffffffffffff16021790555080600160006101000a81548173ffffffffffffffffffffffffffffffffffffffff021916908373ffffffffffffffffffffffffffffffffffffffff160217905550505062000171565b600080fd5b600073ffffffffffffffffffffffffffffffffffffffff82169050919050565b6000620000f282620000c5565b9050919050565b6200010481620000e5565b81146200011057600080fd5b50565b6000815190506200012481620000f9565b92915050565b60008060408385031215620001445762000143620000c0565b5b6000620001548582860162000113565b9250506020620001678582860162000113565b9150509250929050565b6115dd80620001816000396000f3fe608060405234801561001057600080fd5b506004361061007d5760003560e01c806376467cbd1161005b57806376467cbd146100da57806391b47c07146100f65780639e584f911461012c578063e430c6451461014a5761007d565b80630fc63d10146100825780632c63ec24146100a05780635f64b55b146100bc575b600080fd5b61008a61017a565b6040516100979190610e26565b60405180910390f35b6100ba60048036038101906100b59190610ea1565b61019e565b005b6100c461062b565b6040516100d19190610e26565b60405180910390f35b6100f460048036038101906100ef9190610f2a565b610651565b005b610110600480360381019061010b9190610f2a565b610bd4565b6040516101239796959493929190611028565b60405180910390f35b610134610c70565b6040516101419190611097565b60405180910390f35b610164600480360381019061015f91906110de565b610c76565b604051610171919061111e565b60405180910390f35b60008054906101000a900473ffffffffffffffffffffffffffffffffffffffff1681565b60008060018111156101b3576101b2610f66565b5b8460018111156101c6576101c5610f66565b5b036102d1578260008054906101000a900473ffffffffffffffffffffffffffffffffffffffff1673ffffffffffffffffffffffffffffffffffffffff1663dd62ed3e33306040518363ffffffff1660e01b8152600401610227929190611139565b602060405180830381865afa158015610244573d6000803e3d6000fd5b505050506040513d601f19601f820116820180604052508101906102689190611177565b10156102a9576040517f08c379a00000000000000000000000000000000000000000000000000000000081526004016102a090611201565b60405180910390fd5b60008054906101000a900473ffffffffffffffffffffffffffffffffffffffff169050610403565b6001808111156102e4576102e3610f66565b5b8460018111156102f7576102f6610f66565b5b036104025782600160009054906101000a900473ffffffffffffffffffffffffffffffffffffffff1673ffffffffffffffffffffffffffffffffffffffff1663dd62ed3e33306040518363ffffffff1660e01b815260040161035a929190611139565b602060405180830381865afa158015610377573d6000803e3d6000fd5b505050506040513d601f19601f8201168201806040525081019061039b9190611177565b10156103dc576040517f08c379a00000000000000000000000000000000000000000000000000000000081526004016103d39061126d565b60405180910390fd5b600160009054906101000a900473ffffffffffffffffffffffffffffffffffffffff1690505b5b600061041160045433610ca7565b90506040518060e0016040528082815260200186600181111561043757610436610f66565b5b81526020013373ffffffffffffffffffffffffffffffffffffffff168152602001600073ffffffffffffffffffffffffffffffffffffffff16815260200185815260200184815260200160001515815250600360008381526020019081526020016000206000820151816000015560208201518160010160006101000a81548160ff021916908360018111156104d0576104cf610f66565b5b021790555060408201518160010160016101000a81548173ffffffffffffffffffffffffffffffffffffffff021916908373ffffffffffffffffffffffffffffffffffffffff16021790555060608201518160020160006101000a81548173ffffffffffffffffffffffffffffffffffffffff021916908373ffffffffffffffffffffffffffffffffffffffff1602179055506080820151816003015560a0820151816004015560c08201518160050160006101000a81548160ff021916908315150217905550905050600260003373ffffffffffffffffffffffffffffffffffffffff1673ffffffffffffffffffffffffffffffffffffffff16815260200190815260200160002081908060018154018082558091505060019003906000526020600020016000909190919091505560046000815480929190610613906112bc565b919050555061062482333087610cdc565b5050505050565b600160009054906101000a900473ffffffffffffffffffffffffffffffffffffffff1681565b6000600360008381526020019081526020016000206040518060e0016040529081600082015481526020016001820160009054906101000a900460ff1660018111156106a05761069f610f66565b5b60018111156106b2576106b1610f66565b5b81526020016001820160019054906101000a900473ffffffffffffffffffffffffffffffffffffffff1673ffffffffffffffffffffffffffffffffffffffff1673ffffffffffffffffffffffffffffffffffffffff1681526020016002820160009054906101000a900473ffffffffffffffffffffffffffffffffffffffff1673ffffffffffffffffffffffffffffffffffffffff1673ffffffffffffffffffffffffffffffffffffffff16815260200160038201548152602001600482015481526020016005820160009054906101000a900460ff16151515158152505090503373ffffffffffffffffffffffffffffffffffffffff16816040015173ffffffffffffffffffffffffffffffffffffffff1603610805576040517f08c379a00000000000000000000000000000000000000000000000000000000081526004016107fc90611350565b60405180910390fd5b600073ffffffffffffffffffffffffffffffffffffffff16816040015173ffffffffffffffffffffffffffffffffffffffff1603610878576040517f08c379a000000000000000000000000000000000000000000000000000000000815260040161086f906113bc565b60405180910390fd5b6000806000600181111561088f5761088e610f66565b5b836020015160018111156108a6576108a5610f66565b5b036109dc578260a00151600160009054906101000a900473ffffffffffffffffffffffffffffffffffffffff1673ffffffffffffffffffffffffffffffffffffffff1663dd62ed3e33306040518363ffffffff1660e01b815260040161090d929190611139565b602060405180830381865afa15801561092a573d6000803e3d6000fd5b505050506040513d601f19601f8201168201806040525081019061094e9190611177565b101561098f576040517f08c379a00000000000000000000000000000000000000000000000000000000081526004016109869061126d565b60405180910390fd5b60008054906101000a900473ffffffffffffffffffffffffffffffffffffffff169150600160009054906101000a900473ffffffffffffffffffffffffffffffffffffffff169050610b37565b6001808111156109ef576109ee610f66565b5b83602001516001811115610a0657610a05610f66565b5b03610b36578260a0015160008054906101000a900473ffffffffffffffffffffffffffffffffffffffff1673ffffffffffffffffffffffffffffffffffffffff1663dd62ed3e33306040518363ffffffff1660e01b8152600401610a6b929190611139565b602060405180830381865afa158015610a88573d6000803e3d6000fd5b505050506040513d601f19601f82011682018060405250810190610aac9190611177565b1015610aed576040517f08c379a0000000000000000000000000000000000000000000000000000000008152600401610ae490611201565b60405180910390fd5b600160009054906101000a900473ffffffffffffffffffffffffffffffffffffffff16915060008054906101000a900473ffffffffffffffffffffffffffffffffffffffff1690505b5b8173ffffffffffffffffffffffffffffffffffffffff1663a9059cbb3385608001516040518363ffffffff1660e01b8152600401610b769291906113dc565b6020604051808303816000875af1158015610b95573d6000803e3d6000fd5b505050506040513d601f19601f82011682018060405250810190610bb99190611431565b50610bce813385604001518660a00151610cdc565b50505050565b60036020528060005260406000206000915090508060000154908060010160009054906101000a900460ff16908060010160019054906101000a900473ffffffffffffffffffffffffffffffffffffffff16908060020160009054906101000a900473ffffffffffffffffffffffffffffffffffffffff16908060030154908060040154908060050160009054906101000a900460ff16905087565b60045481565b60026020528160005260406000208181548110610c9257600080fd5b90600052602060002001600091509150505481565b6000438383604051602001610cbe939291906114c7565b60405160208183030381529060405280519060200120905092915050565b60008473ffffffffffffffffffffffffffffffffffffffff166323b872dd8585856040518463ffffffff1660e01b8152600401610d1b93929190611504565b6020604051808303816000875af1158015610d3a573d6000803e3d6000fd5b505050506040513d601f19601f82011682018060405250810190610d5e9190611431565b905080610da0576040517f08c379a0000000000000000000000000000000000000000000000000000000008152600401610d9790611587565b60405180910390fd5b5050505050565b600073ffffffffffffffffffffffffffffffffffffffff82169050919050565b6000819050919050565b6000610dec610de7610de284610da7565b610dc7565b610da7565b9050919050565b6000610dfe82610dd1565b9050919050565b6000610e1082610df3565b9050919050565b610e2081610e05565b82525050565b6000602082019050610e3b6000830184610e17565b92915050565b600080fd5b60028110610e5357600080fd5b50565b600081359050610e6581610e46565b92915050565b6000819050919050565b610e7e81610e6b565b8114610e8957600080fd5b50565b600081359050610e9b81610e75565b92915050565b600080600060608486031215610eba57610eb9610e41565b5b6000610ec886828701610e56565b9350506020610ed986828701610e8c565b9250506040610eea86828701610e8c565b9150509250925092565b6000819050919050565b610f0781610ef4565b8114610f1257600080fd5b50565b600081359050610f2481610efe565b92915050565b600060208284031215610f4057610f3f610e41565b5b6000610f4e84828501610f15565b91505092915050565b610f6081610ef4565b82525050565b7f4e487b7100000000000000000000000000000000000000000000000000000000600052602160045260246000fd5b60028110610fa657610fa5610f66565b5b50565b6000819050610fb782610f95565b919050565b6000610fc782610fa9565b9050919050565b610fd781610fbc565b82525050565b6000610fe882610da7565b9050919050565b610ff881610fdd565b82525050565b61100781610e6b565b82525050565b60008115159050919050565b6110228161100d565b82525050565b600060e08201905061103d600083018a610f57565b61104a6020830189610fce565b6110576040830188610fef565b6110646060830187610fef565b6110716080830186610ffe565b61107e60a0830185610ffe565b61108b60c0830184611019565b98975050505050505050565b60006020820190506110ac6000830184610ffe565b92915050565b6110bb81610fdd565b81146110c657600080fd5b50565b6000813590506110d8816110b2565b92915050565b600080604083850312156110f5576110f4610e41565b5b6000611103858286016110c9565b925050602061111485828601610e8c565b9150509250929050565b60006020820190506111336000830184610f57565b92915050565b600060408201905061114e6000830185610fef565b61115b6020830184610fef565b9392505050565b60008151905061117181610e75565b92915050565b60006020828403121561118d5761118c610e41565b5b600061119b84828501611162565b91505092915050565b600082825260208201905092915050565b7f546f6b656e204120616c6c6f77616e636520746f6f206c6f7700000000000000600082015250565b60006111eb6019836111a4565b91506111f6826111b5565b602082019050919050565b6000602082019050818103600083015261121a816111de565b9050919050565b7f546f6b656e204220616c6c6f77616e636520746f6f206c6f7700000000000000600082015250565b60006112576019836111a4565b915061126282611221565b602082019050919050565b600060208201905081810360008301526112868161124a565b9050919050565b7f4e487b7100000000000000000000000000000000000000000000000000000000600052601160045260246000fd5b60006112c782610e6b565b91507fffffffffffffffffffffffffffffffffffffffffffffffffffffffffffffffff82036112f9576112f861128d565b5b600182019050919050565b7f63616c6c657220697320737761702063726561746f7200000000000000000000600082015250565b600061133a6016836111a4565b915061134582611304565b602082019050919050565b600060208201905081810360008301526113698161132d565b9050919050565b7f63726561746f72207a65726f2061646472657373000000000000000000000000600082015250565b60006113a66014836111a4565b91506113b182611370565b602082019050919050565b600060208201905081810360008301526113d581611399565b9050919050565b60006040820190506113f16000830185610fef565b6113fe6020830184610ffe565b9392505050565b61140e8161100d565b811461141957600080fd5b50565b60008151905061142b81611405565b92915050565b60006020828403121561144757611446610e41565b5b60006114558482850161141c565b91505092915050565b6000819050919050565b61147961147482610e6b565b61145e565b82525050565b60008160601b9050919050565b60006114978261147f565b9050919050565b60006114a98261148c565b9050919050565b6114c16114bc82610fdd565b61149e565b82525050565b60006114d38286611468565b6020820191506114e38285611468565b6020820191506114f382846114b0565b601482019150819050949350505050565b60006060820190506115196000830186610fef565b6115266020830185610fef565b6115336040830184610ffe565b949350505050565b7f546f6b656e207472616e73666572206661696c65640000000000000000000000600082015250565b60006115716015836111a4565b915061157c8261153b565b602082019050919050565b600060208201905081810360008301526115a081611564565b905091905056fea2646970667358221220319bf75c531a6881d773a4310213faa92e90b7c2dc0a9b21cbb1e68f9f5eae1c64736f6c634300080e0033",
					"opcodes": "PUSH1 0x80 PUSH1 0x40 MSTORE CALLVALUE DUP1 ISZERO PUSH3 0x11 JUMPI PUSH1 0x0 DUP1 REVERT JUMPDEST POP PUSH1 0x40 MLOAD PUSH3 0x175E CODESIZE SUB DUP1 PUSH3 0x175E DUP4 CODECOPY DUP2 DUP2 ADD PUSH1 0x40 MSTORE DUP2 ADD SWAP1 PUSH3 0x37 SWAP2 SWAP1 PUSH3 0x12A JUMP JUMPDEST DUP2 PUSH1 0x0 DUP1 PUSH2 0x100 EXP DUP2 SLOAD DUP2 PUSH20 0xFFFFFFFFFFFFFFFFFFFFFFFFFFFFFFFFFFFFFFFF MUL NOT AND SWAP1 DUP4 PUSH20 0xFFFFFFFFFFFFFFFFFFFFFFFFFFFFFFFFFFFFFFFF AND MUL OR SWAP1 SSTORE POP DUP1 PUSH1 0x1 PUSH1 0x0 PUSH2 0x100 EXP DUP2 SLOAD DUP2 PUSH20 0xFFFFFFFFFFFFFFFFFFFFFFFFFFFFFFFFFFFFFFFF MUL NOT AND SWAP1 DUP4 PUSH20 0xFFFFFFFFFFFFFFFFFFFFFFFFFFFFFFFFFFFFFFFF AND MUL OR SWAP1 SSTORE POP POP POP PUSH3 0x171 JUMP JUMPDEST PUSH1 0x0 DUP1 REVERT JUMPDEST PUSH1 0x0 PUSH20 0xFFFFFFFFFFFFFFFFFFFFFFFFFFFFFFFFFFFFFFFF DUP3 AND SWAP1 POP SWAP2 SWAP1 POP JUMP JUMPDEST PUSH1 0x0 PUSH3 0xF2 DUP3 PUSH3 0xC5 JUMP JUMPDEST SWAP1 POP SWAP2 SWAP1 POP JUMP JUMPDEST PUSH3 0x104 DUP2 PUSH3 0xE5 JUMP JUMPDEST DUP2 EQ PUSH3 0x110 JUMPI PUSH1 0x0 DUP1 REVERT JUMPDEST POP JUMP JUMPDEST PUSH1 0x0 DUP2 MLOAD SWAP1 POP PUSH3 0x124 DUP2 PUSH3 0xF9 JUMP JUMPDEST SWAP3 SWAP2 POP POP JUMP JUMPDEST PUSH1 0x0 DUP1 PUSH1 0x40 DUP4 DUP6 SUB SLT ISZERO PUSH3 0x144 JUMPI PUSH3 0x143 PUSH3 0xC0 JUMP JUMPDEST JUMPDEST PUSH1 0x0 PUSH3 0x154 DUP6 DUP3 DUP7 ADD PUSH3 0x113 JUMP JUMPDEST SWAP3 POP POP PUSH1 0x20 PUSH3 0x167 DUP6 DUP3 DUP7 ADD PUSH3 0x113 JUMP JUMPDEST SWAP2 POP POP SWAP3 POP SWAP3 SWAP1 POP JUMP JUMPDEST PUSH2 0x15DD DUP1 PUSH3 0x181 PUSH1 0x0 CODECOPY PUSH1 0x0 RETURN INVALID PUSH1 0x80 PUSH1 0x40 MSTORE CALLVALUE DUP1 ISZERO PUSH2 0x10 JUMPI PUSH1 0x0 DUP1 REVERT JUMPDEST POP PUSH1 0x4 CALLDATASIZE LT PUSH2 0x7D JUMPI PUSH1 0x0 CALLDATALOAD PUSH1 0xE0 SHR DUP1 PUSH4 0x76467CBD GT PUSH2 0x5B JUMPI DUP1 PUSH4 0x76467CBD EQ PUSH2 0xDA JUMPI DUP1 PUSH4 0x91B47C07 EQ PUSH2 0xF6 JUMPI DUP1 PUSH4 0x9E584F91 EQ PUSH2 0x12C JUMPI DUP1 PUSH4 0xE430C645 EQ PUSH2 0x14A JUMPI PUSH2 0x7D JUMP JUMPDEST DUP1 PUSH4 0xFC63D10 EQ PUSH2 0x82 JUMPI DUP1 PUSH4 0x2C63EC24 EQ PUSH2 0xA0 JUMPI DUP1 PUSH4 0x5F64B55B EQ PUSH2 0xBC JUMPI JUMPDEST PUSH1 0x0 DUP1 REVERT JUMPDEST PUSH2 0x8A PUSH2 0x17A JUMP JUMPDEST PUSH1 0x40 MLOAD PUSH2 0x97 SWAP2 SWAP1 PUSH2 0xE26 JUMP JUMPDEST PUSH1 0x40 MLOAD DUP1 SWAP2 SUB SWAP1 RETURN JUMPDEST PUSH2 0xBA PUSH1 0x4 DUP1 CALLDATASIZE SUB DUP2 ADD SWAP1 PUSH2 0xB5 SWAP2 SWAP1 PUSH2 0xEA1 JUMP JUMPDEST PUSH2 0x19E JUMP JUMPDEST STOP JUMPDEST PUSH2 0xC4 PUSH2 0x62B JUMP JUMPDEST PUSH1 0x40 MLOAD PUSH2 0xD1 SWAP2 SWAP1 PUSH2 0xE26 JUMP JUMPDEST PUSH1 0x40 MLOAD DUP1 SWAP2 SUB SWAP1 RETURN JUMPDEST PUSH2 0xF4 PUSH1 0x4 DUP1 CALLDATASIZE SUB DUP2 ADD SWAP1 PUSH2 0xEF SWAP2 SWAP1 PUSH2 0xF2A JUMP JUMPDEST PUSH2 0x651 JUMP JUMPDEST STOP JUMPDEST PUSH2 0x110 PUSH1 0x4 DUP1 CALLDATASIZE SUB DUP2 ADD SWAP1 PUSH2 0x10B SWAP2 SWAP1 PUSH2 0xF2A JUMP JUMPDEST PUSH2 0xBD4 JUMP JUMPDEST PUSH1 0x40 MLOAD PUSH2 0x123 SWAP8 SWAP7 SWAP6 SWAP5 SWAP4 SWAP3 SWAP2 SWAP1 PUSH2 0x1028 JUMP JUMPDEST PUSH1 0x40 MLOAD DUP1 SWAP2 SUB SWAP1 RETURN JUMPDEST PUSH2 0x134 PUSH2 0xC70 JUMP JUMPDEST PUSH1 0x40 MLOAD PUSH2 0x141 SWAP2 SWAP1 PUSH2 0x1097 JUMP JUMPDEST PUSH1 0x40 MLOAD DUP1 SWAP2 SUB SWAP1 RETURN JUMPDEST PUSH2 0x164 PUSH1 0x4 DUP1 CALLDATASIZE SUB DUP2 ADD SWAP1 PUSH2 0x15F SWAP2 SWAP1 PUSH2 0x10DE JUMP JUMPDEST PUSH2 0xC76 JUMP JUMPDEST PUSH1 0x40 MLOAD PUSH2 0x171 SWAP2 SWAP1 PUSH2 0x111E JUMP JUMPDEST PUSH1 0x40 MLOAD DUP1 SWAP2 SUB SWAP1 RETURN JUMPDEST PUSH1 0x0 DUP1 SLOAD SWAP1 PUSH2 0x100 EXP SWAP1 DIV PUSH20 0xFFFFFFFFFFFFFFFFFFFFFFFFFFFFFFFFFFFFFFFF AND DUP2 JUMP JUMPDEST PUSH1 0x0 DUP1 PUSH1 0x1 DUP2 GT ISZERO PUSH2 0x1B3 JUMPI PUSH2 0x1B2 PUSH2 0xF66 JUMP JUMPDEST JUMPDEST DUP5 PUSH1 0x1 DUP2 GT ISZERO PUSH2 0x1C6 JUMPI PUSH2 0x1C5 PUSH2 0xF66 JUMP JUMPDEST JUMPDEST SUB PUSH2 0x2D1 JUMPI DUP3 PUSH1 0x0 DUP1 SLOAD SWAP1 PUSH2 0x100 EXP SWAP1 DIV PUSH20 0xFFFFFFFFFFFFFFFFFFFFFFFFFFFFFFFFFFFFFFFF AND PUSH20 0xFFFFFFFFFFFFFFFFFFFFFFFFFFFFFFFFFFFFFFFF AND PUSH4 0xDD62ED3E CALLER ADDRESS PUSH1 0x40 MLOAD DUP4 PUSH4 0xFFFFFFFF AND PUSH1 0xE0 SHL DUP2 MSTORE PUSH1 0x4 ADD PUSH2 0x227 SWAP3 SWAP2 SWAP1 PUSH2 0x1139 JUMP JUMPDEST PUSH1 0x20 PUSH1 0x40 MLOAD DUP1 DUP4 SUB DUP2 DUP7 GAS STATICCALL ISZERO DUP1 ISZERO PUSH2 0x244 JUMPI RETURNDATASIZE PUSH1 0x0 DUP1 RETURNDATACOPY RETURNDATASIZE PUSH1 0x0 REVERT JUMPDEST POP POP POP POP PUSH1 0x40 MLOAD RETURNDATASIZE PUSH1 0x1F NOT PUSH1 0x1F DUP3 ADD AND DUP3 ADD DUP1 PUSH1 0x40 MSTORE POP DUP2 ADD SWAP1 PUSH2 0x268 SWAP2 SWAP1 PUSH2 0x1177 JUMP JUMPDEST LT ISZERO PUSH2 0x2A9 JUMPI PUSH1 0x40 MLOAD PUSH32 0x8C379A000000000000000000000000000000000000000000000000000000000 DUP2 MSTORE PUSH1 0x4 ADD PUSH2 0x2A0 SWAP1 PUSH2 0x1201 JUMP JUMPDEST PUSH1 0x40 MLOAD DUP1 SWAP2 SUB SWAP1 REVERT JUMPDEST PUSH1 0x0 DUP1 SLOAD SWAP1 PUSH2 0x100 EXP SWAP1 DIV PUSH20 0xFFFFFFFFFFFFFFFFFFFFFFFFFFFFFFFFFFFFFFFF AND SWAP1 POP PUSH2 0x403 JUMP JUMPDEST PUSH1 0x1 DUP1 DUP2 GT ISZERO PUSH2 0x2E4 JUMPI PUSH2 0x2E3 PUSH2 0xF66 JUMP JUMPDEST JUMPDEST DUP5 PUSH1 0x1 DUP2 GT ISZERO PUSH2 0x2F7 JUMPI PUSH2 0x2F6 PUSH2 0xF66 JUMP JUMPDEST JUMPDEST SUB PUSH2 0x402 JUMPI DUP3 PUSH1 0x1 PUSH1 0x0 SWAP1 SLOAD SWAP1 PUSH2 0x100 EXP SWAP1 DIV PUSH20 0xFFFFFFFFFFFFFFFFFFFFFFFFFFFFFFFFFFFFFFFF AND PUSH20 0xFFFFFFFFFFFFFFFFFFFFFFFFFFFFFFFFFFFFFFFF AND PUSH4 0xDD62ED3E CALLER ADDRESS PUSH1 0x40 MLOAD DUP4 PUSH4 0xFFFFFFFF AND PUSH1 0xE0 SHL DUP2 MSTORE PUSH1 0x4 ADD PUSH2 0x35A SWAP3 SWAP2 SWAP1 PUSH2 0x1139 JUMP JUMPDEST PUSH1 0x20 PUSH1 0x40 MLOAD DUP1 DUP4 SUB DUP2 DUP7 GAS STATICCALL ISZERO DUP1 ISZERO PUSH2 0x377 JUMPI RETURNDATASIZE PUSH1 0x0 DUP1 RETURNDATACOPY RETURNDATASIZE PUSH1 0x0 REVERT JUMPDEST POP POP POP POP PUSH1 0x40 MLOAD RETURNDATASIZE PUSH1 0x1F NOT PUSH1 0x1F DUP3 ADD AND DUP3 ADD DUP1 PUSH1 0x40 MSTORE POP DUP2 ADD SWAP1 PUSH2 0x39B SWAP2 SWAP1 PUSH2 0x1177 JUMP JUMPDEST LT ISZERO PUSH2 0x3DC JUMPI PUSH1 0x40 MLOAD PUSH32 0x8C379A000000000000000000000000000000000000000000000000000000000 DUP2 MSTORE PUSH1 0x4 ADD PUSH2 0x3D3 SWAP1 PUSH2 0x126D JUMP JUMPDEST PUSH1 0x40 MLOAD DUP1 SWAP2 SUB SWAP1 REVERT JUMPDEST PUSH1 0x1 PUSH1 0x0 SWAP1 SLOAD SWAP1 PUSH2 0x100 EXP SWAP1 DIV PUSH20 0xFFFFFFFFFFFFFFFFFFFFFFFFFFFFFFFFFFFFFFFF AND SWAP1 POP JUMPDEST JUMPDEST PUSH1 0x0 PUSH2 0x411 PUSH1 0x4 SLOAD CALLER PUSH2 0xCA7 JUMP JUMPDEST SWAP1 POP PUSH1 0x40 MLOAD DUP1 PUSH1 0xE0 ADD PUSH1 0x40 MSTORE DUP1 DUP3 DUP2 MSTORE PUSH1 0x20 ADD DUP7 PUSH1 0x1 DUP2 GT ISZERO PUSH2 0x437 JUMPI PUSH2 0x436 PUSH2 0xF66 JUMP JUMPDEST JUMPDEST DUP2 MSTORE PUSH1 0x20 ADD CALLER PUSH20 0xFFFFFFFFFFFFFFFFFFFFFFFFFFFFFFFFFFFFFFFF AND DUP2 MSTORE PUSH1 0x20 ADD PUSH1 0x0 PUSH20 0xFFFFFFFFFFFFFFFFFFFFFFFFFFFFFFFFFFFFFFFF AND DUP2 MSTORE PUSH1 0x20 ADD DUP6 DUP2 MSTORE PUSH1 0x20 ADD DUP5 DUP2 MSTORE PUSH1 0x20 ADD PUSH1 0x0 ISZERO ISZERO DUP2 MSTORE POP PUSH1 0x3 PUSH1 0x0 DUP4 DUP2 MSTORE PUSH1 0x20 ADD SWAP1 DUP2 MSTORE PUSH1 0x20 ADD PUSH1 0x0 KECCAK256 PUSH1 0x0 DUP3 ADD MLOAD DUP2 PUSH1 0x0 ADD SSTORE PUSH1 0x20 DUP3 ADD MLOAD DUP2 PUSH1 0x1 ADD PUSH1 0x0 PUSH2 0x100 EXP DUP2 SLOAD DUP2 PUSH1 0xFF MUL NOT AND SWAP1 DUP4 PUSH1 0x1 DUP2 GT ISZERO PUSH2 0x4D0 JUMPI PUSH2 0x4CF PUSH2 0xF66 JUMP JUMPDEST JUMPDEST MUL OR SWAP1 SSTORE POP PUSH1 0x40 DUP3 ADD MLOAD DUP2 PUSH1 0x1 ADD PUSH1 0x1 PUSH2 0x100 EXP DUP2 SLOAD DUP2 PUSH20 0xFFFFFFFFFFFFFFFFFFFFFFFFFFFFFFFFFFFFFFFF MUL NOT AND SWAP1 DUP4 PUSH20 0xFFFFFFFFFFFFFFFFFFFFFFFFFFFFFFFFFFFFFFFF AND MUL OR SWAP1 SSTORE POP PUSH1 0x60 DUP3 ADD MLOAD DUP2 PUSH1 0x2 ADD PUSH1 0x0 PUSH2 0x100 EXP DUP2 SLOAD DUP2 PUSH20 0xFFFFFFFFFFFFFFFFFFFFFFFFFFFFFFFFFFFFFFFF MUL NOT AND SWAP1 DUP4 PUSH20 0xFFFFFFFFFFFFFFFFFFFFFFFFFFFFFFFFFFFFFFFF AND MUL OR SWAP1 SSTORE POP PUSH1 0x80 DUP3 ADD MLOAD DUP2 PUSH1 0x3 ADD SSTORE PUSH1 0xA0 DUP3 ADD MLOAD DUP2 PUSH1 0x4 ADD SSTORE PUSH1 0xC0 DUP3 ADD MLOAD DUP2 PUSH1 0x5 ADD PUSH1 0x0 PUSH2 0x100 EXP DUP2 SLOAD DUP2 PUSH1 0xFF MUL NOT AND SWAP1 DUP4 ISZERO ISZERO MUL OR SWAP1 SSTORE POP SWAP1 POP POP PUSH1 0x2 PUSH1 0x0 CALLER PUSH20 0xFFFFFFFFFFFFFFFFFFFFFFFFFFFFFFFFFFFFFFFF AND PUSH20 0xFFFFFFFFFFFFFFFFFFFFFFFFFFFFFFFFFFFFFFFF AND DUP2 MSTORE PUSH1 0x20 ADD SWAP1 DUP2 MSTORE PUSH1 0x20 ADD PUSH1 0x0 KECCAK256 DUP2 SWAP1 DUP1 PUSH1 0x1 DUP2 SLOAD ADD DUP1 DUP3 SSTORE DUP1 SWAP2 POP POP PUSH1 0x1 SWAP1 SUB SWAP1 PUSH1 0x0 MSTORE PUSH1 0x20 PUSH1 0x0 KECCAK256 ADD PUSH1 0x0 SWAP1 SWAP2 SWAP1 SWAP2 SWAP1 SWAP2 POP SSTORE PUSH1 0x4 PUSH1 0x0 DUP2 SLOAD DUP1 SWAP3 SWAP2 SWAP1 PUSH2 0x613 SWAP1 PUSH2 0x12BC JUMP JUMPDEST SWAP2 SWAP1 POP SSTORE POP PUSH2 0x624 DUP3 CALLER ADDRESS DUP8 PUSH2 0xCDC JUMP JUMPDEST POP POP POP POP POP JUMP JUMPDEST PUSH1 0x1 PUSH1 0x0 SWAP1 SLOAD SWAP1 PUSH2 0x100 EXP SWAP1 DIV PUSH20 0xFFFFFFFFFFFFFFFFFFFFFFFFFFFFFFFFFFFFFFFF AND DUP2 JUMP JUMPDEST PUSH1 0x0 PUSH1 0x3 PUSH1 0x0 DUP4 DUP2 MSTORE PUSH1 0x20 ADD SWAP1 DUP2 MSTORE PUSH1 0x20 ADD PUSH1 0x0 KECCAK256 PUSH1 0x40 MLOAD DUP1 PUSH1 0xE0 ADD PUSH1 0x40 MSTORE SWAP1 DUP2 PUSH1 0x0 DUP3 ADD SLOAD DUP2 MSTORE PUSH1 0x20 ADD PUSH1 0x1 DUP3 ADD PUSH1 0x0 SWAP1 SLOAD SWAP1 PUSH2 0x100 EXP SWAP1 DIV PUSH1 0xFF AND PUSH1 0x1 DUP2 GT ISZERO PUSH2 0x6A0 JUMPI PUSH2 0x69F PUSH2 0xF66 JUMP JUMPDEST JUMPDEST PUSH1 0x1 DUP2 GT ISZERO PUSH2 0x6B2 JUMPI PUSH2 0x6B1 PUSH2 0xF66 JUMP JUMPDEST JUMPDEST DUP2 MSTORE PUSH1 0x20 ADD PUSH1 0x1 DUP3 ADD PUSH1 0x1 SWAP1 SLOAD SWAP1 PUSH2 0x100 EXP SWAP1 DIV PUSH20 0xFFFFFFFFFFFFFFFFFFFFFFFFFFFFFFFFFFFFFFFF AND PUSH20 0xFFFFFFFFFFFFFFFFFFFFFFFFFFFFFFFFFFFFFFFF AND PUSH20 0xFFFFFFFFFFFFFFFFFFFFFFFFFFFFFFFFFFFFFFFF AND DUP2 MSTORE PUSH1 0x20 ADD PUSH1 0x2 DUP3 ADD PUSH1 0x0 SWAP1 SLOAD SWAP1 PUSH2 0x100 EXP SWAP1 DIV PUSH20 0xFFFFFFFFFFFFFFFFFFFFFFFFFFFFFFFFFFFFFFFF AND PUSH20 0xFFFFFFFFFFFFFFFFFFFFFFFFFFFFFFFFFFFFFFFF AND PUSH20 0xFFFFFFFFFFFFFFFFFFFFFFFFFFFFFFFFFFFFFFFF AND DUP2 MSTORE PUSH1 0x20 ADD PUSH1 0x3 DUP3 ADD SLOAD DUP2 MSTORE PUSH1 0x20 ADD PUSH1 0x4 DUP3 ADD SLOAD DUP2 MSTORE PUSH1 0x20 ADD PUSH1 0x5 DUP3 ADD PUSH1 0x0 SWAP1 SLOAD SWAP1 PUSH2 0x100 EXP SWAP1 DIV PUSH1 0xFF AND ISZERO ISZERO ISZERO ISZERO DUP2 MSTORE POP POP SWAP1 POP CALLER PUSH20 0xFFFFFFFFFFFFFFFFFFFFFFFFFFFFFFFFFFFFFFFF AND DUP2 PUSH1 0x40 ADD MLOAD PUSH20 0xFFFFFFFFFFFFFFFFFFFFFFFFFFFFFFFFFFFFFFFF AND SUB PUSH2 0x805 JUMPI PUSH1 0x40 MLOAD PUSH32 0x8C379A000000000000000000000000000000000000000000000000000000000 DUP2 MSTORE PUSH1 0x4 ADD PUSH2 0x7FC SWAP1 PUSH2 0x1350 JUMP JUMPDEST PUSH1 0x40 MLOAD DUP1 SWAP2 SUB SWAP1 REVERT JUMPDEST PUSH1 0x0 PUSH20 0xFFFFFFFFFFFFFFFFFFFFFFFFFFFFFFFFFFFFFFFF AND DUP2 PUSH1 0x40 ADD MLOAD PUSH20 0xFFFFFFFFFFFFFFFFFFFFFFFFFFFFFFFFFFFFFFFF AND SUB PUSH2 0x878 JUMPI PUSH1 0x40 MLOAD PUSH32 0x8C379A000000000000000000000000000000000000000000000000000000000 DUP2 MSTORE PUSH1 0x4 ADD PUSH2 0x86F SWAP1 PUSH2 0x13BC JUMP JUMPDEST PUSH1 0x40 MLOAD DUP1 SWAP2 SUB SWAP1 REVERT JUMPDEST PUSH1 0x0 DUP1 PUSH1 0x0 PUSH1 0x1 DUP2 GT ISZERO PUSH2 0x88F JUMPI PUSH2 0x88E PUSH2 0xF66 JUMP JUMPDEST JUMPDEST DUP4 PUSH1 0x20 ADD MLOAD PUSH1 0x1 DUP2 GT ISZERO PUSH2 0x8A6 JUMPI PUSH2 0x8A5 PUSH2 0xF66 JUMP JUMPDEST JUMPDEST SUB PUSH2 0x9DC JUMPI DUP3 PUSH1 0xA0 ADD MLOAD PUSH1 0x1 PUSH1 0x0 SWAP1 SLOAD SWAP1 PUSH2 0x100 EXP SWAP1 DIV PUSH20 0xFFFFFFFFFFFFFFFFFFFFFFFFFFFFFFFFFFFFFFFF AND PUSH20 0xFFFFFFFFFFFFFFFFFFFFFFFFFFFFFFFFFFFFFFFF AND PUSH4 0xDD62ED3E CALLER ADDRESS PUSH1 0x40 MLOAD DUP4 PUSH4 0xFFFFFFFF AND PUSH1 0xE0 SHL DUP2 MSTORE PUSH1 0x4 ADD PUSH2 0x90D SWAP3 SWAP2 SWAP1 PUSH2 0x1139 JUMP JUMPDEST PUSH1 0x20 PUSH1 0x40 MLOAD DUP1 DUP4 SUB DUP2 DUP7 GAS STATICCALL ISZERO DUP1 ISZERO PUSH2 0x92A JUMPI RETURNDATASIZE PUSH1 0x0 DUP1 RETURNDATACOPY RETURNDATASIZE PUSH1 0x0 REVERT JUMPDEST POP POP POP POP PUSH1 0x40 MLOAD RETURNDATASIZE PUSH1 0x1F NOT PUSH1 0x1F DUP3 ADD AND DUP3 ADD DUP1 PUSH1 0x40 MSTORE POP DUP2 ADD SWAP1 PUSH2 0x94E SWAP2 SWAP1 PUSH2 0x1177 JUMP JUMPDEST LT ISZERO PUSH2 0x98F JUMPI PUSH1 0x40 MLOAD PUSH32 0x8C379A000000000000000000000000000000000000000000000000000000000 DUP2 MSTORE PUSH1 0x4 ADD PUSH2 0x986 SWAP1 PUSH2 0x126D JUMP JUMPDEST PUSH1 0x40 MLOAD DUP1 SWAP2 SUB SWAP1 REVERT JUMPDEST PUSH1 0x0 DUP1 SLOAD SWAP1 PUSH2 0x100 EXP SWAP1 DIV PUSH20 0xFFFFFFFFFFFFFFFFFFFFFFFFFFFFFFFFFFFFFFFF AND SWAP2 POP PUSH1 0x1 PUSH1 0x0 SWAP1 SLOAD SWAP1 PUSH2 0x100 EXP SWAP1 DIV PUSH20 0xFFFFFFFFFFFFFFFFFFFFFFFFFFFFFFFFFFFFFFFF AND SWAP1 POP PUSH2 0xB37 JUMP JUMPDEST PUSH1 0x1 DUP1 DUP2 GT ISZERO PUSH2 0x9EF JUMPI PUSH2 0x9EE PUSH2 0xF66 JUMP JUMPDEST JUMPDEST DUP4 PUSH1 0x20 ADD MLOAD PUSH1 0x1 DUP2 GT ISZERO PUSH2 0xA06 JUMPI PUSH2 0xA05 PUSH2 0xF66 JUMP JUMPDEST JUMPDEST SUB PUSH2 0xB36 JUMPI DUP3 PUSH1 0xA0 ADD MLOAD PUSH1 0x0 DUP1 SLOAD SWAP1 PUSH2 0x100 EXP SWAP1 DIV PUSH20 0xFFFFFFFFFFFFFFFFFFFFFFFFFFFFFFFFFFFFFFFF AND PUSH20 0xFFFFFFFFFFFFFFFFFFFFFFFFFFFFFFFFFFFFFFFF AND PUSH4 0xDD62ED3E CALLER ADDRESS PUSH1 0x40 MLOAD DUP4 PUSH4 0xFFFFFFFF AND PUSH1 0xE0 SHL DUP2 MSTORE PUSH1 0x4 ADD PUSH2 0xA6B SWAP3 SWAP2 SWAP1 PUSH2 0x1139 JUMP JUMPDEST PUSH1 0x20 PUSH1 0x40 MLOAD DUP1 DUP4 SUB DUP2 DUP7 GAS STATICCALL ISZERO DUP1 ISZERO PUSH2 0xA88 JUMPI RETURNDATASIZE PUSH1 0x0 DUP1 RETURNDATACOPY RETURNDATASIZE PUSH1 0x0 REVERT JUMPDEST POP POP POP POP PUSH1 0x40 MLOAD RETURNDATASIZE PUSH1 0x1F NOT PUSH1 0x1F DUP3 ADD AND DUP3 ADD DUP1 PUSH1 0x40 MSTORE POP DUP2 ADD SWAP1 PUSH2 0xAAC SWAP2 SWAP1 PUSH2 0x1177 JUMP JUMPDEST LT ISZERO PUSH2 0xAED JUMPI PUSH1 0x40 MLOAD PUSH32 0x8C379A000000000000000000000000000000000000000000000000000000000 DUP2 MSTORE PUSH1 0x4 ADD PUSH2 0xAE4 SWAP1 PUSH2 0x1201 JUMP JUMPDEST PUSH1 0x40 MLOAD DUP1 SWAP2 SUB SWAP1 REVERT JUMPDEST PUSH1 0x1 PUSH1 0x0 SWAP1 SLOAD SWAP1 PUSH2 0x100 EXP SWAP1 DIV PUSH20 0xFFFFFFFFFFFFFFFFFFFFFFFFFFFFFFFFFFFFFFFF AND SWAP2 POP PUSH1 0x0 DUP1 SLOAD SWAP1 PUSH2 0x100 EXP SWAP1 DIV PUSH20 0xFFFFFFFFFFFFFFFFFFFFFFFFFFFFFFFFFFFFFFFF AND SWAP1 POP JUMPDEST JUMPDEST DUP2 PUSH20 0xFFFFFFFFFFFFFFFFFFFFFFFFFFFFFFFFFFFFFFFF AND PUSH4 0xA9059CBB CALLER DUP6 PUSH1 0x80 ADD MLOAD PUSH1 0x40 MLOAD DUP4 PUSH4 0xFFFFFFFF AND PUSH1 0xE0 SHL DUP2 MSTORE PUSH1 0x4 ADD PUSH2 0xB76 SWAP3 SWAP2 SWAP1 PUSH2 0x13DC JUMP JUMPDEST PUSH1 0x20 PUSH1 0x40 MLOAD DUP1 DUP4 SUB DUP2 PUSH1 0x0 DUP8 GAS CALL ISZERO DUP1 ISZERO PUSH2 0xB95 JUMPI RETURNDATASIZE PUSH1 0x0 DUP1 RETURNDATACOPY RETURNDATASIZE PUSH1 0x0 REVERT JUMPDEST POP POP POP POP PUSH1 0x40 MLOAD RETURNDATASIZE PUSH1 0x1F NOT PUSH1 0x1F DUP3 ADD AND DUP3 ADD DUP1 PUSH1 0x40 MSTORE POP DUP2 ADD SWAP1 PUSH2 0xBB9 SWAP2 SWAP1 PUSH2 0x1431 JUMP JUMPDEST POP PUSH2 0xBCE DUP2 CALLER DUP6 PUSH1 0x40 ADD MLOAD DUP7 PUSH1 0xA0 ADD MLOAD PUSH2 0xCDC JUMP JUMPDEST POP POP POP POP JUMP JUMPDEST PUSH1 0x3 PUSH1 0x20 MSTORE DUP1 PUSH1 0x0 MSTORE PUSH1 0x40 PUSH1 0x0 KECCAK256 PUSH1 0x0 SWAP2 POP SWAP1 POP DUP1 PUSH1 0x0 ADD SLOAD SWAP1 DUP1 PUSH1 0x1 ADD PUSH1 0x0 SWAP1 SLOAD SWAP1 PUSH2 0x100 EXP SWAP1 DIV PUSH1 0xFF AND SWAP1 DUP1 PUSH1 0x1 ADD PUSH1 0x1 SWAP1 SLOAD SWAP1 PUSH2 0x100 EXP SWAP1 DIV PUSH20 0xFFFFFFFFFFFFFFFFFFFFFFFFFFFFFFFFFFFFFFFF AND SWAP1 DUP1 PUSH1 0x2 ADD PUSH1 0x0 SWAP1 SLOAD SWAP1 PUSH2 0x100 EXP SWAP1 DIV PUSH20 0xFFFFFFFFFFFFFFFFFFFFFFFFFFFFFFFFFFFFFFFF AND SWAP1 DUP1 PUSH1 0x3 ADD SLOAD SWAP1 DUP1 PUSH1 0x4 ADD SLOAD SWAP1 DUP1 PUSH1 0x5 ADD PUSH1 0x0 SWAP1 SLOAD SWAP1 PUSH2 0x100 EXP SWAP1 DIV PUSH1 0xFF AND SWAP1 POP DUP8 JUMP JUMPDEST PUSH1 0x4 SLOAD DUP2 JUMP JUMPDEST PUSH1 0x2 PUSH1 0x20 MSTORE DUP2 PUSH1 0x0 MSTORE PUSH1 0x40 PUSH1 0x0 KECCAK256 DUP2 DUP2 SLOAD DUP2 LT PUSH2 0xC92 JUMPI PUSH1 0x0 DUP1 REVERT JUMPDEST SWAP1 PUSH1 0x0 MSTORE PUSH1 0x20 PUSH1 0x0 KECCAK256 ADD PUSH1 0x0 SWAP2 POP SWAP2 POP POP SLOAD DUP2 JUMP JUMPDEST PUSH1 0x0 NUMBER DUP4 DUP4 PUSH1 0x40 MLOAD PUSH1 0x20 ADD PUSH2 0xCBE SWAP4 SWAP3 SWAP2 SWAP1 PUSH2 0x14C7 JUMP JUMPDEST PUSH1 0x40 MLOAD PUSH1 0x20 DUP2 DUP4 SUB SUB DUP2 MSTORE SWAP1 PUSH1 0x40 MSTORE DUP1 MLOAD SWAP1 PUSH1 0x20 ADD KECCAK256 SWAP1 POP SWAP3 SWAP2 POP POP JUMP JUMPDEST PUSH1 0x0 DUP5 PUSH20 0xFFFFFFFFFFFFFFFFFFFFFFFFFFFFFFFFFFFFFFFF AND PUSH4 0x23B872DD DUP6 DUP6 DUP6 PUSH1 0x40 MLOAD DUP5 PUSH4 0xFFFFFFFF AND PUSH1 0xE0 SHL DUP2 MSTORE PUSH1 0x4 ADD PUSH2 0xD1B SWAP4 SWAP3 SWAP2 SWAP1 PUSH2 0x1504 JUMP JUMPDEST PUSH1 0x20 PUSH1 0x40 MLOAD DUP1 DUP4 SUB DUP2 PUSH1 0x0 DUP8 GAS CALL ISZERO DUP1 ISZERO PUSH2 0xD3A JUMPI RETURNDATASIZE PUSH1 0x0 DUP1 RETURNDATACOPY RETURNDATASIZE PUSH1 0x0 REVERT JUMPDEST POP POP POP POP PUSH1 0x40 MLOAD RETURNDATASIZE PUSH1 0x1F NOT PUSH1 0x1F DUP3 ADD AND DUP3 ADD DUP1 PUSH1 0x40 MSTORE POP DUP2 ADD SWAP1 PUSH2 0xD5E SWAP2 SWAP1 PUSH2 0x1431 JUMP JUMPDEST SWAP1 POP DUP1 PUSH2 0xDA0 JUMPI PUSH1 0x40 MLOAD PUSH32 0x8C379A000000000000000000000000000000000000000000000000000000000 DUP2 MSTORE PUSH1 0x4 ADD PUSH2 0xD97 SWAP1 PUSH2 0x1587 JUMP JUMPDEST PUSH1 0x40 MLOAD DUP1 SWAP2 SUB SWAP1 REVERT JUMPDEST POP POP POP POP POP JUMP JUMPDEST PUSH1 0x0 PUSH20 0xFFFFFFFFFFFFFFFFFFFFFFFFFFFFFFFFFFFFFFFF DUP3 AND SWAP1 POP SWAP2 SWAP1 POP JUMP JUMPDEST PUSH1 0x0 DUP2 SWAP1 POP SWAP2 SWAP1 POP JUMP JUMPDEST PUSH1 0x0 PUSH2 0xDEC PUSH2 0xDE7 PUSH2 0xDE2 DUP5 PUSH2 0xDA7 JUMP JUMPDEST PUSH2 0xDC7 JUMP JUMPDEST PUSH2 0xDA7 JUMP JUMPDEST SWAP1 POP SWAP2 SWAP1 POP JUMP JUMPDEST PUSH1 0x0 PUSH2 0xDFE DUP3 PUSH2 0xDD1 JUMP JUMPDEST SWAP1 POP SWAP2 SWAP1 POP JUMP JUMPDEST PUSH1 0x0 PUSH2 0xE10 DUP3 PUSH2 0xDF3 JUMP JUMPDEST SWAP1 POP SWAP2 SWAP1 POP JUMP JUMPDEST PUSH2 0xE20 DUP2 PUSH2 0xE05 JUMP JUMPDEST DUP3 MSTORE POP POP JUMP JUMPDEST PUSH1 0x0 PUSH1 0x20 DUP3 ADD SWAP1 POP PUSH2 0xE3B PUSH1 0x0 DUP4 ADD DUP5 PUSH2 0xE17 JUMP JUMPDEST SWAP3 SWAP2 POP POP JUMP JUMPDEST PUSH1 0x0 DUP1 REVERT JUMPDEST PUSH1 0x2 DUP2 LT PUSH2 0xE53 JUMPI PUSH1 0x0 DUP1 REVERT JUMPDEST POP JUMP JUMPDEST PUSH1 0x0 DUP2 CALLDATALOAD SWAP1 POP PUSH2 0xE65 DUP2 PUSH2 0xE46 JUMP JUMPDEST SWAP3 SWAP2 POP POP JUMP JUMPDEST PUSH1 0x0 DUP2 SWAP1 POP SWAP2 SWAP1 POP JUMP JUMPDEST PUSH2 0xE7E DUP2 PUSH2 0xE6B JUMP JUMPDEST DUP2 EQ PUSH2 0xE89 JUMPI PUSH1 0x0 DUP1 REVERT JUMPDEST POP JUMP JUMPDEST PUSH1 0x0 DUP2 CALLDATALOAD SWAP1 POP PUSH2 0xE9B DUP2 PUSH2 0xE75 JUMP JUMPDEST SWAP3 SWAP2 POP POP JUMP JUMPDEST PUSH1 0x0 DUP1 PUSH1 0x0 PUSH1 0x60 DUP5 DUP7 SUB SLT ISZERO PUSH2 0xEBA JUMPI PUSH2 0xEB9 PUSH2 0xE41 JUMP JUMPDEST JUMPDEST PUSH1 0x0 PUSH2 0xEC8 DUP7 DUP3 DUP8 ADD PUSH2 0xE56 JUMP JUMPDEST SWAP4 POP POP PUSH1 0x20 PUSH2 0xED9 DUP7 DUP3 DUP8 ADD PUSH2 0xE8C JUMP JUMPDEST SWAP3 POP POP PUSH1 0x40 PUSH2 0xEEA DUP7 DUP3 DUP8 ADD PUSH2 0xE8C JUMP JUMPDEST SWAP2 POP POP SWAP3 POP SWAP3 POP SWAP3 JUMP JUMPDEST PUSH1 0x0 DUP2 SWAP1 POP SWAP2 SWAP1 POP JUMP JUMPDEST PUSH2 0xF07 DUP2 PUSH2 0xEF4 JUMP JUMPDEST DUP2 EQ PUSH2 0xF12 JUMPI PUSH1 0x0 DUP1 REVERT JUMPDEST POP JUMP JUMPDEST PUSH1 0x0 DUP2 CALLDATALOAD SWAP1 POP PUSH2 0xF24 DUP2 PUSH2 0xEFE JUMP JUMPDEST SWAP3 SWAP2 POP POP JUMP JUMPDEST PUSH1 0x0 PUSH1 0x20 DUP3 DUP5 SUB SLT ISZERO PUSH2 0xF40 JUMPI PUSH2 0xF3F PUSH2 0xE41 JUMP JUMPDEST JUMPDEST PUSH1 0x0 PUSH2 0xF4E DUP5 DUP3 DUP6 ADD PUSH2 0xF15 JUMP JUMPDEST SWAP2 POP POP SWAP3 SWAP2 POP POP JUMP JUMPDEST PUSH2 0xF60 DUP2 PUSH2 0xEF4 JUMP JUMPDEST DUP3 MSTORE POP POP JUMP JUMPDEST PUSH32 0x4E487B7100000000000000000000000000000000000000000000000000000000 PUSH1 0x0 MSTORE PUSH1 0x21 PUSH1 0x4 MSTORE PUSH1 0x24 PUSH1 0x0 REVERT JUMPDEST PUSH1 0x2 DUP2 LT PUSH2 0xFA6 JUMPI PUSH2 0xFA5 PUSH2 0xF66 JUMP JUMPDEST JUMPDEST POP JUMP JUMPDEST PUSH1 0x0 DUP2 SWAP1 POP PUSH2 0xFB7 DUP3 PUSH2 0xF95 JUMP JUMPDEST SWAP2 SWAP1 POP JUMP JUMPDEST PUSH1 0x0 PUSH2 0xFC7 DUP3 PUSH2 0xFA9 JUMP JUMPDEST SWAP1 POP SWAP2 SWAP1 POP JUMP JUMPDEST PUSH2 0xFD7 DUP2 PUSH2 0xFBC JUMP JUMPDEST DUP3 MSTORE POP POP JUMP JUMPDEST PUSH1 0x0 PUSH2 0xFE8 DUP3 PUSH2 0xDA7 JUMP JUMPDEST SWAP1 POP SWAP2 SWAP1 POP JUMP JUMPDEST PUSH2 0xFF8 DUP2 PUSH2 0xFDD JUMP JUMPDEST DUP3 MSTORE POP POP JUMP JUMPDEST PUSH2 0x1007 DUP2 PUSH2 0xE6B JUMP JUMPDEST DUP3 MSTORE POP POP JUMP JUMPDEST PUSH1 0x0 DUP2 ISZERO ISZERO SWAP1 POP SWAP2 SWAP1 POP JUMP JUMPDEST PUSH2 0x1022 DUP2 PUSH2 0x100D JUMP JUMPDEST DUP3 MSTORE POP POP JUMP JUMPDEST PUSH1 0x0 PUSH1 0xE0 DUP3 ADD SWAP1 POP PUSH2 0x103D PUSH1 0x0 DUP4 ADD DUP11 PUSH2 0xF57 JUMP JUMPDEST PUSH2 0x104A PUSH1 0x20 DUP4 ADD DUP10 PUSH2 0xFCE JUMP JUMPDEST PUSH2 0x1057 PUSH1 0x40 DUP4 ADD DUP9 PUSH2 0xFEF JUMP JUMPDEST PUSH2 0x1064 PUSH1 0x60 DUP4 ADD DUP8 PUSH2 0xFEF JUMP JUMPDEST PUSH2 0x1071 PUSH1 0x80 DUP4 ADD DUP7 PUSH2 0xFFE JUMP JUMPDEST PUSH2 0x107E PUSH1 0xA0 DUP4 ADD DUP6 PUSH2 0xFFE JUMP JUMPDEST PUSH2 0x108B PUSH1 0xC0 DUP4 ADD DUP5 PUSH2 0x1019 JUMP JUMPDEST SWAP9 SWAP8 POP POP POP POP POP POP POP POP JUMP JUMPDEST PUSH1 0x0 PUSH1 0x20 DUP3 ADD SWAP1 POP PUSH2 0x10AC PUSH1 0x0 DUP4 ADD DUP5 PUSH2 0xFFE JUMP JUMPDEST SWAP3 SWAP2 POP POP JUMP JUMPDEST PUSH2 0x10BB DUP2 PUSH2 0xFDD JUMP JUMPDEST DUP2 EQ PUSH2 0x10C6 JUMPI PUSH1 0x0 DUP1 REVERT JUMPDEST POP JUMP JUMPDEST PUSH1 0x0 DUP2 CALLDATALOAD SWAP1 POP PUSH2 0x10D8 DUP2 PUSH2 0x10B2 JUMP JUMPDEST SWAP3 SWAP2 POP POP JUMP JUMPDEST PUSH1 0x0 DUP1 PUSH1 0x40 DUP4 DUP6 SUB SLT ISZERO PUSH2 0x10F5 JUMPI PUSH2 0x10F4 PUSH2 0xE41 JUMP JUMPDEST JUMPDEST PUSH1 0x0 PUSH2 0x1103 DUP6 DUP3 DUP7 ADD PUSH2 0x10C9 JUMP JUMPDEST SWAP3 POP POP PUSH1 0x20 PUSH2 0x1114 DUP6 DUP3 DUP7 ADD PUSH2 0xE8C JUMP JUMPDEST SWAP2 POP POP SWAP3 POP SWAP3 SWAP1 POP JUMP JUMPDEST PUSH1 0x0 PUSH1 0x20 DUP3 ADD SWAP1 POP PUSH2 0x1133 PUSH1 0x0 DUP4 ADD DUP5 PUSH2 0xF57 JUMP JUMPDEST SWAP3 SWAP2 POP POP JUMP JUMPDEST PUSH1 0x0 PUSH1 0x40 DUP3 ADD SWAP1 POP PUSH2 0x114E PUSH1 0x0 DUP4 ADD DUP6 PUSH2 0xFEF JUMP JUMPDEST PUSH2 0x115B PUSH1 0x20 DUP4 ADD DUP5 PUSH2 0xFEF JUMP JUMPDEST SWAP4 SWAP3 POP POP POP JUMP JUMPDEST PUSH1 0x0 DUP2 MLOAD SWAP1 POP PUSH2 0x1171 DUP2 PUSH2 0xE75 JUMP JUMPDEST SWAP3 SWAP2 POP POP JUMP JUMPDEST PUSH1 0x0 PUSH1 0x20 DUP3 DUP5 SUB SLT ISZERO PUSH2 0x118D JUMPI PUSH2 0x118C PUSH2 0xE41 JUMP JUMPDEST JUMPDEST PUSH1 0x0 PUSH2 0x119B DUP5 DUP3 DUP6 ADD PUSH2 0x1162 JUMP JUMPDEST SWAP2 POP POP SWAP3 SWAP2 POP POP JUMP JUMPDEST PUSH1 0x0 DUP3 DUP3 MSTORE PUSH1 0x20 DUP3 ADD SWAP1 POP SWAP3 SWAP2 POP POP JUMP JUMPDEST PUSH32 0x546F6B656E204120616C6C6F77616E636520746F6F206C6F7700000000000000 PUSH1 0x0 DUP3 ADD MSTORE POP JUMP JUMPDEST PUSH1 0x0 PUSH2 0x11EB PUSH1 0x19 DUP4 PUSH2 0x11A4 JUMP JUMPDEST SWAP2 POP PUSH2 0x11F6 DUP3 PUSH2 0x11B5 JUMP JUMPDEST PUSH1 0x20 DUP3 ADD SWAP1 POP SWAP2 SWAP1 POP JUMP JUMPDEST PUSH1 0x0 PUSH1 0x20 DUP3 ADD SWAP1 POP DUP2 DUP2 SUB PUSH1 0x0 DUP4 ADD MSTORE PUSH2 0x121A DUP2 PUSH2 0x11DE JUMP JUMPDEST SWAP1 POP SWAP2 SWAP1 POP JUMP JUMPDEST PUSH32 0x546F6B656E204220616C6C6F77616E636520746F6F206C6F7700000000000000 PUSH1 0x0 DUP3 ADD MSTORE POP JUMP JUMPDEST PUSH1 0x0 PUSH2 0x1257 PUSH1 0x19 DUP4 PUSH2 0x11A4 JUMP JUMPDEST SWAP2 POP PUSH2 0x1262 DUP3 PUSH2 0x1221 JUMP JUMPDEST PUSH1 0x20 DUP3 ADD SWAP1 POP SWAP2 SWAP1 POP JUMP JUMPDEST PUSH1 0x0 PUSH1 0x20 DUP3 ADD SWAP1 POP DUP2 DUP2 SUB PUSH1 0x0 DUP4 ADD MSTORE PUSH2 0x1286 DUP2 PUSH2 0x124A JUMP JUMPDEST SWAP1 POP SWAP2 SWAP1 POP JUMP JUMPDEST PUSH32 0x4E487B7100000000000000000000000000000000000000000000000000000000 PUSH1 0x0 MSTORE PUSH1 0x11 PUSH1 0x4 MSTORE PUSH1 0x24 PUSH1 0x0 REVERT JUMPDEST PUSH1 0x0 PUSH2 0x12C7 DUP3 PUSH2 0xE6B JUMP JUMPDEST SWAP2 POP PUSH32 0xFFFFFFFFFFFFFFFFFFFFFFFFFFFFFFFFFFFFFFFFFFFFFFFFFFFFFFFFFFFFFFFF DUP3 SUB PUSH2 0x12F9 JUMPI PUSH2 0x12F8 PUSH2 0x128D JUMP JUMPDEST JUMPDEST PUSH1 0x1 DUP3 ADD SWAP1 POP SWAP2 SWAP1 POP JUMP JUMPDEST PUSH32 0x63616C6C657220697320737761702063726561746F7200000000000000000000 PUSH1 0x0 DUP3 ADD MSTORE POP JUMP JUMPDEST PUSH1 0x0 PUSH2 0x133A PUSH1 0x16 DUP4 PUSH2 0x11A4 JUMP JUMPDEST SWAP2 POP PUSH2 0x1345 DUP3 PUSH2 0x1304 JUMP JUMPDEST PUSH1 0x20 DUP3 ADD SWAP1 POP SWAP2 SWAP1 POP JUMP JUMPDEST PUSH1 0x0 PUSH1 0x20 DUP3 ADD SWAP1 POP DUP2 DUP2 SUB PUSH1 0x0 DUP4 ADD MSTORE PUSH2 0x1369 DUP2 PUSH2 0x132D JUMP JUMPDEST SWAP1 POP SWAP2 SWAP1 POP JUMP JUMPDEST PUSH32 0x63726561746F72207A65726F2061646472657373000000000000000000000000 PUSH1 0x0 DUP3 ADD MSTORE POP JUMP JUMPDEST PUSH1 0x0 PUSH2 0x13A6 PUSH1 0x14 DUP4 PUSH2 0x11A4 JUMP JUMPDEST SWAP2 POP PUSH2 0x13B1 DUP3 PUSH2 0x1370 JUMP JUMPDEST PUSH1 0x20 DUP3 ADD SWAP1 POP SWAP2 SWAP1 POP JUMP JUMPDEST PUSH1 0x0 PUSH1 0x20 DUP3 ADD SWAP1 POP DUP2 DUP2 SUB PUSH1 0x0 DUP4 ADD MSTORE PUSH2 0x13D5 DUP2 PUSH2 0x1399 JUMP JUMPDEST SWAP1 POP SWAP2 SWAP1 POP JUMP JUMPDEST PUSH1 0x0 PUSH1 0x40 DUP3 ADD SWAP1 POP PUSH2 0x13F1 PUSH1 0x0 DUP4 ADD DUP6 PUSH2 0xFEF JUMP JUMPDEST PUSH2 0x13FE PUSH1 0x20 DUP4 ADD DUP5 PUSH2 0xFFE JUMP JUMPDEST SWAP4 SWAP3 POP POP POP JUMP JUMPDEST PUSH2 0x140E DUP2 PUSH2 0x100D JUMP JUMPDEST DUP2 EQ PUSH2 0x1419 JUMPI PUSH1 0x0 DUP1 REVERT JUMPDEST POP JUMP JUMPDEST PUSH1 0x0 DUP2 MLOAD SWAP1 POP PUSH2 0x142B DUP2 PUSH2 0x1405 JUMP JUMPDEST SWAP3 SWAP2 POP POP JUMP JUMPDEST PUSH1 0x0 PUSH1 0x20 DUP3 DUP5 SUB SLT ISZERO PUSH2 0x1447 JUMPI PUSH2 0x1446 PUSH2 0xE41 JUMP JUMPDEST JUMPDEST PUSH1 0x0 PUSH2 0x1455 DUP5 DUP3 DUP6 ADD PUSH2 0x141C JUMP JUMPDEST SWAP2 POP POP SWAP3 SWAP2 POP POP JUMP JUMPDEST PUSH1 0x0 DUP2 SWAP1 POP SWAP2 SWAP1 POP JUMP JUMPDEST PUSH2 0x1479 PUSH2 0x1474 DUP3 PUSH2 0xE6B JUMP JUMPDEST PUSH2 0x145E JUMP JUMPDEST DUP3 MSTORE POP POP JUMP JUMPDEST PUSH1 0x0 DUP2 PUSH1 0x60 SHL SWAP1 POP SWAP2 SWAP1 POP JUMP JUMPDEST PUSH1 0x0 PUSH2 0x1497 DUP3 PUSH2 0x147F JUMP JUMPDEST SWAP1 POP SWAP2 SWAP1 POP JUMP JUMPDEST PUSH1 0x0 PUSH2 0x14A9 DUP3 PUSH2 0x148C JUMP JUMPDEST SWAP1 POP SWAP2 SWAP1 POP JUMP JUMPDEST PUSH2 0x14C1 PUSH2 0x14BC DUP3 PUSH2 0xFDD JUMP JUMPDEST PUSH2 0x149E JUMP JUMPDEST DUP3 MSTORE POP POP JUMP JUMPDEST PUSH1 0x0 PUSH2 0x14D3 DUP3 DUP7 PUSH2 0x1468 JUMP JUMPDEST PUSH1 0x20 DUP3 ADD SWAP2 POP PUSH2 0x14E3 DUP3 DUP6 PUSH2 0x1468 JUMP JUMPDEST PUSH1 0x20 DUP3 ADD SWAP2 POP PUSH2 0x14F3 DUP3 DUP5 PUSH2 0x14B0 JUMP JUMPDEST PUSH1 0x14 DUP3 ADD SWAP2 POP DUP2 SWAP1 POP SWAP5 SWAP4 POP POP POP POP JUMP JUMPDEST PUSH1 0x0 PUSH1 0x60 DUP3 ADD SWAP1 POP PUSH2 0x1519 PUSH1 0x0 DUP4 ADD DUP7 PUSH2 0xFEF JUMP JUMPDEST PUSH2 0x1526 PUSH1 0x20 DUP4 ADD DUP6 PUSH2 0xFEF JUMP JUMPDEST PUSH2 0x1533 PUSH1 0x40 DUP4 ADD DUP5 PUSH2 0xFFE JUMP JUMPDEST SWAP5 SWAP4 POP POP POP POP JUMP JUMPDEST PUSH32 0x546F6B656E207472616E73666572206661696C65640000000000000000000000 PUSH1 0x0 DUP3 ADD MSTORE POP JUMP JUMPDEST PUSH1 0x0 PUSH2 0x1571 PUSH1 0x15 DUP4 PUSH2 0x11A4 JUMP JUMPDEST SWAP2 POP PUSH2 0x157C DUP3 PUSH2 0x153B JUMP JUMPDEST PUSH1 0x20 DUP3 ADD SWAP1 POP SWAP2 SWAP1 POP JUMP JUMPDEST PUSH1 0x0 PUSH1 0x20 DUP3 ADD SWAP1 POP DUP2 DUP2 SUB PUSH1 0x0 DUP4 ADD MSTORE PUSH2 0x15A0 DUP2 PUSH2 0x1564 JUMP JUMPDEST SWAP1 POP SWAP2 SWAP1 POP JUMP INVALID LOG2 PUSH5 0x6970667358 0x22 SLT KECCAK256 BALANCE SWAP12 0xF7 0x5C MSTORE8 BYTE PUSH9 0x81D773A4310213FAA9 0x2E SWAP1 0xB7 0xC2 0xDC EXP SWAP12 0x21 0xCB 0xB1 0xE6 DUP16 SWAP16 0x5E 0xAE SHR PUSH5 0x736F6C6343 STOP ADDMOD 0xE STOP CALLER "
				},
				"gasEstimates": {
					"creation": {
						"codeDepositCost": "1119400",
						"executionCost": "infinite",
						"totalCost": "infinite"
					},
					"external": {
						"createSwap(uint8,uint256,uint256)": "infinite",
						"globalSwapCount()": "2473",
						"ownerToSwaps(address,uint256)": "5233",
						"swap(bytes32)": "infinite",
						"swapInfo(bytes32)": "infinite",
						"tokenA()": "infinite",
						"tokenB()": "infinite"
					},
					"internal": {
						"_hash(uint256,address)": "infinite",
						"_safeTransferFrom(contract IERC20,address,address,uint256)": "infinite"
					}
				},
				"methodIdentifiers": {
					"createSwap(uint8,uint256,uint256)": "2c63ec24",
					"globalSwapCount()": "9e584f91",
					"ownerToSwaps(address,uint256)": "e430c645",
					"swap(bytes32)": "76467cbd",
					"swapInfo(bytes32)": "91b47c07",
					"tokenA()": "0fc63d10",
					"tokenB()": "5f64b55b"
				}
			},
			"storageLayout": {
				"storage": [
					{
						"astId": 6,
						"contract": "contracts/2_TokenSwap/TokenSwap.sol:TokenSwap",
						"label": "tokenA",
						"offset": 0,
						"slot": "0",
						"type": "t_contract(IERC20)1007"
					},
					{
						"astId": 9,
						"contract": "contracts/2_TokenSwap/TokenSwap.sol:TokenSwap",
						"label": "tokenB",
						"offset": 0,
						"slot": "1",
						"type": "t_contract(IERC20)1007"
					},
					{
						"astId": 33,
						"contract": "contracts/2_TokenSwap/TokenSwap.sol:TokenSwap",
						"label": "ownerToSwaps",
						"offset": 0,
						"slot": "2",
						"type": "t_mapping(t_address,t_array(t_bytes32)dyn_storage)"
					},
					{
						"astId": 38,
						"contract": "contracts/2_TokenSwap/TokenSwap.sol:TokenSwap",
						"label": "swapInfo",
						"offset": 0,
						"slot": "3",
						"type": "t_mapping(t_bytes32,t_struct(Swap)28_storage)"
					},
					{
						"astId": 40,
						"contract": "contracts/2_TokenSwap/TokenSwap.sol:TokenSwap",
						"label": "globalSwapCount",
						"offset": 0,
						"slot": "4",
						"type": "t_uint256"
					}
				],
				"types": {
					"t_address": {
						"encoding": "inplace",
						"label": "address",
						"numberOfBytes": "20"
					},
					"t_array(t_bytes32)dyn_storage": {
						"base": "t_bytes32",
						"encoding": "dynamic_array",
						"label": "bytes32[]",
						"numberOfBytes": "32"
					},
					"t_bool": {
						"encoding": "inplace",
						"label": "bool",
						"numberOfBytes": "1"
					},
					"t_bytes32": {
						"encoding": "inplace",
						"label": "bytes32",
						"numberOfBytes": "32"
					},
					"t_contract(IERC20)1007": {
						"encoding": "inplace",
						"label": "contract IERC20",
						"numberOfBytes": "20"
					},
					"t_enum(SwapType)12": {
						"encoding": "inplace",
						"label": "enum TokenSwap.SwapType",
						"numberOfBytes": "1"
					},
					"t_mapping(t_address,t_array(t_bytes32)dyn_storage)": {
						"encoding": "mapping",
						"key": "t_address",
						"label": "mapping(address => bytes32[])",
						"numberOfBytes": "32",
						"value": "t_array(t_bytes32)dyn_storage"
					},
					"t_mapping(t_bytes32,t_struct(Swap)28_storage)": {
						"encoding": "mapping",
						"key": "t_bytes32",
						"label": "mapping(bytes32 => struct TokenSwap.Swap)",
						"numberOfBytes": "32",
						"value": "t_struct(Swap)28_storage"
					},
					"t_struct(Swap)28_storage": {
						"encoding": "inplace",
						"label": "struct TokenSwap.Swap",
						"members": [
							{
								"astId": 14,
								"contract": "contracts/2_TokenSwap/TokenSwap.sol:TokenSwap",
								"label": "id",
								"offset": 0,
								"slot": "0",
								"type": "t_bytes32"
							},
							{
								"astId": 17,
								"contract": "contracts/2_TokenSwap/TokenSwap.sol:TokenSwap",
								"label": "swapType",
								"offset": 0,
								"slot": "1",
								"type": "t_enum(SwapType)12"
							},
							{
								"astId": 19,
								"contract": "contracts/2_TokenSwap/TokenSwap.sol:TokenSwap",
								"label": "creator",
								"offset": 1,
								"slot": "1",
								"type": "t_address"
							},
							{
								"astId": 21,
								"contract": "contracts/2_TokenSwap/TokenSwap.sol:TokenSwap",
								"label": "swappedBy",
								"offset": 0,
								"slot": "2",
								"type": "t_address"
							},
							{
								"astId": 23,
								"contract": "contracts/2_TokenSwap/TokenSwap.sol:TokenSwap",
								"label": "amountFrom",
								"offset": 0,
								"slot": "3",
								"type": "t_uint256"
							},
							{
								"astId": 25,
								"contract": "contracts/2_TokenSwap/TokenSwap.sol:TokenSwap",
								"label": "amountTo",
								"offset": 0,
								"slot": "4",
								"type": "t_uint256"
							},
							{
								"astId": 27,
								"contract": "contracts/2_TokenSwap/TokenSwap.sol:TokenSwap",
								"label": "isSwapped",
								"offset": 0,
								"slot": "5",
								"type": "t_bool"
							}
						],
						"numberOfBytes": "192"
					},
					"t_uint256": {
						"encoding": "inplace",
						"label": "uint256",
						"numberOfBytes": "32"
					}
				}
			},
			"userdoc": {
				"kind": "user",
				"methods": {},
				"version": 1
			}
		}
	}
}